{
  "_format": "hh-sol-artifact-1",
  "contractName": "Users",
  "sourceName": "Contracts/UsersContract.sol",
  "abi": [
    {
      "anonymous": false,
      "inputs": [
        {
          "indexed": false,
          "internalType": "string",
          "name": "",
          "type": "string"
        },
        {
          "indexed": false,
          "internalType": "uint256",
          "name": "",
          "type": "uint256"
        }
      ],
      "name": "log",
      "type": "event"
    },
    {
      "stateMutability": "payable",
      "type": "fallback"
    },
    {
      "inputs": [
        {
          "internalType": "address",
          "name": "_userAddress",
          "type": "address"
        },
        {
          "internalType": "string[12]",
          "name": "_secretPhrase",
          "type": "string[12]"
        }
      ],
      "name": "AuthenticateUser",
      "outputs": [
        {
          "internalType": "bool",
          "name": "",
          "type": "bool"
        }
      ],
      "stateMutability": "view",
      "type": "function"
    },
    {
      "inputs": [
        {
          "internalType": "address",
          "name": "_userAddress",
          "type": "address"
        }
      ],
      "name": "AuthorizeUser",
      "outputs": [
        {
          "internalType": "bool",
          "name": "",
          "type": "bool"
        }
      ],
      "stateMutability": "view",
      "type": "function"
    },
    {
      "inputs": [],
      "name": "_owner",
      "outputs": [
        {
          "internalType": "address",
          "name": "",
          "type": "address"
        }
      ],
      "stateMutability": "view",
      "type": "function"
    },
    {
      "inputs": [
        {
          "internalType": "address",
          "name": "new_owner",
          "type": "address"
        },
        {
          "internalType": "address",
          "name": "old_owner",
          "type": "address"
        }
      ],
      "name": "claimOwnership",
      "outputs": [
        {
          "internalType": "string",
          "name": "",
          "type": "string"
        }
      ],
      "stateMutability": "nonpayable",
      "type": "function"
    },
    {
      "inputs": [
        {
          "internalType": "string",
          "name": "_first_name",
          "type": "string"
        },
        {
          "internalType": "string",
          "name": "_last_name",
          "type": "string"
        },
        {
          "internalType": "string",
          "name": "_username",
          "type": "string"
        },
        {
          "internalType": "address",
          "name": "_wallet_address",
          "type": "address"
        },
        {
          "internalType": "enum Users.group",
          "name": "userType",
          "type": "uint8"
        },
        {
          "internalType": "string[12]",
          "name": "_secretPhrase",
          "type": "string[12]"
        },
        {
          "internalType": "string",
          "name": "_email_address",
          "type": "string"
        }
      ],
      "name": "createUser",
      "outputs": [
        {
          "components": [
            {
              "internalType": "string",
              "name": "first_name",
              "type": "string"
            },
            {
              "internalType": "string",
              "name": "last_name",
              "type": "string"
            },
            {
              "internalType": "string",
              "name": "username",
              "type": "string"
            },
            {
              "internalType": "string",
              "name": "email_address",
              "type": "string"
            },
            {
              "internalType": "address",
              "name": "walletAddress",
              "type": "address"
            },
            {
              "internalType": "enum Users.group",
              "name": "userGroup",
              "type": "uint8"
            },
            {
              "components": [
                {
                  "internalType": "string[12]",
                  "name": "words",
                  "type": "string[12]"
                }
              ],
              "internalType": "struct Users.Phrase",
              "name": "secret_phrase",
              "type": "tuple"
            }
          ],
          "internalType": "struct Users.User",
          "name": "",
          "type": "tuple"
        }
      ],
      "stateMutability": "nonpayable",
      "type": "function"
    },
    {
      "inputs": [],
      "name": "getTotalUser",
      "outputs": [
        {
          "internalType": "uint256",
          "name": "",
          "type": "uint256"
        }
      ],
      "stateMutability": "view",
      "type": "function"
    },
    {
      "inputs": [
        {
          "internalType": "address",
          "name": "_userAddress",
          "type": "address"
        }
      ],
      "name": "getUser",
      "outputs": [
        {
          "components": [
            {
              "internalType": "string",
              "name": "first_name",
              "type": "string"
            },
            {
              "internalType": "string",
              "name": "last_name",
              "type": "string"
            },
            {
              "internalType": "string",
              "name": "username",
              "type": "string"
            },
            {
              "internalType": "string",
              "name": "email_address",
              "type": "string"
            },
            {
              "internalType": "address",
              "name": "walletAddress",
              "type": "address"
            },
            {
              "internalType": "enum Users.group",
              "name": "userGroup",
              "type": "uint8"
            },
            {
              "components": [
                {
                  "internalType": "string[12]",
                  "name": "words",
                  "type": "string[12]"
                }
              ],
              "internalType": "struct Users.Phrase",
              "name": "secret_phrase",
              "type": "tuple"
            }
          ],
          "internalType": "struct Users.User",
          "name": "",
          "type": "tuple"
        },
        {
          "internalType": "uint256",
          "name": "index",
          "type": "uint256"
        }
      ],
      "stateMutability": "view",
      "type": "function"
    },
    {
      "stateMutability": "payable",
      "type": "receive"
    }
  ],
  "bytecode": "0x608060405234801561001057600080fd5b506128c6806100206000396000f3fe6080604052600436106100745760003560e01c80636f77926b1161004e5780636f77926b146101a2578063a9c63aa0146101e0578063b2bdfa7b1461020b578063fd837d9b14610236576100b2565b80632be2ab7f146100eb5780632cf58ac214610128578063398579c414610165576100b2565b366100b2577fb60e72ccf6d57ab53eb84d7e94a9545806ed7f93c4d5673f11a64f03471e584e346040516100a89190611940565b60405180910390a1005b7fb60e72ccf6d57ab53eb84d7e94a9545806ed7f93c4d5673f11a64f03471e584e346040516100e19190611940565b60405180910390a1005b3480156100f757600080fd5b50610112600480360381019061010d9190611bfa565b610273565b60405161011f9190611c71565b60405180910390f35b34801561013457600080fd5b5061014f600480360381019061014a9190611c8c565b61081e565b60405161015c9190611c71565b60405180910390f35b34801561017157600080fd5b5061018c60048036038101906101879190611d5b565b610cf0565b6040516101999190612138565b60405180910390f35b3480156101ae57600080fd5b506101c960048036038101906101c49190611c8c565b611191565b6040516101d792919061215a565b60405180910390f35b3480156101ec57600080fd5b506101f561162f565b604051610202919061218a565b60405180910390f35b34801561021757600080fd5b5061022061163c565b60405161022d91906121b4565b60405180910390f35b34801561024257600080fd5b5061025d600480360381019061025891906121cf565b611660565b60405161026a9190612248565b60405180910390f35b600061027d611751565b6102856117bc565b60005b6001805490508111610707578573ffffffffffffffffffffffffffffffffffffffff16600182815481106102bf576102be61226a565b5b906000526020600020906011020160040160009054906101000a900473ffffffffffffffffffffffffffffffffffffffff1673ffffffffffffffffffffffffffffffffffffffff16036106f457600181815481106103205761031f61226a565b5b90600052602060002090601102016040518060e0016040529081600082018054610349906122c8565b80601f0160208091040260200160405190810160405280929190818152602001828054610375906122c8565b80156103c25780601f10610397576101008083540402835291602001916103c2565b820191906000526020600020905b8154815290600101906020018083116103a557829003601f168201915b505050505081526020016001820180546103db906122c8565b80601f0160208091040260200160405190810160405280929190818152602001828054610407906122c8565b80156104545780601f1061042957610100808354040283529160200191610454565b820191906000526020600020905b81548152906001019060200180831161043757829003601f168201915b5050505050815260200160028201805461046d906122c8565b80601f0160208091040260200160405190810160405280929190818152602001828054610499906122c8565b80156104e65780601f106104bb576101008083540402835291602001916104e6565b820191906000526020600020905b8154815290600101906020018083116104c957829003601f168201915b505050505081526020016003820180546104ff906122c8565b80601f016020809104026020016040519081016040528092919081815260200182805461052b906122c8565b80156105785780601f1061054d57610100808354040283529160200191610578565b820191906000526020600020905b81548152906001019060200180831161055b57829003601f168201915b505050505081526020016004820160009054906101000a900473ffffffffffffffffffffffffffffffffffffffff1673ffffffffffffffffffffffffffffffffffffffff1673ffffffffffffffffffffffffffffffffffffffff1681526020016004820160149054906101000a900460ff1660018111156105fc576105fb611f29565b5b600181111561060e5761060d611f29565b5b81526020016005820160405180602001604052908160008201600c80602002604051908101604052809291906000905b828210156106e1578382018054610654906122c8565b80601f0160208091040260200160405190810160405280929190818152602001828054610680906122c8565b80156106cd5780601f106106a2576101008083540402835291602001916106cd565b820191906000526020600020905b8154815290600101906020018083116106b057829003601f168201915b50505050508152602001906001019061063e565b5050505081525050815250509250610707565b80806106ff90612328565b915050610288565b5060005b600c811015610762578260c001516000015181600c811061072f5761072e61226a565b5b60200201518282600c81106107475761074661226a565b5b6020020181905250808061075a90612328565b91505061070b565b5060005b600c811015610810578181600c81106107825761078161226a565b5b602002015160405160200161079791906123ac565b604051602081830303815290604052805190602001208582600c81106107c0576107bf61226a565b5b60200201516040516020016107d591906123ac565b6040516020818303038152906040528051906020012003156107fd5760009350505050610818565b808061080890612328565b915050610766565b506001925050505b92915050565b6000610828611751565b60005b6001805490508111610caa578373ffffffffffffffffffffffffffffffffffffffff16600182815481106108625761086161226a565b5b906000526020600020906011020160040160009054906101000a900473ffffffffffffffffffffffffffffffffffffffff1673ffffffffffffffffffffffffffffffffffffffff1603610c9757600181815481106108c3576108c261226a565b5b90600052602060002090601102016040518060e00160405290816000820180546108ec906122c8565b80601f0160208091040260200160405190810160405280929190818152602001828054610918906122c8565b80156109655780601f1061093a57610100808354040283529160200191610965565b820191906000526020600020905b81548152906001019060200180831161094857829003601f168201915b5050505050815260200160018201805461097e906122c8565b80601f01602080910402602001604051908101604052809291908181526020018280546109aa906122c8565b80156109f75780601f106109cc576101008083540402835291602001916109f7565b820191906000526020600020905b8154815290600101906020018083116109da57829003601f168201915b50505050508152602001600282018054610a10906122c8565b80601f0160208091040260200160405190810160405280929190818152602001828054610a3c906122c8565b8015610a895780601f10610a5e57610100808354040283529160200191610a89565b820191906000526020600020905b815481529060010190602001808311610a6c57829003601f168201915b50505050508152602001600382018054610aa2906122c8565b80601f0160208091040260200160405190810160405280929190818152602001828054610ace906122c8565b8015610b1b5780601f10610af057610100808354040283529160200191610b1b565b820191906000526020600020905b815481529060010190602001808311610afe57829003601f168201915b505050505081526020016004820160009054906101000a900473ffffffffffffffffffffffffffffffffffffffff1673ffffffffffffffffffffffffffffffffffffffff1673ffffffffffffffffffffffffffffffffffffffff1681526020016004820160149054906101000a900460ff166001811115610b9f57610b9e611f29565b5b6001811115610bb157610bb0611f29565b5b81526020016005820160405180602001604052908160008201600c80602002604051908101604052809291906000905b82821015610c84578382018054610bf7906122c8565b80601f0160208091040260200160405190810160405280929190818152602001828054610c23906122c8565b8015610c705780601f10610c4557610100808354040283529160200191610c70565b820191906000526020600020905b815481529060010190602001808311610c5357829003601f168201915b505050505081526020019060010190610be1565b5050505081525050815250509150610caa565b8080610ca290612328565b91505061082b565b5060006001811115610cbf57610cbe611f29565b5b8160a001516001811115610cd657610cd5611f29565b5b03610ce5576001915050610ceb565b60009150505b919050565b610cf8611751565b60005b6001805490508114610dcd578673ffffffffffffffffffffffffffffffffffffffff1660018281548110610d3257610d3161226a565b5b906000526020600020906011020160040160009054906101000a900473ffffffffffffffffffffffffffffffffffffffff1673ffffffffffffffffffffffffffffffffffffffff1603610dba576040517f08c379a0000000000000000000000000000000000000000000000000000000008152600401610db190612435565b60405180910390fd5b8080610dc590612328565b915050610cfb565b610dd5611751565b8d8d8080601f016020809104026020016040519081016040528093929190818152602001838380828437600081840152601f19601f8201169050808301925050505050505081600001819052508b8b8080601f016020809104026020016040519081016040528093929190818152602001838380828437600081840152601f19601f82011690508083019250505050505050816020018190525087816080019073ffffffffffffffffffffffffffffffffffffffff16908173ffffffffffffffffffffffffffffffffffffffff168152505084848080601f016020809104026020016040519081016040528093929190818152602001838380828437600081840152601f19601f82011690508083019250505050505050816060018190525089898080601f016020809104026020016040519081016040528093929190818152602001838380828437600081840152601f19601f820116905080830192505050505050508160400181905250868160a001906001811115610f5957610f58611f29565b5b90816001811115610f6d57610f6c611f29565b5b81525050600c8014610fb4576040517f08c379a0000000000000000000000000000000000000000000000000000000008152600401610fab906124c7565b60405180910390fd5b60005b600c81101561105c578681600c8110610fd357610fd261226a565b5b602002810190610fe391906124f6565b8080601f016020809104026020016040519081016040528093929190818152602001838380828437600081840152601f19601f820116905080830192505050505050508260c001516000015182600c81106110415761104061226a565b5b6020020181905250808061105490612328565b915050610fb7565b506001819080600181540180825580915050600190039060005260206000209060110201600090919091909150600082015181600001908161109e9190612705565b5060208201518160010190816110b49190612705565b5060408201518160020190816110ca9190612705565b5060608201518160030190816110e09190612705565b5060808201518160040160006101000a81548173ffffffffffffffffffffffffffffffffffffffff021916908373ffffffffffffffffffffffffffffffffffffffff16021790555060a08201518160040160146101000a81548160ff0219169083600181111561115357611152611f29565b5b021790555060c08201518160050160008201518160000190600c6111789291906117e4565b505050505080925050509b9a5050505050505050505050565b611199611751565b60006111a3611751565b60005b6001805490508111611625578473ffffffffffffffffffffffffffffffffffffffff16600182815481106111dd576111dc61226a565b5b906000526020600020906011020160040160009054906101000a900473ffffffffffffffffffffffffffffffffffffffff1673ffffffffffffffffffffffffffffffffffffffff1603611612576001818154811061123e5761123d61226a565b5b90600052602060002090601102016040518060e0016040529081600082018054611267906122c8565b80601f0160208091040260200160405190810160405280929190818152602001828054611293906122c8565b80156112e05780601f106112b5576101008083540402835291602001916112e0565b820191906000526020600020905b8154815290600101906020018083116112c357829003601f168201915b505050505081526020016001820180546112f9906122c8565b80601f0160208091040260200160405190810160405280929190818152602001828054611325906122c8565b80156113725780601f1061134757610100808354040283529160200191611372565b820191906000526020600020905b81548152906001019060200180831161135557829003601f168201915b5050505050815260200160028201805461138b906122c8565b80601f01602080910402602001604051908101604052809291908181526020018280546113b7906122c8565b80156114045780601f106113d957610100808354040283529160200191611404565b820191906000526020600020905b8154815290600101906020018083116113e757829003601f168201915b5050505050815260200160038201805461141d906122c8565b80601f0160208091040260200160405190810160405280929190818152602001828054611449906122c8565b80156114965780601f1061146b57610100808354040283529160200191611496565b820191906000526020600020905b81548152906001019060200180831161147957829003601f168201915b505050505081526020016004820160009054906101000a900473ffffffffffffffffffffffffffffffffffffffff1673ffffffffffffffffffffffffffffffffffffffff1673ffffffffffffffffffffffffffffffffffffffff1681526020016004820160149054906101000a900460ff16600181111561151a57611519611f29565b5b600181111561152c5761152b611f29565b5b81526020016005820160405180602001604052908160008201600c80602002604051908101604052809291906000905b828210156115ff578382018054611572906122c8565b80601f016020809104026020016040519081016040528092919081815260200182805461159e906122c8565b80156115eb5780601f106115c0576101008083540402835291602001916115eb565b820191906000526020600020905b8154815290600101906020018083116115ce57829003601f168201915b50505050508152602001906001019061155c565b5050505081525050815250509150611625565b808061161d90612328565b9150506111a6565b5080925050915091565b6000600180549050905090565b60008054906101000a900473ffffffffffffffffffffffffffffffffffffffff1681565b60608173ffffffffffffffffffffffffffffffffffffffff1660008054906101000a900473ffffffffffffffffffffffffffffffffffffffff1673ffffffffffffffffffffffffffffffffffffffff16146116f0576040517f08c379a00000000000000000000000000000000000000000000000000000000081526004016116e790612849565b60405180910390fd5b826000806101000a81548173ffffffffffffffffffffffffffffffffffffffff021916908373ffffffffffffffffffffffffffffffffffffffff16021790555060405180606001604052806027815260200161286a60279139905092915050565b6040518060e0016040528060608152602001606081526020016060815260200160608152602001600073ffffffffffffffffffffffffffffffffffffffff168152602001600060018111156117a9576117a8611f29565b5b81526020016117b6611830565b81525090565b604051806101800160405280600c905b60608152602001906001900390816117cc5790505090565b82600c810192821561181f579160200282015b8281111561181e57825182908161180e9190612705565b50916020019190600101906117f7565b5b50905061182c9190611849565b5090565b60405180602001604052806118436117bc565b81525090565b5b808211156118695760008181611860919061186d565b5060010161184a565b5090565b508054611879906122c8565b6000825580601f1061188b57506118aa565b601f0160209004906000526020600020908101906118a991906118ad565b5b50565b5b808211156118c65760008160009055506001016118ae565b5090565b600082825260208201905092915050565b7f416d6f756e742072656369657665640000000000000000000000000000000000600082015250565b6000611911600f836118ca565b915061191c826118db565b602082019050919050565b6000819050919050565b61193a81611927565b82525050565b6000604082019050818103600083015261195981611904565b90506119686020830184611931565b92915050565b6000604051905090565b600080fd5b600080fd5b600073ffffffffffffffffffffffffffffffffffffffff82169050919050565b60006119ad82611982565b9050919050565b6119bd816119a2565b81146119c857600080fd5b50565b6000813590506119da816119b4565b92915050565b600080fd5b6000601f19601f8301169050919050565b7f4e487b7100000000000000000000000000000000000000000000000000000000600052604160045260246000fd5b611a2e826119e5565b810181811067ffffffffffffffff82111715611a4d57611a4c6119f6565b5b80604052505050565b6000611a6061196e565b9050611a6c8282611a25565b919050565b600067ffffffffffffffff821115611a8c57611a8b6119f6565b5b602082029050919050565b600080fd5b600080fd5b600067ffffffffffffffff821115611abc57611abb6119f6565b5b611ac5826119e5565b9050602081019050919050565b82818337600083830152505050565b6000611af4611aef84611aa1565b611a56565b905082815260208101848484011115611b1057611b0f611a9c565b5b611b1b848285611ad2565b509392505050565b600082601f830112611b3857611b376119e0565b5b8135611b48848260208601611ae1565b91505092915050565b6000611b64611b5f84611a71565b611a56565b90508060208402830185811115611b7e57611b7d611a97565b5b835b81811015611bc557803567ffffffffffffffff811115611ba357611ba26119e0565b5b808601611bb08982611b23565b85526020850194505050602081019050611b80565b5050509392505050565b600082601f830112611be457611be36119e0565b5b600c611bf1848285611b51565b91505092915050565b60008060408385031215611c1157611c10611978565b5b6000611c1f858286016119cb565b925050602083013567ffffffffffffffff811115611c4057611c3f61197d565b5b611c4c85828601611bcf565b9150509250929050565b60008115159050919050565b611c6b81611c56565b82525050565b6000602082019050611c866000830184611c62565b92915050565b600060208284031215611ca257611ca1611978565b5b6000611cb0848285016119cb565b91505092915050565b600080fd5b60008083601f840112611cd457611cd36119e0565b5b8235905067ffffffffffffffff811115611cf157611cf0611cb9565b5b602083019150836001820283011115611d0d57611d0c611a97565b5b9250929050565b60028110611d2157600080fd5b50565b600081359050611d3381611d14565b92915050565b6000819050826020600c0282011115611d5557611d54611a97565b5b92915050565b600080600080600080600080600080600060e08c8e031215611d8057611d7f611978565b5b60008c013567ffffffffffffffff811115611d9e57611d9d61197d565b5b611daa8e828f01611cbe565b9b509b505060208c013567ffffffffffffffff811115611dcd57611dcc61197d565b5b611dd98e828f01611cbe565b995099505060408c013567ffffffffffffffff811115611dfc57611dfb61197d565b5b611e088e828f01611cbe565b97509750506060611e1b8e828f016119cb565b9550506080611e2c8e828f01611d24565b94505060a08c013567ffffffffffffffff811115611e4d57611e4c61197d565b5b611e598e828f01611d39565b93505060c08c013567ffffffffffffffff811115611e7a57611e7961197d565b5b611e868e828f01611cbe565b92509250509295989b509295989b9093969950565b600081519050919050565b600082825260208201905092915050565b60005b83811015611ed5578082015181840152602081019050611eba565b60008484015250505050565b6000611eec82611e9b565b611ef68185611ea6565b9350611f06818560208601611eb7565b611f0f816119e5565b840191505092915050565b611f23816119a2565b82525050565b7f4e487b7100000000000000000000000000000000000000000000000000000000600052602160045260246000fd5b60028110611f6957611f68611f29565b5b50565b6000819050611f7a82611f58565b919050565b6000611f8a82611f6c565b9050919050565b611f9a81611f7f565b82525050565b6000600c9050919050565b600081905092915050565b6000819050919050565b6000611fcc8383611ee1565b905092915050565b6000602082019050919050565b6000611fec82611fa0565b611ff68185611fab565b93508360208202850161200885611fb6565b8060005b8581101561204457848403895281516120258582611fc0565b945061203083611fd4565b925060208a0199505060018101905061200c565b50829750879550505050505092915050565b600060208301600083015184820360008601526120738282611fe1565b9150508091505092915050565b600060e083016000830151848203600086015261209d8282611ee1565b915050602083015184820360208601526120b78282611ee1565b915050604083015184820360408601526120d18282611ee1565b915050606083015184820360608601526120eb8282611ee1565b91505060808301516121006080860182611f1a565b5060a083015161211360a0860182611f91565b5060c083015184820360c086015261212b8282612056565b9150508091505092915050565b600060208201905081810360008301526121528184612080565b905092915050565b600060408201905081810360008301526121748185612080565b90506121836020830184611931565b9392505050565b600060208201905061219f6000830184611931565b92915050565b6121ae816119a2565b82525050565b60006020820190506121c960008301846121a5565b92915050565b600080604083850312156121e6576121e5611978565b5b60006121f4858286016119cb565b9250506020612205858286016119cb565b9150509250929050565b600061221a82611e9b565b61222481856118ca565b9350612234818560208601611eb7565b61223d816119e5565b840191505092915050565b60006020820190508181036000830152612262818461220f565b905092915050565b7f4e487b7100000000000000000000000000000000000000000000000000000000600052603260045260246000fd5b7f4e487b7100000000000000000000000000000000000000000000000000000000600052602260045260246000fd5b600060028204905060018216806122e057607f821691505b6020821081036122f3576122f2612299565b5b50919050565b7f4e487b7100000000000000000000000000000000000000000000000000000000600052601160045260246000fd5b600061233382611927565b91507fffffffffffffffffffffffffffffffffffffffffffffffffffffffffffffffff8203612365576123646122f9565b5b600182019050919050565b600081905092915050565b600061238682611e9b565b6123908185612370565b93506123a0818560208601611eb7565b80840191505092915050565b60006123b8828461237b565b915081905092915050565b7f416e206163636f756e7420616c72656164792068617320746869732077616c6c60008201527f6574206164647265737300000000000000000000000000000000000000000000602082015250565b600061241f602a836118ca565b915061242a826123c3565b604082019050919050565b6000602082019050818103600083015261244e81612412565b9050919050565b7f4e756d626572206f6620776f72647320696e636f6d706c657465206f7220657860008201527f6365656465640000000000000000000000000000000000000000000000000000602082015250565b60006124b16026836118ca565b91506124bc82612455565b604082019050919050565b600060208201905081810360008301526124e0816124a4565b9050919050565b600080fd5b600080fd5b600080fd5b60008083356001602003843603038112612513576125126124e7565b5b80840192508235915067ffffffffffffffff821115612535576125346124ec565b5b602083019250600182023603831315612551576125506124f1565b5b509250929050565b60008190508160005260206000209050919050565b60006020601f8301049050919050565b600082821b905092915050565b6000600883026125bb7fffffffffffffffffffffffffffffffffffffffffffffffffffffffffffffffff8261257e565b6125c5868361257e565b95508019841693508086168417925050509392505050565b6000819050919050565b60006126026125fd6125f884611927565b6125dd565b611927565b9050919050565b6000819050919050565b61261c836125e7565b61263061262882612609565b84845461258b565b825550505050565b600090565b612645612638565b612650818484612613565b505050565b5b818110156126745761266960008261263d565b600181019050612656565b5050565b601f8211156126b95761268a81612559565b6126938461256e565b810160208510156126a2578190505b6126b66126ae8561256e565b830182612655565b50505b505050565b600082821c905092915050565b60006126dc600019846008026126be565b1980831691505092915050565b60006126f583836126cb565b9150826002028217905092915050565b61270e82611e9b565b67ffffffffffffffff811115612727576127266119f6565b5b61273182546122c8565b61273c828285612678565b600060209050601f83116001811461276f576000841561275d578287015190505b61276785826126e9565b8655506127cf565b601f19841661277d86612559565b60005b828110156127a557848901518255600182019150602085019450602081019050612780565b868310156127c257848901516127be601f8916826126cb565b8355505b6001600288020188555050505b505050505050565b7f696e76616c6964206164647265737320666f72207468652063757272656e742060008201527f6f776e6572000000000000000000000000000000000000000000000000000000602082015250565b60006128336025836118ca565b915061283e826127d7565b604082019050919050565b6000602082019050818103600083015261286281612826565b905091905056fe636f6e7472616374206f776e65727368697020636c61696d6564207375636365737366756c6c79a2646970667358221220e1ae8b828f54fbde628dc6cc8138662ef22f8bce29774c241d5635a092f3640464736f6c63430008140033",
  "linkReferences": {},
  "deployedLinkReferences": {}
}