{
  "_format": "hh-sol-artifact-1",
  "contractName": "Users",
  "sourceName": "Contracts/UsersContract.sol",
  "abi": [
    {
      "inputs": [],
      "name": "_owner",
      "outputs": [
        {
          "internalType": "address",
          "name": "",
          "type": "address"
        }
      ],
      "stateMutability": "view",
      "type": "function"
    },
    {
      "inputs": [
        {
          "internalType": "address",
          "name": "new_owner",
          "type": "address"
        },
        {
          "internalType": "address",
          "name": "old_owner",
          "type": "address"
        }
      ],
      "name": "claimOwnership",
      "outputs": [
        {
          "internalType": "string",
          "name": "",
          "type": "string"
        }
      ],
      "stateMutability": "nonpayable",
      "type": "function"
    },
    {
      "inputs": [
        {
          "internalType": "string",
          "name": "_first_name",
          "type": "string"
        },
        {
          "internalType": "string",
          "name": "_last_name",
          "type": "string"
        },
        {
          "internalType": "string",
          "name": "_username",
          "type": "string"
        },
        {
          "internalType": "address",
          "name": "_wallet_address",
          "type": "address"
        },
        {
          "internalType": "enum Users.group",
          "name": "userType",
          "type": "uint8"
        },
        {
          "internalType": "string[12]",
          "name": "_secretPhrase",
          "type": "string[12]"
        },
        {
          "internalType": "string",
          "name": "_email_address",
          "type": "string"
        }
      ],
      "name": "createUser",
      "outputs": [
        {
          "components": [
            {
              "internalType": "string",
              "name": "first_name",
              "type": "string"
            },
            {
              "internalType": "string",
              "name": "last_name",
              "type": "string"
            },
            {
              "internalType": "string",
              "name": "username",
              "type": "string"
            },
            {
              "internalType": "string",
              "name": "email_address",
              "type": "string"
            },
            {
              "internalType": "address",
              "name": "walletAddress",
              "type": "address"
            },
            {
              "internalType": "enum Users.group",
              "name": "userGroup",
              "type": "uint8"
            },
            {
              "components": [
                {
                  "internalType": "string",
                  "name": "Title",
                  "type": "string"
                }
              ],
              "internalType": "struct Users.Collections",
              "name": "NFT_Collections",
              "type": "tuple"
            },
            {
              "components": [
                {
                  "internalType": "string[12]",
                  "name": "words",
                  "type": "string[12]"
                }
              ],
              "internalType": "struct Users.Phrase",
              "name": "secret_phrase",
              "type": "tuple"
            }
          ],
          "internalType": "struct Users.User",
          "name": "",
          "type": "tuple"
        }
      ],
      "stateMutability": "nonpayable",
      "type": "function"
    },
    {
      "inputs": [
        {
          "internalType": "uint256",
          "name": "index",
          "type": "uint256"
        }
      ],
      "name": "deleteUser",
      "outputs": [
        {
          "internalType": "string",
          "name": "",
          "type": "string"
        }
      ],
      "stateMutability": "nonpayable",
      "type": "function"
    },
    {
      "inputs": [],
      "name": "getTotalUser",
      "outputs": [
        {
          "internalType": "uint256",
          "name": "",
          "type": "uint256"
        }
      ],
      "stateMutability": "view",
      "type": "function"
    },
    {
      "inputs": [
        {
          "internalType": "uint256",
          "name": "index",
          "type": "uint256"
        }
      ],
      "name": "getUser",
      "outputs": [
        {
          "components": [
            {
              "internalType": "string",
              "name": "first_name",
              "type": "string"
            },
            {
              "internalType": "string",
              "name": "last_name",
              "type": "string"
            },
            {
              "internalType": "string",
              "name": "username",
              "type": "string"
            },
            {
              "internalType": "string",
              "name": "email_address",
              "type": "string"
            },
            {
              "internalType": "address",
              "name": "walletAddress",
              "type": "address"
            },
            {
              "internalType": "enum Users.group",
              "name": "userGroup",
              "type": "uint8"
            },
            {
              "components": [
                {
                  "internalType": "string",
                  "name": "Title",
                  "type": "string"
                }
              ],
              "internalType": "struct Users.Collections",
              "name": "NFT_Collections",
              "type": "tuple"
            },
            {
              "components": [
                {
                  "internalType": "string[12]",
                  "name": "words",
                  "type": "string[12]"
                }
              ],
              "internalType": "struct Users.Phrase",
              "name": "secret_phrase",
              "type": "tuple"
            }
          ],
          "internalType": "struct Users.User",
          "name": "",
          "type": "tuple"
        }
      ],
      "stateMutability": "view",
      "type": "function"
    }
  ],
  "bytecode": "0x608060405234801561001057600080fd5b506122a5806100206000396000f3fe608060405234801561001057600080fd5b50600436106100625760003560e01c806338f1484514610067578063398579c414610097578063a9c63aa0146100c7578063b0467deb146100e5578063b2bdfa7b14610115578063fd837d9b14610133575b600080fd5b610081600480360381019061007c91906113e0565b610163565b60405161008e919061149d565b60405180910390f35b6100b160048036038101906100ac91906115c9565b6106e9565b6040516100be91906119b6565b60405180910390f35b6100cf610bab565b6040516100dc91906119e7565b60405180910390f35b6100ff60048036038101906100fa91906113e0565b610bb8565b60405161010c91906119b6565b60405180910390f35b61011d611096565b60405161012a9190611a11565b60405180910390f35b61014d60048036038101906101489190611a2c565b6110ba565b60405161015a919061149d565b60405180910390f35b606060018054905082106101ac576040517f08c379a00000000000000000000000000000000000000000000000000000000081526004016101a390611ab8565b60405180910390fd5b6000600183815481106101c2576101c1611ad8565b5b906000526020600020906012020160020180546101de90611b36565b80601f016020809104026020016040519081016040528092919081815260200182805461020a90611b36565b80156102575780601f1061022c57610100808354040283529160200191610257565b820191906000526020600020905b81548152906001019060200180831161023a57829003601f168201915b50505050509050600180805490500361034357600180548061027c5761027b611b67565b5b6001900381819060005260206000209060120201600080820160006102a191906111ab565b6001820160006102b191906111ab565b6002820160006102c191906111ab565b6003820160006102d191906111ab565b6004820160006101000a81549073ffffffffffffffffffffffffffffffffffffffff02191690556004820160146101000a81549060ff0219169055600582016000808201600061032191906111ab565b5050600682016000808201600061033891906111eb565b5050505090556106e0565b6001808054905011156106df57600083905083600180805490506103679190611bc5565b0361044557600180548061037e5761037d611b67565b5b6001900381819060005260206000209060120201600080820160006103a391906111ab565b6001820160006103b391906111ab565b6002820160006103c391906111ab565b6003820160006103d391906111ab565b6004820160006101000a81549073ffffffffffffffffffffffffffffffffffffffff02191690556004820160146101000a81549060ff0219169055600582016000808201600061042391906111ab565b5050600682016000808201600061043a91906111eb565b5050505090556106dd565b5b60018054905081116106085780600180805490506104649190611bc5565b031561060857600180826104789190611bf9565b8154811061048957610488611ad8565b5b9060005260206000209060120201600182815481106104ab576104aa611ad8565b5b9060005260206000209060120201600082018160000190816104cd9190611e1e565b50600182018160010190816104e29190611e1e565b50600282018160020190816104f79190611e1e565b506003820181600301908161050c9190611e1e565b506004820160009054906101000a900473ffffffffffffffffffffffffffffffffffffffff168160040160006101000a81548173ffffffffffffffffffffffffffffffffffffffff021916908373ffffffffffffffffffffffffffffffffffffffff1602179055506004820160149054906101000a900460ff168160040160146101000a81548160ff021916908360018111156105ac576105ab611762565b5b02179055506005820181600501600082018160000190816105cd9190611e1e565b5050506006820181600601600082018160000190600c6105ee9291906111fe565b5050509050506001816106019190611bf9565b9050610446565b600180548061061a57610619611b67565b5b60019003818190600052602060002090601202016000808201600061063f91906111ab565b60018201600061064f91906111ab565b60028201600061065f91906111ab565b60038201600061066f91906111ab565b6004820160006101000a81549073ffffffffffffffffffffffffffffffffffffffff02191690556004820160146101000a81549060ff021916905560058201600080820160006106bf91906111ab565b505060068201600080820160006106d691906111eb565b5050505090555b505b5b80915050919050565b6106f1611246565b60005b60018054905081146107c6578673ffffffffffffffffffffffffffffffffffffffff166001828154811061072b5761072a611ad8565b5b906000526020600020906012020160040160009054906101000a900473ffffffffffffffffffffffffffffffffffffffff1673ffffffffffffffffffffffffffffffffffffffff16036107b3576040517f08c379a00000000000000000000000000000000000000000000000000000000081526004016107aa90611f78565b60405180910390fd5b80806107be90611f98565b9150506106f4565b6107ce611246565b8d8d8080601f016020809104026020016040519081016040528093929190818152602001838380828437600081840152601f19601f8201169050808301925050505050505081600001819052508b8b8080601f016020809104026020016040519081016040528093929190818152602001838380828437600081840152601f19601f82011690508083019250505050505050816020018190525087816080019073ffffffffffffffffffffffffffffffffffffffff16908173ffffffffffffffffffffffffffffffffffffffff168152505084848080601f016020809104026020016040519081016040528093929190818152602001838380828437600081840152601f19601f82011690508083019250505050505050816060018190525089898080601f016020809104026020016040519081016040528093929190818152602001838380828437600081840152601f19601f820116905080830192505050505050508160400181905250868160a00190600181111561095257610951611762565b5b9081600181111561096657610965611762565b5b81525050600c80146109ad576040517f08c379a00000000000000000000000000000000000000000000000000000000081526004016109a490612052565b60405180910390fd5b60005b600c811015610a55578681600c81106109cc576109cb611ad8565b5b6020028101906109dc9190612081565b8080601f016020809104026020016040519081016040528093929190818152602001838380828437600081840152601f19601f820116905080830192505050505050508260e001516000015182600c8110610a3a57610a39611ad8565b5b60200201819052508080610a4d90611f98565b9150506109b0565b5060018190806001815401808255809150506001900390600052602060002090601202016000909190919091506000820151816000019081610a9791906120e4565b506020820151816001019081610aad91906120e4565b506040820151816002019081610ac391906120e4565b506060820151816003019081610ad991906120e4565b5060808201518160040160006101000a81548173ffffffffffffffffffffffffffffffffffffffff021916908373ffffffffffffffffffffffffffffffffffffffff16021790555060a08201518160040160146101000a81548160ff02191690836001811115610b4c57610b4b611762565b5b021790555060c0820151816005016000820151816000019081610b6f91906120e4565b50505060e08201518160060160008201518160000190600c610b929291906112bf565b505050505080925050509b9a5050505050505050505050565b6000600180549050905090565b610bc0611246565b6001805490508210610c07576040517f08c379a0000000000000000000000000000000000000000000000000000000008152600401610bfe90611ab8565b60405180910390fd5b60018281548110610c1b57610c1a611ad8565b5b906000526020600020906012020160405180610100016040529081600082018054610c4590611b36565b80601f0160208091040260200160405190810160405280929190818152602001828054610c7190611b36565b8015610cbe5780601f10610c9357610100808354040283529160200191610cbe565b820191906000526020600020905b815481529060010190602001808311610ca157829003601f168201915b50505050508152602001600182018054610cd790611b36565b80601f0160208091040260200160405190810160405280929190818152602001828054610d0390611b36565b8015610d505780601f10610d2557610100808354040283529160200191610d50565b820191906000526020600020905b815481529060010190602001808311610d3357829003601f168201915b50505050508152602001600282018054610d6990611b36565b80601f0160208091040260200160405190810160405280929190818152602001828054610d9590611b36565b8015610de25780601f10610db757610100808354040283529160200191610de2565b820191906000526020600020905b815481529060010190602001808311610dc557829003601f168201915b50505050508152602001600382018054610dfb90611b36565b80601f0160208091040260200160405190810160405280929190818152602001828054610e2790611b36565b8015610e745780601f10610e4957610100808354040283529160200191610e74565b820191906000526020600020905b815481529060010190602001808311610e5757829003601f168201915b505050505081526020016004820160009054906101000a900473ffffffffffffffffffffffffffffffffffffffff1673ffffffffffffffffffffffffffffffffffffffff1673ffffffffffffffffffffffffffffffffffffffff1681526020016004820160149054906101000a900460ff166001811115610ef857610ef7611762565b5b6001811115610f0a57610f09611762565b5b815260200160058201604051806020016040529081600082018054610f2e90611b36565b80601f0160208091040260200160405190810160405280929190818152602001828054610f5a90611b36565b8015610fa75780601f10610f7c57610100808354040283529160200191610fa7565b820191906000526020600020905b815481529060010190602001808311610f8a57829003601f168201915b50505050508152505081526020016006820160405180602001604052908160008201600c80602002604051908101604052809291906000905b82821015611083578382018054610ff690611b36565b80601f016020809104026020016040519081016040528092919081815260200182805461102290611b36565b801561106f5780601f106110445761010080835404028352916020019161106f565b820191906000526020600020905b81548152906001019060200180831161105257829003601f168201915b505050505081526020019060010190610fe0565b5050505081525050815250509050919050565b60008054906101000a900473ffffffffffffffffffffffffffffffffffffffff1681565b60608173ffffffffffffffffffffffffffffffffffffffff1660008054906101000a900473ffffffffffffffffffffffffffffffffffffffff1673ffffffffffffffffffffffffffffffffffffffff161461114a576040517f08c379a000000000000000000000000000000000000000000000000000000000815260040161114190612228565b60405180910390fd5b826000806101000a81548173ffffffffffffffffffffffffffffffffffffffff021916908373ffffffffffffffffffffffffffffffffffffffff16021790555060405180606001604052806027815260200161224960279139905092915050565b5080546111b790611b36565b6000825580601f106111c957506111e8565b601f0160209004906000526020600020908101906111e7919061130b565b5b50565b5080600c01906111fb9190611328565b50565b82600c8101928215611235579182015b8281111561123457828290816112249190611e1e565b509160010191906001019061120e565b5b5090506112429190611328565b5090565b60405180610100016040528060608152602001606081526020016060815260200160608152602001600073ffffffffffffffffffffffffffffffffffffffff1681526020016000600181111561129f5761129e611762565b5b81526020016112ac61134c565b81526020016112b961135f565b81525090565b82600c81019282156112fa579160200282015b828111156112f95782518290816112e991906120e4565b50916020019190600101906112d2565b5b5090506113079190611328565b5090565b5b8082111561132457600081600090555060010161130c565b5090565b5b80821115611348576000818161133f91906111ab565b50600101611329565b5090565b6040518060200160405280606081525090565b6040518060200160405280611372611378565b81525090565b604051806101800160405280600c905b60608152602001906001900390816113885790505090565b600080fd5b600080fd5b6000819050919050565b6113bd816113aa565b81146113c857600080fd5b50565b6000813590506113da816113b4565b92915050565b6000602082840312156113f6576113f56113a0565b5b6000611404848285016113cb565b91505092915050565b600081519050919050565b600082825260208201905092915050565b60005b8381101561144757808201518184015260208101905061142c565b60008484015250505050565b6000601f19601f8301169050919050565b600061146f8261140d565b6114798185611418565b9350611489818560208601611429565b61149281611453565b840191505092915050565b600060208201905081810360008301526114b78184611464565b905092915050565b600080fd5b600080fd5b600080fd5b60008083601f8401126114e4576114e36114bf565b5b8235905067ffffffffffffffff811115611501576115006114c4565b5b60208301915083600182028301111561151d5761151c6114c9565b5b9250929050565b600073ffffffffffffffffffffffffffffffffffffffff82169050919050565b600061154f82611524565b9050919050565b61155f81611544565b811461156a57600080fd5b50565b60008135905061157c81611556565b92915050565b6002811061158f57600080fd5b50565b6000813590506115a181611582565b92915050565b6000819050826020600c02820111156115c3576115c26114c9565b5b92915050565b600080600080600080600080600080600060e08c8e0312156115ee576115ed6113a0565b5b60008c013567ffffffffffffffff81111561160c5761160b6113a5565b5b6116188e828f016114ce565b9b509b505060208c013567ffffffffffffffff81111561163b5761163a6113a5565b5b6116478e828f016114ce565b995099505060408c013567ffffffffffffffff81111561166a576116696113a5565b5b6116768e828f016114ce565b975097505060606116898e828f0161156d565b955050608061169a8e828f01611592565b94505060a08c013567ffffffffffffffff8111156116bb576116ba6113a5565b5b6116c78e828f016115a7565b93505060c08c013567ffffffffffffffff8111156116e8576116e76113a5565b5b6116f48e828f016114ce565b92509250509295989b509295989b9093969950565b600082825260208201905092915050565b60006117258261140d565b61172f8185611709565b935061173f818560208601611429565b61174881611453565b840191505092915050565b61175c81611544565b82525050565b7f4e487b7100000000000000000000000000000000000000000000000000000000600052602160045260246000fd5b600281106117a2576117a1611762565b5b50565b60008190506117b382611791565b919050565b60006117c3826117a5565b9050919050565b6117d3816117b8565b82525050565b600060208301600083015184820360008601526117f6828261171a565b9150508091505092915050565b6000600c9050919050565b600081905092915050565b6000819050919050565b600061182f838361171a565b905092915050565b6000602082019050919050565b600061184f82611803565b611859818561180e565b93508360208202850161186b85611819565b8060005b858110156118a757848403895281516118888582611823565b945061189383611837565b925060208a0199505060018101905061186f565b50829750879550505050505092915050565b600060208301600083015184820360008601526118d68282611844565b9150508091505092915050565b6000610100830160008301518482036000860152611901828261171a565b9150506020830151848203602086015261191b828261171a565b91505060408301518482036040860152611935828261171a565b9150506060830151848203606086015261194f828261171a565b91505060808301516119646080860182611753565b5060a083015161197760a08601826117ca565b5060c083015184820360c086015261198f82826117d9565b91505060e083015184820360e08601526119a982826118b9565b9150508091505092915050565b600060208201905081810360008301526119d081846118e3565b905092915050565b6119e1816113aa565b82525050565b60006020820190506119fc60008301846119d8565b92915050565b611a0b81611544565b82525050565b6000602082019050611a266000830184611a02565b92915050565b60008060408385031215611a4357611a426113a0565b5b6000611a518582860161156d565b9250506020611a628582860161156d565b9150509250929050565b7f54686973205573657220646f65736e2774206578697374000000000000000000600082015250565b6000611aa2601783611418565b9150611aad82611a6c565b602082019050919050565b60006020820190508181036000830152611ad181611a95565b9050919050565b7f4e487b7100000000000000000000000000000000000000000000000000000000600052603260045260246000fd5b7f4e487b7100000000000000000000000000000000000000000000000000000000600052602260045260246000fd5b60006002820490506001821680611b4e57607f821691505b602082108103611b6157611b60611b07565b5b50919050565b7f4e487b7100000000000000000000000000000000000000000000000000000000600052603160045260246000fd5b7f4e487b7100000000000000000000000000000000000000000000000000000000600052601160045260246000fd5b6000611bd0826113aa565b9150611bdb836113aa565b9250828203905081811115611bf357611bf2611b96565b5b92915050565b6000611c04826113aa565b9150611c0f836113aa565b9250828201905080821115611c2757611c26611b96565b5b92915050565b600081549050611c3c81611b36565b9050919050565b7f4e487b7100000000000000000000000000000000000000000000000000000000600052604160045260246000fd5b60008190508160005260206000209050919050565b60006020601f8301049050919050565b600082821b905092915050565b600060088302611cd47fffffffffffffffffffffffffffffffffffffffffffffffffffffffffffffffff82611c97565b611cde8683611c97565b95508019841693508086168417925050509392505050565b6000819050919050565b6000611d1b611d16611d11846113aa565b611cf6565b6113aa565b9050919050565b6000819050919050565b611d3583611d00565b611d49611d4182611d22565b848454611ca4565b825550505050565b600090565b611d5e611d51565b611d69818484611d2c565b505050565b5b81811015611d8d57611d82600082611d56565b600181019050611d6f565b5050565b601f821115611dd257611da381611c72565b611dac84611c87565b81016020851015611dbb578190505b611dcf611dc785611c87565b830182611d6e565b50505b505050565b600082821c905092915050565b6000611df560001984600802611dd7565b1980831691505092915050565b6000611e0e8383611de4565b9150826002028217905092915050565b818103611e2c575050611f04565b611e3582611c2d565b67ffffffffffffffff811115611e4e57611e4d611c43565b5b611e588254611b36565b611e63828285611d91565b6000601f831160018114611e925760008415611e80578287015490505b611e8a8582611e02565b865550611efd565b601f198416611ea087611c72565b9650611eab86611c72565b60005b82811015611ed357848901548255600182019150600185019450602081019050611eae565b86831015611ef05784890154611eec601f891682611de4565b8355505b6001600288020188555050505b5050505050505b565b7f416e206163636f756e7420616c72656164792068617320746869732077616c6c60008201527f6574206164647265737300000000000000000000000000000000000000000000602082015250565b6000611f62602a83611418565b9150611f6d82611f06565b604082019050919050565b60006020820190508181036000830152611f9181611f55565b9050919050565b6000611fa3826113aa565b91507fffffffffffffffffffffffffffffffffffffffffffffffffffffffffffffffff8203611fd557611fd4611b96565b5b600182019050919050565b7f4e756d626572206f6620776f72647320696e636f6d706c657465206f7220657860008201527f6365656465640000000000000000000000000000000000000000000000000000602082015250565b600061203c602683611418565b915061204782611fe0565b604082019050919050565b6000602082019050818103600083015261206b8161202f565b9050919050565b600080fd5b600080fd5b600080fd5b6000808335600160200384360303811261209e5761209d612072565b5b80840192508235915067ffffffffffffffff8211156120c0576120bf612077565b5b6020830192506001820236038313156120dc576120db61207c565b5b509250929050565b6120ed8261140d565b67ffffffffffffffff81111561210657612105611c43565b5b6121108254611b36565b61211b828285611d91565b600060209050601f83116001811461214e576000841561213c578287015190505b6121468582611e02565b8655506121ae565b601f19841661215c86611c72565b60005b828110156121845784890151825560018201915060208501945060208101905061215f565b868310156121a1578489015161219d601f891682611de4565b8355505b6001600288020188555050505b505050505050565b7f696e76616c6964206164647265737320666f72207468652063757272656e742060008201527f6f776e6572000000000000000000000000000000000000000000000000000000602082015250565b6000612212602583611418565b915061221d826121b6565b604082019050919050565b6000602082019050818103600083015261224181612205565b905091905056fe636f6e7472616374206f776e65727368697020636c61696d6564207375636365737366756c6c79a26469706673582212209769df81659d79aba371b7a4dfee212d8b8907c9aa330d02cbc92ccef4f9fadd64736f6c63430008140033",
  "linkReferences": {},
  "deployedLinkReferences": {}
}