{
  "_format": "hh-sol-artifact-1",
  "contractName": "Users",
  "sourceName": "Contracts/UsersContract.sol",
  "abi": [
    {
      "inputs": [
        {
          "internalType": "address",
          "name": "_userAddress",
          "type": "address"
        },
        {
          "internalType": "string[12]",
          "name": "_secretPhrase",
          "type": "string[12]"
        }
      ],
      "name": "AuthenticateUser",
      "outputs": [
        {
          "internalType": "bool",
          "name": "",
          "type": "bool"
        }
      ],
      "stateMutability": "view",
      "type": "function"
    },
    {
      "inputs": [
        {
          "internalType": "address",
          "name": "_userAddress",
          "type": "address"
        }
      ],
      "name": "AuthorizeUser",
      "outputs": [
        {
          "internalType": "bool",
          "name": "",
          "type": "bool"
        }
      ],
      "stateMutability": "view",
      "type": "function"
    },
    {
      "inputs": [],
      "name": "_owner",
      "outputs": [
        {
          "internalType": "address",
          "name": "",
          "type": "address"
        }
      ],
      "stateMutability": "view",
      "type": "function"
    },
    {
      "inputs": [
        {
          "internalType": "address",
          "name": "new_owner",
          "type": "address"
        },
        {
          "internalType": "address",
          "name": "old_owner",
          "type": "address"
        }
      ],
      "name": "claimOwnership",
      "outputs": [
        {
          "internalType": "string",
          "name": "",
          "type": "string"
        }
      ],
      "stateMutability": "nonpayable",
      "type": "function"
    },
    {
      "inputs": [
        {
          "internalType": "string",
          "name": "_first_name",
          "type": "string"
        },
        {
          "internalType": "string",
          "name": "_last_name",
          "type": "string"
        },
        {
          "internalType": "string",
          "name": "_username",
          "type": "string"
        },
        {
          "internalType": "address",
          "name": "_wallet_address",
          "type": "address"
        },
        {
          "internalType": "enum Users.group",
          "name": "userType",
          "type": "uint8"
        },
        {
          "internalType": "string[12]",
          "name": "_secretPhrase",
          "type": "string[12]"
        },
        {
          "internalType": "string",
          "name": "_email_address",
          "type": "string"
        }
      ],
      "name": "createUser",
      "outputs": [
        {
          "components": [
            {
              "internalType": "string",
              "name": "first_name",
              "type": "string"
            },
            {
              "internalType": "string",
              "name": "last_name",
              "type": "string"
            },
            {
              "internalType": "string",
              "name": "username",
              "type": "string"
            },
            {
              "internalType": "string",
              "name": "email_address",
              "type": "string"
            },
            {
              "internalType": "address",
              "name": "walletAddress",
              "type": "address"
            },
            {
              "internalType": "enum Users.group",
              "name": "userGroup",
              "type": "uint8"
            },
            {
              "components": [
                {
                  "internalType": "string",
                  "name": "Title",
                  "type": "string"
                }
              ],
              "internalType": "struct Users.Collections",
              "name": "NFT_Collections",
              "type": "tuple"
            },
            {
              "components": [
                {
                  "internalType": "string[12]",
                  "name": "words",
                  "type": "string[12]"
                }
              ],
              "internalType": "struct Users.Phrase",
              "name": "secret_phrase",
              "type": "tuple"
            }
          ],
          "internalType": "struct Users.User",
          "name": "",
          "type": "tuple"
        }
      ],
      "stateMutability": "nonpayable",
      "type": "function"
    },
    {
      "inputs": [],
      "name": "getTotalUser",
      "outputs": [
        {
          "internalType": "uint256",
          "name": "",
          "type": "uint256"
        }
      ],
      "stateMutability": "view",
      "type": "function"
    },
    {
      "inputs": [
        {
          "internalType": "uint256",
          "name": "index",
          "type": "uint256"
        }
      ],
      "name": "getUser",
      "outputs": [
        {
          "components": [
            {
              "internalType": "string",
              "name": "first_name",
              "type": "string"
            },
            {
              "internalType": "string",
              "name": "last_name",
              "type": "string"
            },
            {
              "internalType": "string",
              "name": "username",
              "type": "string"
            },
            {
              "internalType": "string",
              "name": "email_address",
              "type": "string"
            },
            {
              "internalType": "address",
              "name": "walletAddress",
              "type": "address"
            },
            {
              "internalType": "enum Users.group",
              "name": "userGroup",
              "type": "uint8"
            },
            {
              "components": [
                {
                  "internalType": "string",
                  "name": "Title",
                  "type": "string"
                }
              ],
              "internalType": "struct Users.Collections",
              "name": "NFT_Collections",
              "type": "tuple"
            },
            {
              "components": [
                {
                  "internalType": "string[12]",
                  "name": "words",
                  "type": "string[12]"
                }
              ],
              "internalType": "struct Users.Phrase",
              "name": "secret_phrase",
              "type": "tuple"
            }
          ],
          "internalType": "struct Users.User",
          "name": "",
          "type": "tuple"
        }
      ],
      "stateMutability": "view",
      "type": "function"
    }
  ],
  "bytecode": "0x608060405234801561001057600080fd5b50612a31806100206000396000f3fe608060405234801561001057600080fd5b506004361061007d5760003560e01c8063a9c63aa01161005b578063a9c63aa014610112578063b0467deb14610130578063b2bdfa7b14610160578063fd837d9b1461017e5761007d565b80632be2ab7f146100825780632cf58ac2146100b2578063398579c4146100e2575b600080fd5b61009c60048036038101906100979190611c61565b6101ae565b6040516100a99190611cd8565b60405180910390f35b6100cc60048036038101906100c79190611cf3565b610800565b6040516100d99190611cd8565b60405180910390f35b6100fc60048036038101906100f79190611dc2565b610d79565b60405161010991906121e4565b60405180910390f35b61011a61123b565b604051610127919061221f565b60405180910390f35b61014a60048036038101906101459190612266565b611248565b60405161015791906121e4565b60405180910390f35b610168611726565b60405161017591906122a2565b60405180910390f35b610198600480360381019061019391906122bd565b61174a565b6040516101a59190612347565b60405180910390f35b60006101b861183b565b6101c06118b4565b60005b60018054905081116106e9578573ffffffffffffffffffffffffffffffffffffffff16600182815481106101fa576101f9612369565b5b906000526020600020906012020160040160009054906101000a900473ffffffffffffffffffffffffffffffffffffffff1673ffffffffffffffffffffffffffffffffffffffff16036106d6576001818154811061025b5761025a612369565b5b906000526020600020906012020160405180610100016040529081600082018054610285906123c7565b80601f01602080910402602001604051908101604052809291908181526020018280546102b1906123c7565b80156102fe5780601f106102d3576101008083540402835291602001916102fe565b820191906000526020600020905b8154815290600101906020018083116102e157829003601f168201915b50505050508152602001600182018054610317906123c7565b80601f0160208091040260200160405190810160405280929190818152602001828054610343906123c7565b80156103905780601f1061036557610100808354040283529160200191610390565b820191906000526020600020905b81548152906001019060200180831161037357829003601f168201915b505050505081526020016002820180546103a9906123c7565b80601f01602080910402602001604051908101604052809291908181526020018280546103d5906123c7565b80156104225780601f106103f757610100808354040283529160200191610422565b820191906000526020600020905b81548152906001019060200180831161040557829003601f168201915b5050505050815260200160038201805461043b906123c7565b80601f0160208091040260200160405190810160405280929190818152602001828054610467906123c7565b80156104b45780601f10610489576101008083540402835291602001916104b4565b820191906000526020600020905b81548152906001019060200180831161049757829003601f168201915b505050505081526020016004820160009054906101000a900473ffffffffffffffffffffffffffffffffffffffff1673ffffffffffffffffffffffffffffffffffffffff1673ffffffffffffffffffffffffffffffffffffffff1681526020016004820160149054906101000a900460ff16600181111561053857610537611f90565b5b600181111561054a57610549611f90565b5b81526020016005820160405180602001604052908160008201805461056e906123c7565b80601f016020809104026020016040519081016040528092919081815260200182805461059a906123c7565b80156105e75780601f106105bc576101008083540402835291602001916105e7565b820191906000526020600020905b8154815290600101906020018083116105ca57829003601f168201915b50505050508152505081526020016006820160405180602001604052908160008201600c80602002604051908101604052809291906000905b828210156106c3578382018054610636906123c7565b80601f0160208091040260200160405190810160405280929190818152602001828054610662906123c7565b80156106af5780601f10610684576101008083540402835291602001916106af565b820191906000526020600020905b81548152906001019060200180831161069257829003601f168201915b505050505081526020019060010190610620565b50505050815250508152505092506106e9565b80806106e190612427565b9150506101c3565b5060005b600c811015610744578260e001516000015181600c811061071157610710612369565b5b60200201518282600c811061072957610728612369565b5b6020020181905250808061073c90612427565b9150506106ed565b5060005b600c8110156107f2578181600c811061076457610763612369565b5b602002015160405160200161077991906124ab565b604051602081830303815290604052805190602001208582600c81106107a2576107a1612369565b5b60200201516040516020016107b791906124ab565b6040516020818303038152906040528051906020012003156107df57600093505050506107fa565b80806107ea90612427565b915050610748565b506001925050505b92915050565b600061080a61183b565b60005b6001805490508111610d33578373ffffffffffffffffffffffffffffffffffffffff166001828154811061084457610843612369565b5b906000526020600020906012020160040160009054906101000a900473ffffffffffffffffffffffffffffffffffffffff1673ffffffffffffffffffffffffffffffffffffffff1603610d2057600181815481106108a5576108a4612369565b5b9060005260206000209060120201604051806101000160405290816000820180546108cf906123c7565b80601f01602080910402602001604051908101604052809291908181526020018280546108fb906123c7565b80156109485780601f1061091d57610100808354040283529160200191610948565b820191906000526020600020905b81548152906001019060200180831161092b57829003601f168201915b50505050508152602001600182018054610961906123c7565b80601f016020809104026020016040519081016040528092919081815260200182805461098d906123c7565b80156109da5780601f106109af576101008083540402835291602001916109da565b820191906000526020600020905b8154815290600101906020018083116109bd57829003601f168201915b505050505081526020016002820180546109f3906123c7565b80601f0160208091040260200160405190810160405280929190818152602001828054610a1f906123c7565b8015610a6c5780601f10610a4157610100808354040283529160200191610a6c565b820191906000526020600020905b815481529060010190602001808311610a4f57829003601f168201915b50505050508152602001600382018054610a85906123c7565b80601f0160208091040260200160405190810160405280929190818152602001828054610ab1906123c7565b8015610afe5780601f10610ad357610100808354040283529160200191610afe565b820191906000526020600020905b815481529060010190602001808311610ae157829003601f168201915b505050505081526020016004820160009054906101000a900473ffffffffffffffffffffffffffffffffffffffff1673ffffffffffffffffffffffffffffffffffffffff1673ffffffffffffffffffffffffffffffffffffffff1681526020016004820160149054906101000a900460ff166001811115610b8257610b81611f90565b5b6001811115610b9457610b93611f90565b5b815260200160058201604051806020016040529081600082018054610bb8906123c7565b80601f0160208091040260200160405190810160405280929190818152602001828054610be4906123c7565b8015610c315780601f10610c0657610100808354040283529160200191610c31565b820191906000526020600020905b815481529060010190602001808311610c1457829003601f168201915b50505050508152505081526020016006820160405180602001604052908160008201600c80602002604051908101604052809291906000905b82821015610d0d578382018054610c80906123c7565b80601f0160208091040260200160405190810160405280929190818152602001828054610cac906123c7565b8015610cf95780601f10610cce57610100808354040283529160200191610cf9565b820191906000526020600020905b815481529060010190602001808311610cdc57829003601f168201915b505050505081526020019060010190610c6a565b5050505081525050815250509150610d33565b8080610d2b90612427565b91505061080d565b5060006001811115610d4857610d47611f90565b5b8160a001516001811115610d5f57610d5e611f90565b5b03610d6e576001915050610d74565b60009150505b919050565b610d8161183b565b60005b6001805490508114610e56578673ffffffffffffffffffffffffffffffffffffffff1660018281548110610dbb57610dba612369565b5b906000526020600020906012020160040160009054906101000a900473ffffffffffffffffffffffffffffffffffffffff1673ffffffffffffffffffffffffffffffffffffffff1603610e43576040517f08c379a0000000000000000000000000000000000000000000000000000000008152600401610e3a90612534565b60405180910390fd5b8080610e4e90612427565b915050610d84565b610e5e61183b565b8d8d8080601f016020809104026020016040519081016040528093929190818152602001838380828437600081840152601f19601f8201169050808301925050505050505081600001819052508b8b8080601f016020809104026020016040519081016040528093929190818152602001838380828437600081840152601f19601f82011690508083019250505050505050816020018190525087816080019073ffffffffffffffffffffffffffffffffffffffff16908173ffffffffffffffffffffffffffffffffffffffff168152505084848080601f016020809104026020016040519081016040528093929190818152602001838380828437600081840152601f19601f82011690508083019250505050505050816060018190525089898080601f016020809104026020016040519081016040528093929190818152602001838380828437600081840152601f19601f820116905080830192505050505050508160400181905250868160a001906001811115610fe257610fe1611f90565b5b90816001811115610ff657610ff5611f90565b5b81525050600c801461103d576040517f08c379a0000000000000000000000000000000000000000000000000000000008152600401611034906125c6565b60405180910390fd5b60005b600c8110156110e5578681600c811061105c5761105b612369565b5b60200281019061106c91906125f5565b8080601f016020809104026020016040519081016040528093929190818152602001838380828437600081840152601f19601f820116905080830192505050505050508260e001516000015182600c81106110ca576110c9612369565b5b602002018190525080806110dd90612427565b915050611040565b50600181908060018154018082558091505060019003906000526020600020906012020160009091909190915060008201518160000190816111279190612804565b50602082015181600101908161113d9190612804565b5060408201518160020190816111539190612804565b5060608201518160030190816111699190612804565b5060808201518160040160006101000a81548173ffffffffffffffffffffffffffffffffffffffff021916908373ffffffffffffffffffffffffffffffffffffffff16021790555060a08201518160040160146101000a81548160ff021916908360018111156111dc576111db611f90565b5b021790555060c08201518160050160008201518160000190816111ff9190612804565b50505060e08201518160060160008201518160000190600c6112229291906118dc565b505050505080925050509b9a5050505050505050505050565b6000600180549050905090565b61125061183b565b6001805490508210611297576040517f08c379a000000000000000000000000000000000000000000000000000000000815260040161128e90612922565b60405180910390fd5b600182815481106112ab576112aa612369565b5b9060005260206000209060120201604051806101000160405290816000820180546112d5906123c7565b80601f0160208091040260200160405190810160405280929190818152602001828054611301906123c7565b801561134e5780601f106113235761010080835404028352916020019161134e565b820191906000526020600020905b81548152906001019060200180831161133157829003601f168201915b50505050508152602001600182018054611367906123c7565b80601f0160208091040260200160405190810160405280929190818152602001828054611393906123c7565b80156113e05780601f106113b5576101008083540402835291602001916113e0565b820191906000526020600020905b8154815290600101906020018083116113c357829003601f168201915b505050505081526020016002820180546113f9906123c7565b80601f0160208091040260200160405190810160405280929190818152602001828054611425906123c7565b80156114725780601f1061144757610100808354040283529160200191611472565b820191906000526020600020905b81548152906001019060200180831161145557829003601f168201915b5050505050815260200160038201805461148b906123c7565b80601f01602080910402602001604051908101604052809291908181526020018280546114b7906123c7565b80156115045780601f106114d957610100808354040283529160200191611504565b820191906000526020600020905b8154815290600101906020018083116114e757829003601f168201915b505050505081526020016004820160009054906101000a900473ffffffffffffffffffffffffffffffffffffffff1673ffffffffffffffffffffffffffffffffffffffff1673ffffffffffffffffffffffffffffffffffffffff1681526020016004820160149054906101000a900460ff16600181111561158857611587611f90565b5b600181111561159a57611599611f90565b5b8152602001600582016040518060200160405290816000820180546115be906123c7565b80601f01602080910402602001604051908101604052809291908181526020018280546115ea906123c7565b80156116375780601f1061160c57610100808354040283529160200191611637565b820191906000526020600020905b81548152906001019060200180831161161a57829003601f168201915b50505050508152505081526020016006820160405180602001604052908160008201600c80602002604051908101604052809291906000905b82821015611713578382018054611686906123c7565b80601f01602080910402602001604051908101604052809291908181526020018280546116b2906123c7565b80156116ff5780601f106116d4576101008083540402835291602001916116ff565b820191906000526020600020905b8154815290600101906020018083116116e257829003601f168201915b505050505081526020019060010190611670565b5050505081525050815250509050919050565b60008054906101000a900473ffffffffffffffffffffffffffffffffffffffff1681565b60608173ffffffffffffffffffffffffffffffffffffffff1660008054906101000a900473ffffffffffffffffffffffffffffffffffffffff1673ffffffffffffffffffffffffffffffffffffffff16146117da576040517f08c379a00000000000000000000000000000000000000000000000000000000081526004016117d1906129b4565b60405180910390fd5b826000806101000a81548173ffffffffffffffffffffffffffffffffffffffff021916908373ffffffffffffffffffffffffffffffffffffffff1602179055506040518060600160405280602781526020016129d560279139905092915050565b60405180610100016040528060608152602001606081526020016060815260200160608152602001600073ffffffffffffffffffffffffffffffffffffffff1681526020016000600181111561189457611893611f90565b5b81526020016118a1611928565b81526020016118ae61193b565b81525090565b604051806101800160405280600c905b60608152602001906001900390816118c45790505090565b82600c8101928215611917579160200282015b828111156119165782518290816119069190612804565b50916020019190600101906118ef565b5b5090506119249190611954565b5090565b6040518060200160405280606081525090565b604051806020016040528061194e6118b4565b81525090565b5b80821115611974576000818161196b9190611978565b50600101611955565b5090565b508054611984906123c7565b6000825580601f1061199657506119b5565b601f0160209004906000526020600020908101906119b491906119b8565b5b50565b5b808211156119d15760008160009055506001016119b9565b5090565b6000604051905090565b600080fd5b600080fd5b600073ffffffffffffffffffffffffffffffffffffffff82169050919050565b6000611a14826119e9565b9050919050565b611a2481611a09565b8114611a2f57600080fd5b50565b600081359050611a4181611a1b565b92915050565b600080fd5b6000601f19601f8301169050919050565b7f4e487b7100000000000000000000000000000000000000000000000000000000600052604160045260246000fd5b611a9582611a4c565b810181811067ffffffffffffffff82111715611ab457611ab3611a5d565b5b80604052505050565b6000611ac76119d5565b9050611ad38282611a8c565b919050565b600067ffffffffffffffff821115611af357611af2611a5d565b5b602082029050919050565b600080fd5b600080fd5b600067ffffffffffffffff821115611b2357611b22611a5d565b5b611b2c82611a4c565b9050602081019050919050565b82818337600083830152505050565b6000611b5b611b5684611b08565b611abd565b905082815260208101848484011115611b7757611b76611b03565b5b611b82848285611b39565b509392505050565b600082601f830112611b9f57611b9e611a47565b5b8135611baf848260208601611b48565b91505092915050565b6000611bcb611bc684611ad8565b611abd565b90508060208402830185811115611be557611be4611afe565b5b835b81811015611c2c57803567ffffffffffffffff811115611c0a57611c09611a47565b5b808601611c178982611b8a565b85526020850194505050602081019050611be7565b5050509392505050565b600082601f830112611c4b57611c4a611a47565b5b600c611c58848285611bb8565b91505092915050565b60008060408385031215611c7857611c776119df565b5b6000611c8685828601611a32565b925050602083013567ffffffffffffffff811115611ca757611ca66119e4565b5b611cb385828601611c36565b9150509250929050565b60008115159050919050565b611cd281611cbd565b82525050565b6000602082019050611ced6000830184611cc9565b92915050565b600060208284031215611d0957611d086119df565b5b6000611d1784828501611a32565b91505092915050565b600080fd5b60008083601f840112611d3b57611d3a611a47565b5b8235905067ffffffffffffffff811115611d5857611d57611d20565b5b602083019150836001820283011115611d7457611d73611afe565b5b9250929050565b60028110611d8857600080fd5b50565b600081359050611d9a81611d7b565b92915050565b6000819050826020600c0282011115611dbc57611dbb611afe565b5b92915050565b600080600080600080600080600080600060e08c8e031215611de757611de66119df565b5b60008c013567ffffffffffffffff811115611e0557611e046119e4565b5b611e118e828f01611d25565b9b509b505060208c013567ffffffffffffffff811115611e3457611e336119e4565b5b611e408e828f01611d25565b995099505060408c013567ffffffffffffffff811115611e6357611e626119e4565b5b611e6f8e828f01611d25565b97509750506060611e828e828f01611a32565b9550506080611e938e828f01611d8b565b94505060a08c013567ffffffffffffffff811115611eb457611eb36119e4565b5b611ec08e828f01611da0565b93505060c08c013567ffffffffffffffff811115611ee157611ee06119e4565b5b611eed8e828f01611d25565b92509250509295989b509295989b9093969950565b600081519050919050565b600082825260208201905092915050565b60005b83811015611f3c578082015181840152602081019050611f21565b60008484015250505050565b6000611f5382611f02565b611f5d8185611f0d565b9350611f6d818560208601611f1e565b611f7681611a4c565b840191505092915050565b611f8a81611a09565b82525050565b7f4e487b7100000000000000000000000000000000000000000000000000000000600052602160045260246000fd5b60028110611fd057611fcf611f90565b5b50565b6000819050611fe182611fbf565b919050565b6000611ff182611fd3565b9050919050565b61200181611fe6565b82525050565b600060208301600083015184820360008601526120248282611f48565b9150508091505092915050565b6000600c9050919050565b600081905092915050565b6000819050919050565b600061205d8383611f48565b905092915050565b6000602082019050919050565b600061207d82612031565b612087818561203c565b93508360208202850161209985612047565b8060005b858110156120d557848403895281516120b68582612051565b94506120c183612065565b925060208a0199505060018101905061209d565b50829750879550505050505092915050565b600060208301600083015184820360008601526121048282612072565b9150508091505092915050565b600061010083016000830151848203600086015261212f8282611f48565b915050602083015184820360208601526121498282611f48565b915050604083015184820360408601526121638282611f48565b9150506060830151848203606086015261217d8282611f48565b91505060808301516121926080860182611f81565b5060a08301516121a560a0860182611ff8565b5060c083015184820360c08601526121bd8282612007565b91505060e083015184820360e08601526121d782826120e7565b9150508091505092915050565b600060208201905081810360008301526121fe8184612111565b905092915050565b6000819050919050565b61221981612206565b82525050565b60006020820190506122346000830184612210565b92915050565b61224381612206565b811461224e57600080fd5b50565b6000813590506122608161223a565b92915050565b60006020828403121561227c5761227b6119df565b5b600061228a84828501612251565b91505092915050565b61229c81611a09565b82525050565b60006020820190506122b76000830184612293565b92915050565b600080604083850312156122d4576122d36119df565b5b60006122e285828601611a32565b92505060206122f385828601611a32565b9150509250929050565b600082825260208201905092915050565b600061231982611f02565b61232381856122fd565b9350612333818560208601611f1e565b61233c81611a4c565b840191505092915050565b60006020820190508181036000830152612361818461230e565b905092915050565b7f4e487b7100000000000000000000000000000000000000000000000000000000600052603260045260246000fd5b7f4e487b7100000000000000000000000000000000000000000000000000000000600052602260045260246000fd5b600060028204905060018216806123df57607f821691505b6020821081036123f2576123f1612398565b5b50919050565b7f4e487b7100000000000000000000000000000000000000000000000000000000600052601160045260246000fd5b600061243282612206565b91507fffffffffffffffffffffffffffffffffffffffffffffffffffffffffffffffff8203612464576124636123f8565b5b600182019050919050565b600081905092915050565b600061248582611f02565b61248f818561246f565b935061249f818560208601611f1e565b80840191505092915050565b60006124b7828461247a565b915081905092915050565b7f416e206163636f756e7420616c72656164792068617320746869732077616c6c60008201527f6574206164647265737300000000000000000000000000000000000000000000602082015250565b600061251e602a836122fd565b9150612529826124c2565b604082019050919050565b6000602082019050818103600083015261254d81612511565b9050919050565b7f4e756d626572206f6620776f72647320696e636f6d706c657465206f7220657860008201527f6365656465640000000000000000000000000000000000000000000000000000602082015250565b60006125b06026836122fd565b91506125bb82612554565b604082019050919050565b600060208201905081810360008301526125df816125a3565b9050919050565b600080fd5b600080fd5b600080fd5b60008083356001602003843603038112612612576126116125e6565b5b80840192508235915067ffffffffffffffff821115612634576126336125eb565b5b6020830192506001820236038313156126505761264f6125f0565b5b509250929050565b60008190508160005260206000209050919050565b60006020601f8301049050919050565b600082821b905092915050565b6000600883026126ba7fffffffffffffffffffffffffffffffffffffffffffffffffffffffffffffffff8261267d565b6126c4868361267d565b95508019841693508086168417925050509392505050565b6000819050919050565b60006127016126fc6126f784612206565b6126dc565b612206565b9050919050565b6000819050919050565b61271b836126e6565b61272f61272782612708565b84845461268a565b825550505050565b600090565b612744612737565b61274f818484612712565b505050565b5b818110156127735761276860008261273c565b600181019050612755565b5050565b601f8211156127b85761278981612658565b6127928461266d565b810160208510156127a1578190505b6127b56127ad8561266d565b830182612754565b50505b505050565b600082821c905092915050565b60006127db600019846008026127bd565b1980831691505092915050565b60006127f483836127ca565b9150826002028217905092915050565b61280d82611f02565b67ffffffffffffffff81111561282657612825611a5d565b5b61283082546123c7565b61283b828285612777565b600060209050601f83116001811461286e576000841561285c578287015190505b61286685826127e8565b8655506128ce565b601f19841661287c86612658565b60005b828110156128a45784890151825560018201915060208501945060208101905061287f565b868310156128c157848901516128bd601f8916826127ca565b8355505b6001600288020188555050505b505050505050565b7f54686973205573657220646f65736e2774206578697374000000000000000000600082015250565b600061290c6017836122fd565b9150612917826128d6565b602082019050919050565b6000602082019050818103600083015261293b816128ff565b9050919050565b7f696e76616c6964206164647265737320666f72207468652063757272656e742060008201527f6f776e6572000000000000000000000000000000000000000000000000000000602082015250565b600061299e6025836122fd565b91506129a982612942565b604082019050919050565b600060208201905081810360008301526129cd81612991565b905091905056fe636f6e7472616374206f776e65727368697020636c61696d6564207375636365737366756c6c79a26469706673582212208796128decf27e96178bdd214de715b9a9e3e6241352184cd83d6b78e540736364736f6c63430008140033",
  "linkReferences": {},
  "deployedLinkReferences": {}
}