{
  "_format": "hh-sol-artifact-1",
  "contractName": "CertificateNFT",
  "sourceName": "Contracts/NFT_CertificateContract.sol",
  "abi": [
    {
      "inputs": [
        {
          "internalType": "string",
          "name": "contractname",
          "type": "string"
        },
        {
          "internalType": "string",
          "name": "symbol",
          "type": "string"
        }
      ],
      "stateMutability": "nonpayable",
      "type": "constructor"
    },
    {
      "inputs": [
        {
          "internalType": "address",
          "name": "sender",
          "type": "address"
        },
        {
          "internalType": "uint256",
          "name": "tokenId",
          "type": "uint256"
        },
        {
          "internalType": "address",
          "name": "owner",
          "type": "address"
        }
      ],
      "name": "ERC721IncorrectOwner",
      "type": "error"
    },
    {
      "inputs": [
        {
          "internalType": "address",
          "name": "operator",
          "type": "address"
        },
        {
          "internalType": "uint256",
          "name": "tokenId",
          "type": "uint256"
        }
      ],
      "name": "ERC721InsufficientApproval",
      "type": "error"
    },
    {
      "inputs": [
        {
          "internalType": "address",
          "name": "approver",
          "type": "address"
        }
      ],
      "name": "ERC721InvalidApprover",
      "type": "error"
    },
    {
      "inputs": [
        {
          "internalType": "address",
          "name": "operator",
          "type": "address"
        }
      ],
      "name": "ERC721InvalidOperator",
      "type": "error"
    },
    {
      "inputs": [
        {
          "internalType": "address",
          "name": "owner",
          "type": "address"
        }
      ],
      "name": "ERC721InvalidOwner",
      "type": "error"
    },
    {
      "inputs": [
        {
          "internalType": "address",
          "name": "receiver",
          "type": "address"
        }
      ],
      "name": "ERC721InvalidReceiver",
      "type": "error"
    },
    {
      "inputs": [
        {
          "internalType": "address",
          "name": "sender",
          "type": "address"
        }
      ],
      "name": "ERC721InvalidSender",
      "type": "error"
    },
    {
      "inputs": [
        {
          "internalType": "uint256",
          "name": "tokenId",
          "type": "uint256"
        }
      ],
      "name": "ERC721NonexistentToken",
      "type": "error"
    },
    {
      "anonymous": false,
      "inputs": [
        {
          "indexed": true,
          "internalType": "address",
          "name": "owner",
          "type": "address"
        },
        {
          "indexed": true,
          "internalType": "address",
          "name": "approved",
          "type": "address"
        },
        {
          "indexed": true,
          "internalType": "uint256",
          "name": "tokenId",
          "type": "uint256"
        }
      ],
      "name": "Approval",
      "type": "event"
    },
    {
      "anonymous": false,
      "inputs": [
        {
          "indexed": true,
          "internalType": "address",
          "name": "owner",
          "type": "address"
        },
        {
          "indexed": true,
          "internalType": "address",
          "name": "operator",
          "type": "address"
        },
        {
          "indexed": false,
          "internalType": "bool",
          "name": "approved",
          "type": "bool"
        }
      ],
      "name": "ApprovalForAll",
      "type": "event"
    },
    {
      "anonymous": false,
      "inputs": [
        {
          "indexed": false,
          "internalType": "uint256",
          "name": "_fromTokenId",
          "type": "uint256"
        },
        {
          "indexed": false,
          "internalType": "uint256",
          "name": "_toTokenId",
          "type": "uint256"
        }
      ],
      "name": "BatchMetadataUpdate",
      "type": "event"
    },
    {
      "anonymous": false,
      "inputs": [
        {
          "indexed": false,
          "internalType": "uint256",
          "name": "_tokenId",
          "type": "uint256"
        }
      ],
      "name": "MetadataUpdate",
      "type": "event"
    },
    {
      "anonymous": false,
      "inputs": [
        {
          "indexed": true,
          "internalType": "address",
          "name": "from",
          "type": "address"
        },
        {
          "indexed": true,
          "internalType": "address",
          "name": "to",
          "type": "address"
        },
        {
          "indexed": true,
          "internalType": "uint256",
          "name": "tokenId",
          "type": "uint256"
        }
      ],
      "name": "Transfer",
      "type": "event"
    },
    {
      "inputs": [
        {
          "internalType": "address",
          "name": "_userAddress",
          "type": "address"
        },
        {
          "internalType": "string[12]",
          "name": "_secretPhrase",
          "type": "string[12]"
        }
      ],
      "name": "AuthenticateUser",
      "outputs": [
        {
          "internalType": "bool",
          "name": "",
          "type": "bool"
        }
      ],
      "stateMutability": "view",
      "type": "function"
    },
    {
      "inputs": [
        {
          "internalType": "address",
          "name": "_userAddress",
          "type": "address"
        }
      ],
      "name": "AuthorizeUser",
      "outputs": [
        {
          "internalType": "bool",
          "name": "",
          "type": "bool"
        }
      ],
      "stateMutability": "view",
      "type": "function"
    },
    {
      "inputs": [
        {
          "internalType": "uint256",
          "name": "_tokenId",
          "type": "uint256"
        }
      ],
      "name": "CheckCertificateOwnership",
      "outputs": [],
      "stateMutability": "view",
      "type": "function"
    },
    {
      "inputs": [],
      "name": "GetMintStatus",
      "outputs": [
        {
          "internalType": "string",
          "name": "status",
          "type": "string"
        }
      ],
      "stateMutability": "view",
      "type": "function"
    },
    {
      "inputs": [
        {
          "internalType": "string",
          "name": "_status",
          "type": "string"
        }
      ],
      "name": "UpdateMintStatus",
      "outputs": [],
      "stateMutability": "nonpayable",
      "type": "function"
    },
    {
      "inputs": [],
      "name": "_owner",
      "outputs": [
        {
          "internalType": "address",
          "name": "",
          "type": "address"
        }
      ],
      "stateMutability": "view",
      "type": "function"
    },
    {
      "inputs": [
        {
          "internalType": "address",
          "name": "to",
          "type": "address"
        },
        {
          "internalType": "uint256",
          "name": "tokenId",
          "type": "uint256"
        }
      ],
      "name": "approve",
      "outputs": [],
      "stateMutability": "nonpayable",
      "type": "function"
    },
    {
      "inputs": [
        {
          "internalType": "address",
          "name": "owner",
          "type": "address"
        }
      ],
      "name": "balanceOf",
      "outputs": [
        {
          "internalType": "uint256",
          "name": "",
          "type": "uint256"
        }
      ],
      "stateMutability": "view",
      "type": "function"
    },
    {
      "inputs": [
        {
          "internalType": "address",
          "name": "new_owner",
          "type": "address"
        },
        {
          "internalType": "address",
          "name": "old_owner",
          "type": "address"
        }
      ],
      "name": "claimOwnership",
      "outputs": [
        {
          "internalType": "string",
          "name": "",
          "type": "string"
        }
      ],
      "stateMutability": "nonpayable",
      "type": "function"
    },
    {
      "inputs": [
        {
          "internalType": "string",
          "name": "_first_name",
          "type": "string"
        },
        {
          "internalType": "string",
          "name": "_last_name",
          "type": "string"
        },
        {
          "internalType": "string",
          "name": "_username",
          "type": "string"
        },
        {
          "internalType": "address",
          "name": "_wallet_address",
          "type": "address"
        },
        {
          "internalType": "enum Users.group",
          "name": "userType",
          "type": "uint8"
        },
        {
          "internalType": "string[12]",
          "name": "_secretPhrase",
          "type": "string[12]"
        },
        {
          "internalType": "string",
          "name": "_email_address",
          "type": "string"
        }
      ],
      "name": "createUser",
      "outputs": [
        {
          "components": [
            {
              "internalType": "string",
              "name": "first_name",
              "type": "string"
            },
            {
              "internalType": "string",
              "name": "last_name",
              "type": "string"
            },
            {
              "internalType": "string",
              "name": "username",
              "type": "string"
            },
            {
              "internalType": "string",
              "name": "email_address",
              "type": "string"
            },
            {
              "internalType": "address",
              "name": "walletAddress",
              "type": "address"
            },
            {
              "internalType": "enum Users.group",
              "name": "userGroup",
              "type": "uint8"
            },
            {
              "components": [
                {
                  "internalType": "string",
                  "name": "Title",
                  "type": "string"
                }
              ],
              "internalType": "struct Users.Collections",
              "name": "NFT_Collections",
              "type": "tuple"
            },
            {
              "components": [
                {
                  "internalType": "string[12]",
                  "name": "words",
                  "type": "string[12]"
                }
              ],
              "internalType": "struct Users.Phrase",
              "name": "secret_phrase",
              "type": "tuple"
            }
          ],
          "internalType": "struct Users.User",
          "name": "",
          "type": "tuple"
        }
      ],
      "stateMutability": "nonpayable",
      "type": "function"
    },
    {
      "inputs": [
        {
          "internalType": "uint256",
          "name": "tokenId",
          "type": "uint256"
        }
      ],
      "name": "getApproved",
      "outputs": [
        {
          "internalType": "address",
          "name": "",
          "type": "address"
        }
      ],
      "stateMutability": "view",
      "type": "function"
    },
    {
      "inputs": [],
      "name": "getTotalUser",
      "outputs": [
        {
          "internalType": "uint256",
          "name": "",
          "type": "uint256"
        }
      ],
      "stateMutability": "view",
      "type": "function"
    },
    {
      "inputs": [
        {
          "internalType": "uint256",
          "name": "index",
          "type": "uint256"
        }
      ],
      "name": "getUser",
      "outputs": [
        {
          "components": [
            {
              "internalType": "string",
              "name": "first_name",
              "type": "string"
            },
            {
              "internalType": "string",
              "name": "last_name",
              "type": "string"
            },
            {
              "internalType": "string",
              "name": "username",
              "type": "string"
            },
            {
              "internalType": "string",
              "name": "email_address",
              "type": "string"
            },
            {
              "internalType": "address",
              "name": "walletAddress",
              "type": "address"
            },
            {
              "internalType": "enum Users.group",
              "name": "userGroup",
              "type": "uint8"
            },
            {
              "components": [
                {
                  "internalType": "string",
                  "name": "Title",
                  "type": "string"
                }
              ],
              "internalType": "struct Users.Collections",
              "name": "NFT_Collections",
              "type": "tuple"
            },
            {
              "components": [
                {
                  "internalType": "string[12]",
                  "name": "words",
                  "type": "string[12]"
                }
              ],
              "internalType": "struct Users.Phrase",
              "name": "secret_phrase",
              "type": "tuple"
            }
          ],
          "internalType": "struct Users.User",
          "name": "",
          "type": "tuple"
        }
      ],
      "stateMutability": "view",
      "type": "function"
    },
    {
      "inputs": [
        {
          "internalType": "address",
          "name": "owner",
          "type": "address"
        },
        {
          "internalType": "address",
          "name": "operator",
          "type": "address"
        }
      ],
      "name": "isApprovedForAll",
      "outputs": [
        {
          "internalType": "bool",
          "name": "",
          "type": "bool"
        }
      ],
      "stateMutability": "view",
      "type": "function"
    },
    {
      "inputs": [
        {
          "internalType": "address",
          "name": "_to",
          "type": "address"
        },
        {
          "internalType": "uint256",
          "name": "_tokenId",
          "type": "uint256"
        },
        {
          "internalType": "string",
          "name": "_uri",
          "type": "string"
        },
        {
          "internalType": "string[12]",
          "name": "_secretPhrase",
          "type": "string[12]"
        }
      ],
      "name": "mintCertificate",
      "outputs": [],
      "stateMutability": "nonpayable",
      "type": "function"
    },
    {
      "inputs": [],
      "name": "name",
      "outputs": [
        {
          "internalType": "string",
          "name": "",
          "type": "string"
        }
      ],
      "stateMutability": "view",
      "type": "function"
    },
    {
      "inputs": [
        {
          "internalType": "uint256",
          "name": "tokenId",
          "type": "uint256"
        }
      ],
      "name": "ownerOf",
      "outputs": [
        {
          "internalType": "address",
          "name": "",
          "type": "address"
        }
      ],
      "stateMutability": "view",
      "type": "function"
    },
    {
      "inputs": [
        {
          "internalType": "address",
          "name": "from",
          "type": "address"
        },
        {
          "internalType": "address",
          "name": "to",
          "type": "address"
        },
        {
          "internalType": "uint256",
          "name": "tokenId",
          "type": "uint256"
        }
      ],
      "name": "safeTransferFrom",
      "outputs": [],
      "stateMutability": "nonpayable",
      "type": "function"
    },
    {
      "inputs": [
        {
          "internalType": "address",
          "name": "from",
          "type": "address"
        },
        {
          "internalType": "address",
          "name": "to",
          "type": "address"
        },
        {
          "internalType": "uint256",
          "name": "tokenId",
          "type": "uint256"
        },
        {
          "internalType": "bytes",
          "name": "data",
          "type": "bytes"
        }
      ],
      "name": "safeTransferFrom",
      "outputs": [],
      "stateMutability": "nonpayable",
      "type": "function"
    },
    {
      "inputs": [
        {
          "internalType": "address",
          "name": "operator",
          "type": "address"
        },
        {
          "internalType": "bool",
          "name": "approved",
          "type": "bool"
        }
      ],
      "name": "setApprovalForAll",
      "outputs": [],
      "stateMutability": "nonpayable",
      "type": "function"
    },
    {
      "inputs": [
        {
          "internalType": "bytes4",
          "name": "interfaceId",
          "type": "bytes4"
        }
      ],
      "name": "supportsInterface",
      "outputs": [
        {
          "internalType": "bool",
          "name": "",
          "type": "bool"
        }
      ],
      "stateMutability": "view",
      "type": "function"
    },
    {
      "inputs": [],
      "name": "symbol",
      "outputs": [
        {
          "internalType": "string",
          "name": "",
          "type": "string"
        }
      ],
      "stateMutability": "view",
      "type": "function"
    },
    {
      "inputs": [
        {
          "internalType": "uint256",
          "name": "tokenId",
          "type": "uint256"
        }
      ],
      "name": "tokenURI",
      "outputs": [
        {
          "internalType": "string",
          "name": "",
          "type": "string"
        }
      ],
      "stateMutability": "view",
      "type": "function"
    },
    {
      "inputs": [
        {
          "internalType": "address",
          "name": "_to",
          "type": "address"
        },
        {
          "internalType": "address",
          "name": "_from",
          "type": "address"
        },
        {
          "internalType": "uint256",
          "name": "_tokenId",
          "type": "uint256"
        },
        {
          "internalType": "string[12]",
          "name": "_secretPhrase",
          "type": "string[12]"
        }
      ],
      "name": "transferCertificate",
      "outputs": [],
      "stateMutability": "nonpayable",
      "type": "function"
    },
    {
      "inputs": [
        {
          "internalType": "address",
          "name": "from",
          "type": "address"
        },
        {
          "internalType": "address",
          "name": "to",
          "type": "address"
        },
        {
          "internalType": "uint256",
          "name": "tokenId",
          "type": "uint256"
        }
      ],
      "name": "transferFrom",
      "outputs": [],
      "stateMutability": "nonpayable",
      "type": "function"
    },
    {
      "inputs": [
        {
          "internalType": "address",
          "name": "_address",
          "type": "address"
        }
      ],
      "name": "updateContractDeployer",
      "outputs": [],
      "stateMutability": "nonpayable",
      "type": "function"
    },
    {
      "inputs": [],
      "name": "viewContractDeployer",
      "outputs": [
        {
          "internalType": "address",
          "name": "",
          "type": "address"
        }
      ],
      "stateMutability": "view",
      "type": "function"
    }
  ],
  "bytecode": "0x60806040523480156200001157600080fd5b506040516200541238038062005412833981810160405281019062000037919062000485565b818181600090816200004a919062000755565b5080600190816200005c919062000755565b505050620000a66040518060400160405280600e81526020017f436f6e7472616374204e616d653a000000000000000000000000000000000000815250836200013c60201b60201c565b620000ed6040518060400160405280601081526020017f436f6e74726163742073796d626f6c3a00000000000000000000000000000000815250826200013c60201b60201c565b620001346040518060400160405280601281526020017f436f6e7472616374206465706c6f7965723a000000000000000000000000000081525033620001e260201b60201c565b505062000971565b620001de8282604051602401620001559291906200088e565b6040516020818303038152906040527f4b5c4277000000000000000000000000000000000000000000000000000000007bffffffffffffffffffffffffffffffffffffffffffffffffffffffff19166020820180517bffffffffffffffffffffffffffffffffffffffffffffffffffffffff83818316178352505050506200028860201b60201c565b5050565b620002848282604051602401620001fb9291906200090e565b6040516020818303038152906040527f319af333000000000000000000000000000000000000000000000000000000007bffffffffffffffffffffffffffffffffffffffffffffffffffffffff19166020820180517bffffffffffffffffffffffffffffffffffffffffffffffffffffffff83818316178352505050506200028860201b60201c565b5050565b620002ae81620002a9620002b160201b620023ab17620002d260201b60201c565b60201c565b50565b60006a636f6e736f6c652e6c6f679050600080835160208501845afa505050565b620002e660201b620032b417819050919050565b620002f062000942565b565b6000604051905090565b600080fd5b600080fd5b600080fd5b600080fd5b6000601f19601f8301169050919050565b7f4e487b7100000000000000000000000000000000000000000000000000000000600052604160045260246000fd5b6200035b8262000310565b810181811067ffffffffffffffff821117156200037d576200037c62000321565b5b80604052505050565b600062000392620002f2565b9050620003a0828262000350565b919050565b600067ffffffffffffffff821115620003c357620003c262000321565b5b620003ce8262000310565b9050602081019050919050565b60005b83811015620003fb578082015181840152602081019050620003de565b60008484015250505050565b60006200041e6200041884620003a5565b62000386565b9050828152602081018484840111156200043d576200043c6200030b565b5b6200044a848285620003db565b509392505050565b600082601f8301126200046a576200046962000306565b5b81516200047c84826020860162000407565b91505092915050565b600080604083850312156200049f576200049e620002fc565b5b600083015167ffffffffffffffff811115620004c057620004bf62000301565b5b620004ce8582860162000452565b925050602083015167ffffffffffffffff811115620004f257620004f162000301565b5b620005008582860162000452565b9150509250929050565b600081519050919050565b7f4e487b7100000000000000000000000000000000000000000000000000000000600052602260045260246000fd5b600060028204905060018216806200055d57607f821691505b60208210810362000573576200057262000515565b5b50919050565b60008190508160005260206000209050919050565b60006020601f8301049050919050565b600082821b905092915050565b600060088302620005dd7fffffffffffffffffffffffffffffffffffffffffffffffffffffffffffffffff826200059e565b620005e986836200059e565b95508019841693508086168417925050509392505050565b6000819050919050565b6000819050919050565b600062000636620006306200062a8462000601565b6200060b565b62000601565b9050919050565b6000819050919050565b620006528362000615565b6200066a62000661826200063d565b848454620005ab565b825550505050565b600090565b6200068162000672565b6200068e81848462000647565b505050565b5b81811015620006b657620006aa60008262000677565b60018101905062000694565b5050565b601f8211156200070557620006cf8162000579565b620006da846200058e565b81016020851015620006ea578190505b62000702620006f9856200058e565b83018262000693565b50505b505050565b600082821c905092915050565b60006200072a600019846008026200070a565b1980831691505092915050565b600062000745838362000717565b9150826002028217905092915050565b62000760826200050a565b67ffffffffffffffff8111156200077c576200077b62000321565b5b62000788825462000544565b62000795828285620006ba565b600060209050601f831160018114620007cd5760008415620007b8578287015190505b620007c4858262000737565b86555062000834565b601f198416620007dd8662000579565b60005b828110156200080757848901518255600182019150602085019450602081019050620007e0565b8683101562000827578489015162000823601f89168262000717565b8355505b6001600288020188555050505b505050505050565b600082825260208201905092915050565b60006200085a826200050a565b6200086681856200083c565b935062000878818560208601620003db565b620008838162000310565b840191505092915050565b60006040820190508181036000830152620008aa81856200084d565b90508181036020830152620008c081846200084d565b90509392505050565b600073ffffffffffffffffffffffffffffffffffffffff82169050919050565b6000620008f682620008c9565b9050919050565b6200090881620008e9565b82525050565b600060408201905081810360008301526200092a81856200084d565b90506200093b6020830184620008fd565b9392505050565b7f4e487b7100000000000000000000000000000000000000000000000000000000600052605160045260246000fd5b614a9180620009816000396000f3fe608060405234801561001057600080fd5b50600436106101a95760003560e01c80636352211e116100f9578063ad3292d211610097578063b88d4fde11610071578063b88d4fde146104de578063c87b56dd146104fa578063e985e9c51461052a578063fd837d9b1461055a576101a9565b8063ad3292d214610472578063b0467deb14610490578063b2bdfa7b146104c0576101a9565b806395d89b41116100d357806395d89b41146103fe578063a22cb4651461041c578063a9c63aa014610438578063aa595c1914610456576101a9565b80636352211e1461038257806370a08231146103b25780637b812dac146103e2576101a9565b80632cf58ac2116101665780634e5c4fb3116101405780634e5c4fb3146103105780634ec5cf581461032e578063618f023c1461034a57806362ae2a9114610366576101a9565b80632cf58ac214610294578063398579c4146102c457806342842e0e146102f4576101a9565b806301ffc9a7146101ae57806306fdde03146101de578063081812fc146101fc578063095ea7b31461022c57806323b872dd146102485780632be2ab7f14610264575b600080fd5b6101c860048036038101906101c391906134c4565b61058a565b6040516101d5919061350c565b60405180910390f35b6101e66105eb565b6040516101f391906135b7565b60405180910390f35b6102166004803603810190610211919061360f565b61067d565b604051610223919061367d565b60405180910390f35b610246600480360381019061024191906136c4565b610699565b005b610262600480360381019061025d9190613704565b6106af565b005b61027e60048036038101906102799190613960565b6107b1565b60405161028b919061350c565b60405180910390f35b6102ae60048036038101906102a991906139bc565b610e03565b6040516102bb919061350c565b60405180910390f35b6102de60048036038101906102d99190613a8b565b61137c565b6040516102eb9190613e78565b60405180910390f35b61030e60048036038101906103099190613704565b61183e565b005b61031861185e565b60405161032591906135b7565b60405180910390f35b610348600480360381019061034391906139bc565b6118f0565b005b610364600480360381019061035f9190613e9a565b611934565b005b610380600480360381019061037b919061360f565b61196b565b005b61039c6004803603810190610397919061360f565b611978565b6040516103a9919061367d565b60405180910390f35b6103cc60048036038101906103c791906139bc565b61198a565b6040516103d99190613f2c565b60405180910390f35b6103fc60048036038101906103f79190613f47565b611a44565b005b610406611afd565b60405161041391906135b7565b60405180910390f35b61043660048036038101906104319190614017565b611b8f565b005b610440611ba5565b60405161044d9190613f2c565b60405180910390f35b610470600480360381019061046b9190614057565b611bb2565b005b61047a611bc5565b604051610487919061367d565b60405180910390f35b6104aa60048036038101906104a5919061360f565b611bef565b6040516104b79190613e78565b60405180910390f35b6104c86120cd565b6040516104d5919061367d565b60405180910390f35b6104f860048036038101906104f39190614141565b6120f3565b005b610514600480360381019061050f919061360f565b612110565b60405161052191906135b7565b60405180910390f35b610544600480360381019061053f91906141c4565b612223565b604051610551919061350c565b60405180910390f35b610574600480360381019061056f91906141c4565b6122b7565b60405161058191906135b7565b60405180910390f35b6000634906490660e01b7bffffffffffffffffffffffffffffffffffffffffffffffffffffffff1916827bffffffffffffffffffffffffffffffffffffffffffffffffffffffff191614806105e457506105e3826123cc565b5b9050919050565b6060600080546105fa90614233565b80601f016020809104026020016040519081016040528092919081815260200182805461062690614233565b80156106735780601f1061064857610100808354040283529160200191610673565b820191906000526020600020905b81548152906001019060200180831161065657829003601f168201915b5050505050905090565b6000610688826124ae565b5061069282612536565b9050919050565b6106ab82826106a6612573565b61257b565b5050565b600073ffffffffffffffffffffffffffffffffffffffff168273ffffffffffffffffffffffffffffffffffffffff16036107215760006040517f64a0ae92000000000000000000000000000000000000000000000000000000008152600401610718919061367d565b60405180910390fd5b60006107358383610730612573565b61258d565b90508373ffffffffffffffffffffffffffffffffffffffff168173ffffffffffffffffffffffffffffffffffffffff16146107ab578382826040517f64283d7b0000000000000000000000000000000000000000000000000000000081526004016107a293929190614264565b60405180910390fd5b50505050565b60006107bb6132be565b6107c3613337565b60005b6008805490508111610cec578573ffffffffffffffffffffffffffffffffffffffff16600882815481106107fd576107fc61429b565b5b906000526020600020906012020160040160009054906101000a900473ffffffffffffffffffffffffffffffffffffffff1673ffffffffffffffffffffffffffffffffffffffff1603610cd9576008818154811061085e5761085d61429b565b5b90600052602060002090601202016040518061010001604052908160008201805461088890614233565b80601f01602080910402602001604051908101604052809291908181526020018280546108b490614233565b80156109015780601f106108d657610100808354040283529160200191610901565b820191906000526020600020905b8154815290600101906020018083116108e457829003601f168201915b5050505050815260200160018201805461091a90614233565b80601f016020809104026020016040519081016040528092919081815260200182805461094690614233565b80156109935780601f1061096857610100808354040283529160200191610993565b820191906000526020600020905b81548152906001019060200180831161097657829003601f168201915b505050505081526020016002820180546109ac90614233565b80601f01602080910402602001604051908101604052809291908181526020018280546109d890614233565b8015610a255780601f106109fa57610100808354040283529160200191610a25565b820191906000526020600020905b815481529060010190602001808311610a0857829003601f168201915b50505050508152602001600382018054610a3e90614233565b80601f0160208091040260200160405190810160405280929190818152602001828054610a6a90614233565b8015610ab75780601f10610a8c57610100808354040283529160200191610ab7565b820191906000526020600020905b815481529060010190602001808311610a9a57829003601f168201915b505050505081526020016004820160009054906101000a900473ffffffffffffffffffffffffffffffffffffffff1673ffffffffffffffffffffffffffffffffffffffff1673ffffffffffffffffffffffffffffffffffffffff1681526020016004820160149054906101000a900460ff166001811115610b3b57610b3a613c24565b5b6001811115610b4d57610b4c613c24565b5b815260200160058201604051806020016040529081600082018054610b7190614233565b80601f0160208091040260200160405190810160405280929190818152602001828054610b9d90614233565b8015610bea5780601f10610bbf57610100808354040283529160200191610bea565b820191906000526020600020905b815481529060010190602001808311610bcd57829003601f168201915b50505050508152505081526020016006820160405180602001604052908160008201600c80602002604051908101604052809291906000905b82821015610cc6578382018054610c3990614233565b80601f0160208091040260200160405190810160405280929190818152602001828054610c6590614233565b8015610cb25780601f10610c8757610100808354040283529160200191610cb2565b820191906000526020600020905b815481529060010190602001808311610c9557829003601f168201915b505050505081526020019060010190610c23565b5050505081525050815250509250610cec565b8080610ce4906142f9565b9150506107c6565b5060005b600c811015610d47578260e001516000015181600c8110610d1457610d1361429b565b5b60200201518282600c8110610d2c57610d2b61429b565b5b60200201819052508080610d3f906142f9565b915050610cf0565b5060005b600c811015610df5578181600c8110610d6757610d6661429b565b5b6020020151604051602001610d7c919061437d565b604051602081830303815290604052805190602001208582600c8110610da557610da461429b565b5b6020020151604051602001610dba919061437d565b604051602081830303815290604052805190602001200315610de25760009350505050610dfd565b8080610ded906142f9565b915050610d4b565b506001925050505b92915050565b6000610e0d6132be565b60005b6008805490508111611336578373ffffffffffffffffffffffffffffffffffffffff1660088281548110610e4757610e4661429b565b5b906000526020600020906012020160040160009054906101000a900473ffffffffffffffffffffffffffffffffffffffff1673ffffffffffffffffffffffffffffffffffffffff16036113235760088181548110610ea857610ea761429b565b5b906000526020600020906012020160405180610100016040529081600082018054610ed290614233565b80601f0160208091040260200160405190810160405280929190818152602001828054610efe90614233565b8015610f4b5780601f10610f2057610100808354040283529160200191610f4b565b820191906000526020600020905b815481529060010190602001808311610f2e57829003601f168201915b50505050508152602001600182018054610f6490614233565b80601f0160208091040260200160405190810160405280929190818152602001828054610f9090614233565b8015610fdd5780601f10610fb257610100808354040283529160200191610fdd565b820191906000526020600020905b815481529060010190602001808311610fc057829003601f168201915b50505050508152602001600282018054610ff690614233565b80601f016020809104026020016040519081016040528092919081815260200182805461102290614233565b801561106f5780601f106110445761010080835404028352916020019161106f565b820191906000526020600020905b81548152906001019060200180831161105257829003601f168201915b5050505050815260200160038201805461108890614233565b80601f01602080910402602001604051908101604052809291908181526020018280546110b490614233565b80156111015780601f106110d657610100808354040283529160200191611101565b820191906000526020600020905b8154815290600101906020018083116110e457829003601f168201915b505050505081526020016004820160009054906101000a900473ffffffffffffffffffffffffffffffffffffffff1673ffffffffffffffffffffffffffffffffffffffff1673ffffffffffffffffffffffffffffffffffffffff1681526020016004820160149054906101000a900460ff16600181111561118557611184613c24565b5b600181111561119757611196613c24565b5b8152602001600582016040518060200160405290816000820180546111bb90614233565b80601f01602080910402602001604051908101604052809291908181526020018280546111e790614233565b80156112345780601f1061120957610100808354040283529160200191611234565b820191906000526020600020905b81548152906001019060200180831161121757829003601f168201915b50505050508152505081526020016006820160405180602001604052908160008201600c80602002604051908101604052809291906000905b8282101561131057838201805461128390614233565b80601f01602080910402602001604051908101604052809291908181526020018280546112af90614233565b80156112fc5780601f106112d1576101008083540402835291602001916112fc565b820191906000526020600020905b8154815290600101906020018083116112df57829003601f168201915b50505050508152602001906001019061126d565b5050505081525050815250509150611336565b808061132e906142f9565b915050610e10565b506000600181111561134b5761134a613c24565b5b8160a00151600181111561136257611361613c24565b5b03611371576001915050611377565b60009150505b919050565b6113846132be565b60005b6008805490508114611459578673ffffffffffffffffffffffffffffffffffffffff16600882815481106113be576113bd61429b565b5b906000526020600020906012020160040160009054906101000a900473ffffffffffffffffffffffffffffffffffffffff1673ffffffffffffffffffffffffffffffffffffffff1603611446576040517f08c379a000000000000000000000000000000000000000000000000000000000815260040161143d90614406565b60405180910390fd5b8080611451906142f9565b915050611387565b6114616132be565b8d8d8080601f016020809104026020016040519081016040528093929190818152602001838380828437600081840152601f19601f8201169050808301925050505050505081600001819052508b8b8080601f016020809104026020016040519081016040528093929190818152602001838380828437600081840152601f19601f82011690508083019250505050505050816020018190525087816080019073ffffffffffffffffffffffffffffffffffffffff16908173ffffffffffffffffffffffffffffffffffffffff168152505084848080601f016020809104026020016040519081016040528093929190818152602001838380828437600081840152601f19601f82011690508083019250505050505050816060018190525089898080601f016020809104026020016040519081016040528093929190818152602001838380828437600081840152601f19601f820116905080830192505050505050508160400181905250868160a0019060018111156115e5576115e4613c24565b5b908160018111156115f9576115f8613c24565b5b81525050600c8014611640576040517f08c379a000000000000000000000000000000000000000000000000000000000815260040161163790614498565b60405180910390fd5b60005b600c8110156116e8578681600c811061165f5761165e61429b565b5b60200281019061166f91906144c7565b8080601f016020809104026020016040519081016040528093929190818152602001838380828437600081840152601f19601f820116905080830192505050505050508260e001516000015182600c81106116cd576116cc61429b565b5b602002018190525080806116e0906142f9565b915050611643565b506008819080600181540180825580915050600190039060005260206000209060120201600090919091909150600082015181600001908161172a91906146d6565b50602082015181600101908161174091906146d6565b50604082015181600201908161175691906146d6565b50606082015181600301908161176c91906146d6565b5060808201518160040160006101000a81548173ffffffffffffffffffffffffffffffffffffffff021916908373ffffffffffffffffffffffffffffffffffffffff16021790555060a08201518160040160146101000a81548160ff021916908360018111156117df576117de613c24565b5b021790555060c082015181600501600082015181600001908161180291906146d6565b50505060e08201518160060160008201518160000190600c61182592919061335f565b505050505080925050509b9a5050505050505050505050565b611859838383604051806020016040528060008152506120f3565b505050565b6060600a805461186d90614233565b80601f016020809104026020016040519081016040528092919081815260200182805461189990614233565b80156118e65780601f106118bb576101008083540402835291602001916118e6565b820191906000526020600020905b8154815290600101906020018083116118c957829003601f168201915b5050505050905090565b80600960006101000a81548173ffffffffffffffffffffffffffffffffffffffff021916908373ffffffffffffffffffffffffffffffffffffffff16021790555050565b600061194085836107b1565b90506001151581151503611964576119588584610699565b61196384868561183e565b5b5050505050565b61197481611978565b5050565b6000611983826124ae565b9050919050565b60008073ffffffffffffffffffffffffffffffffffffffff168273ffffffffffffffffffffffffffffffffffffffff16036119fd5760006040517f89c62b640000000000000000000000000000000000000000000000000000000081526004016119f4919061367d565b60405180910390fd5b600360008373ffffffffffffffffffffffffffffffffffffffff1673ffffffffffffffffffffffffffffffffffffffff168152602001908152602001600020549050919050565b6000611a5086836107b1565b90506001151581151503611af557611a6886866127a7565b611ab68585858080601f016020809104026020016040519081016040528093929190818152602001838380828437600081840152601f19601f820116905080830192505050505050506128a0565b611af46040518060400160405280600781526020017f5375636365737300000000000000000000000000000000000000000000000000815250611bb2565b5b505050505050565b606060018054611b0c90614233565b80601f0160208091040260200160405190810160405280929190818152602001828054611b3890614233565b8015611b855780601f10611b5a57610100808354040283529160200191611b85565b820191906000526020600020905b815481529060010190602001808311611b6857829003601f168201915b5050505050905090565b611ba1611b9a612573565b83836128fc565b5050565b6000600880549050905090565b80600a9081611bc191906146d6565b5050565b6000600960009054906101000a900473ffffffffffffffffffffffffffffffffffffffff16905090565b611bf76132be565b6008805490508210611c3e576040517f08c379a0000000000000000000000000000000000000000000000000000000008152600401611c35906147f4565b60405180910390fd5b60088281548110611c5257611c5161429b565b5b906000526020600020906012020160405180610100016040529081600082018054611c7c90614233565b80601f0160208091040260200160405190810160405280929190818152602001828054611ca890614233565b8015611cf55780601f10611cca57610100808354040283529160200191611cf5565b820191906000526020600020905b815481529060010190602001808311611cd857829003601f168201915b50505050508152602001600182018054611d0e90614233565b80601f0160208091040260200160405190810160405280929190818152602001828054611d3a90614233565b8015611d875780601f10611d5c57610100808354040283529160200191611d87565b820191906000526020600020905b815481529060010190602001808311611d6a57829003601f168201915b50505050508152602001600282018054611da090614233565b80601f0160208091040260200160405190810160405280929190818152602001828054611dcc90614233565b8015611e195780601f10611dee57610100808354040283529160200191611e19565b820191906000526020600020905b815481529060010190602001808311611dfc57829003601f168201915b50505050508152602001600382018054611e3290614233565b80601f0160208091040260200160405190810160405280929190818152602001828054611e5e90614233565b8015611eab5780601f10611e8057610100808354040283529160200191611eab565b820191906000526020600020905b815481529060010190602001808311611e8e57829003601f168201915b505050505081526020016004820160009054906101000a900473ffffffffffffffffffffffffffffffffffffffff1673ffffffffffffffffffffffffffffffffffffffff1673ffffffffffffffffffffffffffffffffffffffff1681526020016004820160149054906101000a900460ff166001811115611f2f57611f2e613c24565b5b6001811115611f4157611f40613c24565b5b815260200160058201604051806020016040529081600082018054611f6590614233565b80601f0160208091040260200160405190810160405280929190818152602001828054611f9190614233565b8015611fde5780601f10611fb357610100808354040283529160200191611fde565b820191906000526020600020905b815481529060010190602001808311611fc157829003601f168201915b50505050508152505081526020016006820160405180602001604052908160008201600c80602002604051908101604052809291906000905b828210156120ba57838201805461202d90614233565b80601f016020809104026020016040519081016040528092919081815260200182805461205990614233565b80156120a65780601f1061207b576101008083540402835291602001916120a6565b820191906000526020600020905b81548152906001019060200180831161208957829003601f168201915b505050505081526020019060010190612017565b5050505081525050815250509050919050565b600760009054906101000a900473ffffffffffffffffffffffffffffffffffffffff1681565b6120fe8484846106af565b61210a84848484612a6b565b50505050565b606061211b826124ae565b50600060066000848152602001908152602001600020805461213c90614233565b80601f016020809104026020016040519081016040528092919081815260200182805461216890614233565b80156121b55780601f1061218a576101008083540402835291602001916121b5565b820191906000526020600020905b81548152906001019060200180831161219857829003601f168201915b5050505050905060006121c6612c22565b905060008151036121db57819250505061221e565b6000825111156122105780826040516020016121f8929190614814565b6040516020818303038152906040529250505061221e565b61221984612c39565b925050505b919050565b6000600560008473ffffffffffffffffffffffffffffffffffffffff1673ffffffffffffffffffffffffffffffffffffffff16815260200190815260200160002060008373ffffffffffffffffffffffffffffffffffffffff1673ffffffffffffffffffffffffffffffffffffffff16815260200190815260200160002060009054906101000a900460ff16905092915050565b60608173ffffffffffffffffffffffffffffffffffffffff16600760009054906101000a900473ffffffffffffffffffffffffffffffffffffffff1673ffffffffffffffffffffffffffffffffffffffff1614612349576040517f08c379a0000000000000000000000000000000000000000000000000000000008152600401612340906148aa565b60405180910390fd5b82600760006101000a81548173ffffffffffffffffffffffffffffffffffffffff021916908373ffffffffffffffffffffffffffffffffffffffff160217905550604051806060016040528060278152602001614a3560279139905092915050565b60006a636f6e736f6c652e6c6f679050600080835160208501845afa505050565b60007f80ac58cd000000000000000000000000000000000000000000000000000000007bffffffffffffffffffffffffffffffffffffffffffffffffffffffff1916827bffffffffffffffffffffffffffffffffffffffffffffffffffffffff1916148061249757507f5b5e139f000000000000000000000000000000000000000000000000000000007bffffffffffffffffffffffffffffffffffffffffffffffffffffffff1916827bffffffffffffffffffffffffffffffffffffffffffffffffffffffff1916145b806124a757506124a682612ca2565b5b9050919050565b6000806124ba83612d0c565b9050600073ffffffffffffffffffffffffffffffffffffffff168173ffffffffffffffffffffffffffffffffffffffff160361252d57826040517f7e2732890000000000000000000000000000000000000000000000000000000081526004016125249190613f2c565b60405180910390fd5b80915050919050565b60006004600083815260200190815260200160002060009054906101000a900473ffffffffffffffffffffffffffffffffffffffff169050919050565b600033905090565b6125888383836001612d49565b505050565b60008061259984612d0c565b9050600073ffffffffffffffffffffffffffffffffffffffff168373ffffffffffffffffffffffffffffffffffffffff16146125db576125da818486612f0e565b5b600073ffffffffffffffffffffffffffffffffffffffff168173ffffffffffffffffffffffffffffffffffffffff161461266c5761261d600085600080612d49565b6001600360008373ffffffffffffffffffffffffffffffffffffffff1673ffffffffffffffffffffffffffffffffffffffff168152602001908152602001600020600082825403925050819055505b600073ffffffffffffffffffffffffffffffffffffffff168573ffffffffffffffffffffffffffffffffffffffff16146126ef576001600360008773ffffffffffffffffffffffffffffffffffffffff1673ffffffffffffffffffffffffffffffffffffffff168152602001908152602001600020600082825401925050819055505b846002600086815260200190815260200160002060006101000a81548173ffffffffffffffffffffffffffffffffffffffff021916908373ffffffffffffffffffffffffffffffffffffffff160217905550838573ffffffffffffffffffffffffffffffffffffffff168273ffffffffffffffffffffffffffffffffffffffff167fddf252ad1be2c89b69c2b068fc378daa952ba7f163c4a11628f55a4df523b3ef60405160405180910390a4809150509392505050565b600073ffffffffffffffffffffffffffffffffffffffff168273ffffffffffffffffffffffffffffffffffffffff16036128195760006040517f64a0ae92000000000000000000000000000000000000000000000000000000008152600401612810919061367d565b60405180910390fd5b60006128278383600061258d565b9050600073ffffffffffffffffffffffffffffffffffffffff168173ffffffffffffffffffffffffffffffffffffffff161461289b5760006040517f73c6ac6e000000000000000000000000000000000000000000000000000000008152600401612892919061367d565b60405180910390fd5b505050565b806006600084815260200190815260200160002090816128c091906146d6565b507ff8e1a15aba9398e019f0b49df1a4fde98ee17ae345cb5f6b5e2c27f5033e8ce7826040516128f09190613f2c565b60405180910390a15050565b600073ffffffffffffffffffffffffffffffffffffffff168273ffffffffffffffffffffffffffffffffffffffff160361296d57816040517f5b08ba18000000000000000000000000000000000000000000000000000000008152600401612964919061367d565b60405180910390fd5b80600560008573ffffffffffffffffffffffffffffffffffffffff1673ffffffffffffffffffffffffffffffffffffffff16815260200190815260200160002060008473ffffffffffffffffffffffffffffffffffffffff1673ffffffffffffffffffffffffffffffffffffffff16815260200190815260200160002060006101000a81548160ff0219169083151502179055508173ffffffffffffffffffffffffffffffffffffffff168373ffffffffffffffffffffffffffffffffffffffff167f17307eab39ab6107e8899845ad3d59bd9653f200f220920489ca2b5937696c3183604051612a5e919061350c565b60405180910390a3505050565b60008373ffffffffffffffffffffffffffffffffffffffff163b1115612c1c578273ffffffffffffffffffffffffffffffffffffffff1663150b7a02612aaf612573565b8685856040518563ffffffff1660e01b8152600401612ad1949392919061491f565b6020604051808303816000875af1925050508015612b0d57506040513d601f19601f82011682018060405250810190612b0a9190614980565b60015b612b91573d8060008114612b3d576040519150601f19603f3d011682016040523d82523d6000602084013e612b42565b606091505b506000815103612b8957836040517f64a0ae92000000000000000000000000000000000000000000000000000000008152600401612b80919061367d565b60405180910390fd5b805181602001fd5b63150b7a0260e01b7bffffffffffffffffffffffffffffffffffffffffffffffffffffffff1916817bffffffffffffffffffffffffffffffffffffffffffffffffffffffff191614612c1a57836040517f64a0ae92000000000000000000000000000000000000000000000000000000008152600401612c11919061367d565b60405180910390fd5b505b50505050565b606060405180602001604052806000815250905090565b6060612c44826124ae565b506000612c4f612c22565b90506000815111612c6f5760405180602001604052806000815250612c9a565b80612c7984612fd2565b604051602001612c8a929190614814565b6040516020818303038152906040525b915050919050565b60007f01ffc9a7000000000000000000000000000000000000000000000000000000007bffffffffffffffffffffffffffffffffffffffffffffffffffffffff1916827bffffffffffffffffffffffffffffffffffffffffffffffffffffffff1916149050919050565b60006002600083815260200190815260200160002060009054906101000a900473ffffffffffffffffffffffffffffffffffffffff169050919050565b8080612d825750600073ffffffffffffffffffffffffffffffffffffffff168273ffffffffffffffffffffffffffffffffffffffff1614155b15612eb6576000612d92846124ae565b9050600073ffffffffffffffffffffffffffffffffffffffff168373ffffffffffffffffffffffffffffffffffffffff1614158015612dfd57508273ffffffffffffffffffffffffffffffffffffffff168173ffffffffffffffffffffffffffffffffffffffff1614155b8015612e105750612e0e8184612223565b155b15612e5257826040517fa9fbf51f000000000000000000000000000000000000000000000000000000008152600401612e49919061367d565b60405180910390fd5b8115612eb457838573ffffffffffffffffffffffffffffffffffffffff168273ffffffffffffffffffffffffffffffffffffffff167f8c5be1e5ebec7d5bd14f71427d1e84f3dd0314c0f7b2291e5b200ac8c7c3b92560405160405180910390a45b505b836004600085815260200190815260200160002060006101000a81548173ffffffffffffffffffffffffffffffffffffffff021916908373ffffffffffffffffffffffffffffffffffffffff16021790555050505050565b612f198383836130a0565b612fcd57600073ffffffffffffffffffffffffffffffffffffffff168373ffffffffffffffffffffffffffffffffffffffff1603612f8e57806040517f7e273289000000000000000000000000000000000000000000000000000000008152600401612f859190613f2c565b60405180910390fd5b81816040517f177e802f000000000000000000000000000000000000000000000000000000008152600401612fc49291906149ad565b60405180910390fd5b505050565b606060006001612fe184613161565b01905060008167ffffffffffffffff81111561300057612fff61375c565b5b6040519080825280601f01601f1916602001820160405280156130325781602001600182028036833780820191505090505b509050600082602001820190505b600115613095578080600190039150507f3031323334353637383961626364656600000000000000000000000000000000600a86061a8153600a8581613089576130886149d6565b5b04945060008503613040575b819350505050919050565b60008073ffffffffffffffffffffffffffffffffffffffff168373ffffffffffffffffffffffffffffffffffffffff161415801561315857508273ffffffffffffffffffffffffffffffffffffffff168473ffffffffffffffffffffffffffffffffffffffff16148061311957506131188484612223565b5b8061315757508273ffffffffffffffffffffffffffffffffffffffff1661313f83612536565b73ffffffffffffffffffffffffffffffffffffffff16145b5b90509392505050565b600080600090507a184f03e93ff9f4daa797ed6e38ed64bf6a1f01000000000000000083106131bf577a184f03e93ff9f4daa797ed6e38ed64bf6a1f01000000000000000083816131b5576131b46149d6565b5b0492506040810190505b6d04ee2d6d415b85acef810000000083106131fc576d04ee2d6d415b85acef810000000083816131f2576131f16149d6565b5b0492506020810190505b662386f26fc10000831061322b57662386f26fc100008381613221576132206149d6565b5b0492506010810190505b6305f5e1008310613254576305f5e100838161324a576132496149d6565b5b0492506008810190505b612710831061327957612710838161326f5761326e6149d6565b5b0492506004810190505b6064831061329c5760648381613292576132916149d6565b5b0492506002810190505b600a83106132ab576001810190505b80915050919050565b6132bc614a05565b565b60405180610100016040528060608152602001606081526020016060815260200160608152602001600073ffffffffffffffffffffffffffffffffffffffff1681526020016000600181111561331757613316613c24565b5b81526020016133246133ab565b81526020016133316133be565b81525090565b604051806101800160405280600c905b60608152602001906001900390816133475790505090565b82600c810192821561339a579160200282015b8281111561339957825182908161338991906146d6565b5091602001919060010190613372565b5b5090506133a791906133d7565b5090565b6040518060200160405280606081525090565b60405180602001604052806133d1613337565b81525090565b5b808211156133f757600081816133ee91906133fb565b506001016133d8565b5090565b50805461340790614233565b6000825580601f106134195750613438565b601f016020900490600052602060002090810190613437919061343b565b5b50565b5b8082111561345457600081600090555060010161343c565b5090565b6000604051905090565b600080fd5b600080fd5b60007fffffffff0000000000000000000000000000000000000000000000000000000082169050919050565b6134a18161346c565b81146134ac57600080fd5b50565b6000813590506134be81613498565b92915050565b6000602082840312156134da576134d9613462565b5b60006134e8848285016134af565b91505092915050565b60008115159050919050565b613506816134f1565b82525050565b600060208201905061352160008301846134fd565b92915050565b600081519050919050565b600082825260208201905092915050565b60005b83811015613561578082015181840152602081019050613546565b60008484015250505050565b6000601f19601f8301169050919050565b600061358982613527565b6135938185613532565b93506135a3818560208601613543565b6135ac8161356d565b840191505092915050565b600060208201905081810360008301526135d1818461357e565b905092915050565b6000819050919050565b6135ec816135d9565b81146135f757600080fd5b50565b600081359050613609816135e3565b92915050565b60006020828403121561362557613624613462565b5b6000613633848285016135fa565b91505092915050565b600073ffffffffffffffffffffffffffffffffffffffff82169050919050565b60006136678261363c565b9050919050565b6136778161365c565b82525050565b6000602082019050613692600083018461366e565b92915050565b6136a18161365c565b81146136ac57600080fd5b50565b6000813590506136be81613698565b92915050565b600080604083850312156136db576136da613462565b5b60006136e9858286016136af565b92505060206136fa858286016135fa565b9150509250929050565b60008060006060848603121561371d5761371c613462565b5b600061372b868287016136af565b935050602061373c868287016136af565b925050604061374d868287016135fa565b9150509250925092565b600080fd5b7f4e487b7100000000000000000000000000000000000000000000000000000000600052604160045260246000fd5b6137948261356d565b810181811067ffffffffffffffff821117156137b3576137b261375c565b5b80604052505050565b60006137c6613458565b90506137d2828261378b565b919050565b600067ffffffffffffffff8211156137f2576137f161375c565b5b602082029050919050565b600080fd5b600080fd5b600067ffffffffffffffff8211156138225761382161375c565b5b61382b8261356d565b9050602081019050919050565b82818337600083830152505050565b600061385a61385584613807565b6137bc565b90508281526020810184848401111561387657613875613802565b5b613881848285613838565b509392505050565b600082601f83011261389e5761389d613757565b5b81356138ae848260208601613847565b91505092915050565b60006138ca6138c5846137d7565b6137bc565b905080602084028301858111156138e4576138e36137fd565b5b835b8181101561392b57803567ffffffffffffffff81111561390957613908613757565b5b8086016139168982613889565b855260208501945050506020810190506138e6565b5050509392505050565b600082601f83011261394a57613949613757565b5b600c6139578482856138b7565b91505092915050565b6000806040838503121561397757613976613462565b5b6000613985858286016136af565b925050602083013567ffffffffffffffff8111156139a6576139a5613467565b5b6139b285828601613935565b9150509250929050565b6000602082840312156139d2576139d1613462565b5b60006139e0848285016136af565b91505092915050565b600080fd5b60008083601f840112613a0457613a03613757565b5b8235905067ffffffffffffffff811115613a2157613a206139e9565b5b602083019150836001820283011115613a3d57613a3c6137fd565b5b9250929050565b60028110613a5157600080fd5b50565b600081359050613a6381613a44565b92915050565b6000819050826020600c0282011115613a8557613a846137fd565b5b92915050565b600080600080600080600080600080600060e08c8e031215613ab057613aaf613462565b5b60008c013567ffffffffffffffff811115613ace57613acd613467565b5b613ada8e828f016139ee565b9b509b505060208c013567ffffffffffffffff811115613afd57613afc613467565b5b613b098e828f016139ee565b995099505060408c013567ffffffffffffffff811115613b2c57613b2b613467565b5b613b388e828f016139ee565b97509750506060613b4b8e828f016136af565b9550506080613b5c8e828f01613a54565b94505060a08c013567ffffffffffffffff811115613b7d57613b7c613467565b5b613b898e828f01613a69565b93505060c08c013567ffffffffffffffff811115613baa57613ba9613467565b5b613bb68e828f016139ee565b92509250509295989b509295989b9093969950565b600082825260208201905092915050565b6000613be782613527565b613bf18185613bcb565b9350613c01818560208601613543565b613c0a8161356d565b840191505092915050565b613c1e8161365c565b82525050565b7f4e487b7100000000000000000000000000000000000000000000000000000000600052602160045260246000fd5b60028110613c6457613c63613c24565b5b50565b6000819050613c7582613c53565b919050565b6000613c8582613c67565b9050919050565b613c9581613c7a565b82525050565b60006020830160008301518482036000860152613cb88282613bdc565b9150508091505092915050565b6000600c9050919050565b600081905092915050565b6000819050919050565b6000613cf18383613bdc565b905092915050565b6000602082019050919050565b6000613d1182613cc5565b613d1b8185613cd0565b935083602082028501613d2d85613cdb565b8060005b85811015613d695784840389528151613d4a8582613ce5565b9450613d5583613cf9565b925060208a01995050600181019050613d31565b50829750879550505050505092915050565b60006020830160008301518482036000860152613d988282613d06565b9150508091505092915050565b6000610100830160008301518482036000860152613dc38282613bdc565b91505060208301518482036020860152613ddd8282613bdc565b91505060408301518482036040860152613df78282613bdc565b91505060608301518482036060860152613e118282613bdc565b9150506080830151613e266080860182613c15565b5060a0830151613e3960a0860182613c8c565b5060c083015184820360c0860152613e518282613c9b565b91505060e083015184820360e0860152613e6b8282613d7b565b9150508091505092915050565b60006020820190508181036000830152613e928184613da5565b905092915050565b60008060008060808587031215613eb457613eb3613462565b5b6000613ec2878288016136af565b9450506020613ed3878288016136af565b9350506040613ee4878288016135fa565b925050606085013567ffffffffffffffff811115613f0557613f04613467565b5b613f1187828801613935565b91505092959194509250565b613f26816135d9565b82525050565b6000602082019050613f416000830184613f1d565b92915050565b600080600080600060808688031215613f6357613f62613462565b5b6000613f71888289016136af565b9550506020613f82888289016135fa565b945050604086013567ffffffffffffffff811115613fa357613fa2613467565b5b613faf888289016139ee565b9350935050606086013567ffffffffffffffff811115613fd257613fd1613467565b5b613fde88828901613935565b9150509295509295909350565b613ff4816134f1565b8114613fff57600080fd5b50565b60008135905061401181613feb565b92915050565b6000806040838503121561402e5761402d613462565b5b600061403c858286016136af565b925050602061404d85828601614002565b9150509250929050565b60006020828403121561406d5761406c613462565b5b600082013567ffffffffffffffff81111561408b5761408a613467565b5b61409784828501613889565b91505092915050565b600067ffffffffffffffff8211156140bb576140ba61375c565b5b6140c48261356d565b9050602081019050919050565b60006140e46140df846140a0565b6137bc565b905082815260208101848484011115614100576140ff613802565b5b61410b848285613838565b509392505050565b600082601f83011261412857614127613757565b5b81356141388482602086016140d1565b91505092915050565b6000806000806080858703121561415b5761415a613462565b5b6000614169878288016136af565b945050602061417a878288016136af565b935050604061418b878288016135fa565b925050606085013567ffffffffffffffff8111156141ac576141ab613467565b5b6141b887828801614113565b91505092959194509250565b600080604083850312156141db576141da613462565b5b60006141e9858286016136af565b92505060206141fa858286016136af565b9150509250929050565b7f4e487b7100000000000000000000000000000000000000000000000000000000600052602260045260246000fd5b6000600282049050600182168061424b57607f821691505b60208210810361425e5761425d614204565b5b50919050565b6000606082019050614279600083018661366e565b6142866020830185613f1d565b614293604083018461366e565b949350505050565b7f4e487b7100000000000000000000000000000000000000000000000000000000600052603260045260246000fd5b7f4e487b7100000000000000000000000000000000000000000000000000000000600052601160045260246000fd5b6000614304826135d9565b91507fffffffffffffffffffffffffffffffffffffffffffffffffffffffffffffffff8203614336576143356142ca565b5b600182019050919050565b600081905092915050565b600061435782613527565b6143618185614341565b9350614371818560208601613543565b80840191505092915050565b6000614389828461434c565b915081905092915050565b7f416e206163636f756e7420616c72656164792068617320746869732077616c6c60008201527f6574206164647265737300000000000000000000000000000000000000000000602082015250565b60006143f0602a83613532565b91506143fb82614394565b604082019050919050565b6000602082019050818103600083015261441f816143e3565b9050919050565b7f4e756d626572206f6620776f72647320696e636f6d706c657465206f7220657860008201527f6365656465640000000000000000000000000000000000000000000000000000602082015250565b6000614482602683613532565b915061448d82614426565b604082019050919050565b600060208201905081810360008301526144b181614475565b9050919050565b600080fd5b600080fd5b600080fd5b600080833560016020038436030381126144e4576144e36144b8565b5b80840192508235915067ffffffffffffffff821115614506576145056144bd565b5b602083019250600182023603831315614522576145216144c2565b5b509250929050565b60008190508160005260206000209050919050565b60006020601f8301049050919050565b600082821b905092915050565b60006008830261458c7fffffffffffffffffffffffffffffffffffffffffffffffffffffffffffffffff8261454f565b614596868361454f565b95508019841693508086168417925050509392505050565b6000819050919050565b60006145d36145ce6145c9846135d9565b6145ae565b6135d9565b9050919050565b6000819050919050565b6145ed836145b8565b6146016145f9826145da565b84845461455c565b825550505050565b600090565b614616614609565b6146218184846145e4565b505050565b5b818110156146455761463a60008261460e565b600181019050614627565b5050565b601f82111561468a5761465b8161452a565b6146648461453f565b81016020851015614673578190505b61468761467f8561453f565b830182614626565b50505b505050565b600082821c905092915050565b60006146ad6000198460080261468f565b1980831691505092915050565b60006146c6838361469c565b9150826002028217905092915050565b6146df82613527565b67ffffffffffffffff8111156146f8576146f761375c565b5b6147028254614233565b61470d828285614649565b600060209050601f831160018114614740576000841561472e578287015190505b61473885826146ba565b8655506147a0565b601f19841661474e8661452a565b60005b8281101561477657848901518255600182019150602085019450602081019050614751565b86831015614793578489015161478f601f89168261469c565b8355505b6001600288020188555050505b505050505050565b7f54686973205573657220646f65736e2774206578697374000000000000000000600082015250565b60006147de601783613532565b91506147e9826147a8565b602082019050919050565b6000602082019050818103600083015261480d816147d1565b9050919050565b6000614820828561434c565b915061482c828461434c565b91508190509392505050565b7f696e76616c6964206164647265737320666f72207468652063757272656e742060008201527f6f776e6572000000000000000000000000000000000000000000000000000000602082015250565b6000614894602583613532565b915061489f82614838565b604082019050919050565b600060208201905081810360008301526148c381614887565b9050919050565b600081519050919050565b600082825260208201905092915050565b60006148f1826148ca565b6148fb81856148d5565b935061490b818560208601613543565b6149148161356d565b840191505092915050565b6000608082019050614934600083018761366e565b614941602083018661366e565b61494e6040830185613f1d565b818103606083015261496081846148e6565b905095945050505050565b60008151905061497a81613498565b92915050565b60006020828403121561499657614995613462565b5b60006149a48482850161496b565b91505092915050565b60006040820190506149c2600083018561366e565b6149cf6020830184613f1d565b9392505050565b7f4e487b7100000000000000000000000000000000000000000000000000000000600052601260045260246000fd5b7f4e487b7100000000000000000000000000000000000000000000000000000000600052605160045260246000fdfe636f6e7472616374206f776e65727368697020636c61696d6564207375636365737366756c6c79a26469706673582212207feff579a7635b03bb958b7231d9bc8fe8276469d87920344099bacbcb3ebdc064736f6c63430008140033",
  "linkReferences": {},
  "deployedLinkReferences": {}
}