{
  "_format": "hh-sol-artifact-1",
  "contractName": "CertificateNFT",
  "sourceName": "Contracts/NFT_CertificateContract.sol",
  "abi": [
    {
      "inputs": [
        {
          "internalType": "string",
          "name": "contractname",
          "type": "string"
        },
        {
          "internalType": "string",
          "name": "symbol",
          "type": "string"
        },
        {
          "internalType": "address",
          "name": "_deployerAddress",
          "type": "address"
        },
        {
          "internalType": "address",
          "name": "_UserContractAddress",
          "type": "address"
        }
      ],
      "stateMutability": "nonpayable",
      "type": "constructor"
    },
    {
      "inputs": [
        {
          "internalType": "address",
          "name": "sender",
          "type": "address"
        },
        {
          "internalType": "uint256",
          "name": "tokenId",
          "type": "uint256"
        },
        {
          "internalType": "address",
          "name": "owner",
          "type": "address"
        }
      ],
      "name": "ERC721IncorrectOwner",
      "type": "error"
    },
    {
      "inputs": [
        {
          "internalType": "address",
          "name": "operator",
          "type": "address"
        },
        {
          "internalType": "uint256",
          "name": "tokenId",
          "type": "uint256"
        }
      ],
      "name": "ERC721InsufficientApproval",
      "type": "error"
    },
    {
      "inputs": [
        {
          "internalType": "address",
          "name": "approver",
          "type": "address"
        }
      ],
      "name": "ERC721InvalidApprover",
      "type": "error"
    },
    {
      "inputs": [
        {
          "internalType": "address",
          "name": "operator",
          "type": "address"
        }
      ],
      "name": "ERC721InvalidOperator",
      "type": "error"
    },
    {
      "inputs": [
        {
          "internalType": "address",
          "name": "owner",
          "type": "address"
        }
      ],
      "name": "ERC721InvalidOwner",
      "type": "error"
    },
    {
      "inputs": [
        {
          "internalType": "address",
          "name": "receiver",
          "type": "address"
        }
      ],
      "name": "ERC721InvalidReceiver",
      "type": "error"
    },
    {
      "inputs": [
        {
          "internalType": "address",
          "name": "sender",
          "type": "address"
        }
      ],
      "name": "ERC721InvalidSender",
      "type": "error"
    },
    {
      "inputs": [
        {
          "internalType": "uint256",
          "name": "tokenId",
          "type": "uint256"
        }
      ],
      "name": "ERC721NonexistentToken",
      "type": "error"
    },
    {
      "anonymous": false,
      "inputs": [
        {
          "indexed": true,
          "internalType": "address",
          "name": "owner",
          "type": "address"
        },
        {
          "indexed": true,
          "internalType": "address",
          "name": "approved",
          "type": "address"
        },
        {
          "indexed": true,
          "internalType": "uint256",
          "name": "tokenId",
          "type": "uint256"
        }
      ],
      "name": "Approval",
      "type": "event"
    },
    {
      "anonymous": false,
      "inputs": [
        {
          "indexed": true,
          "internalType": "address",
          "name": "owner",
          "type": "address"
        },
        {
          "indexed": true,
          "internalType": "address",
          "name": "operator",
          "type": "address"
        },
        {
          "indexed": false,
          "internalType": "bool",
          "name": "approved",
          "type": "bool"
        }
      ],
      "name": "ApprovalForAll",
      "type": "event"
    },
    {
      "anonymous": false,
      "inputs": [
        {
          "indexed": false,
          "internalType": "uint256",
          "name": "_fromTokenId",
          "type": "uint256"
        },
        {
          "indexed": false,
          "internalType": "uint256",
          "name": "_toTokenId",
          "type": "uint256"
        }
      ],
      "name": "BatchMetadataUpdate",
      "type": "event"
    },
    {
      "anonymous": false,
      "inputs": [
        {
          "indexed": false,
          "internalType": "uint256",
          "name": "_tokenId",
          "type": "uint256"
        }
      ],
      "name": "MetadataUpdate",
      "type": "event"
    },
    {
      "anonymous": false,
      "inputs": [
        {
          "indexed": true,
          "internalType": "address",
          "name": "from",
          "type": "address"
        },
        {
          "indexed": true,
          "internalType": "address",
          "name": "to",
          "type": "address"
        },
        {
          "indexed": true,
          "internalType": "uint256",
          "name": "tokenId",
          "type": "uint256"
        }
      ],
      "name": "Transfer",
      "type": "event"
    },
    {
      "anonymous": false,
      "inputs": [
        {
          "indexed": false,
          "internalType": "string",
          "name": "",
          "type": "string"
        },
        {
          "indexed": false,
          "internalType": "uint256",
          "name": "",
          "type": "uint256"
        }
      ],
      "name": "log",
      "type": "event"
    },
    {
      "stateMutability": "payable",
      "type": "fallback"
    },
    {
      "inputs": [
        {
          "internalType": "uint256",
          "name": "_tokenId",
          "type": "uint256"
        }
      ],
      "name": "CheckCertificateOwnership",
      "outputs": [],
      "stateMutability": "view",
      "type": "function"
    },
    {
      "inputs": [],
      "name": "GetMintStatus",
      "outputs": [
        {
          "internalType": "string",
          "name": "status",
          "type": "string"
        }
      ],
      "stateMutability": "view",
      "type": "function"
    },
    {
      "inputs": [
        {
          "internalType": "address",
          "name": "_sender",
          "type": "address"
        },
        {
          "internalType": "address",
          "name": "_reciever",
          "type": "address"
        },
        {
          "internalType": "string",
          "name": "_IPFS_Url",
          "type": "string"
        },
        {
          "internalType": "string[12]",
          "name": "_secretPhrase",
          "type": "string[12]"
        }
      ],
      "name": "StoreUploadedCertificate",
      "outputs": [
        {
          "internalType": "bool",
          "name": "",
          "type": "bool"
        }
      ],
      "stateMutability": "payable",
      "type": "function"
    },
    {
      "inputs": [
        {
          "internalType": "string",
          "name": "_status",
          "type": "string"
        }
      ],
      "name": "UpdateMintStatus",
      "outputs": [],
      "stateMutability": "nonpayable",
      "type": "function"
    },
    {
      "inputs": [
        {
          "internalType": "address",
          "name": "",
          "type": "address"
        },
        {
          "internalType": "address",
          "name": "",
          "type": "address"
        }
      ],
      "name": "UploadedCertificates",
      "outputs": [
        {
          "internalType": "string",
          "name": "",
          "type": "string"
        }
      ],
      "stateMutability": "view",
      "type": "function"
    },
    {
      "inputs": [],
      "name": "UserContractAddress",
      "outputs": [
        {
          "internalType": "address payable",
          "name": "",
          "type": "address"
        }
      ],
      "stateMutability": "view",
      "type": "function"
    },
    {
      "inputs": [
        {
          "internalType": "address",
          "name": "_userAddress",
          "type": "address"
        },
        {
          "internalType": "string[12]",
          "name": "_secretPhrase",
          "type": "string[12]"
        }
      ],
      "name": "_AuthenticateUser",
      "outputs": [
        {
          "internalType": "bool",
          "name": "",
          "type": "bool"
        }
      ],
      "stateMutability": "payable",
      "type": "function"
    },
    {
      "inputs": [
        {
          "internalType": "address",
          "name": "_userAddress",
          "type": "address"
        }
      ],
      "name": "_AuthorizeUser",
      "outputs": [
        {
          "internalType": "bool",
          "name": "",
          "type": "bool"
        }
      ],
      "stateMutability": "payable",
      "type": "function"
    },
    {
      "inputs": [
        {
          "internalType": "address",
          "name": "to",
          "type": "address"
        },
        {
          "internalType": "uint256",
          "name": "tokenId",
          "type": "uint256"
        }
      ],
      "name": "approve",
      "outputs": [],
      "stateMutability": "nonpayable",
      "type": "function"
    },
    {
      "inputs": [
        {
          "internalType": "address",
          "name": "owner",
          "type": "address"
        }
      ],
      "name": "balanceOf",
      "outputs": [
        {
          "internalType": "uint256",
          "name": "",
          "type": "uint256"
        }
      ],
      "stateMutability": "view",
      "type": "function"
    },
    {
      "inputs": [],
      "name": "contractDeployer",
      "outputs": [
        {
          "internalType": "address payable",
          "name": "",
          "type": "address"
        }
      ],
      "stateMutability": "view",
      "type": "function"
    },
    {
      "inputs": [
        {
          "internalType": "uint256",
          "name": "tokenId",
          "type": "uint256"
        }
      ],
      "name": "getApproved",
      "outputs": [
        {
          "internalType": "address",
          "name": "",
          "type": "address"
        }
      ],
      "stateMutability": "view",
      "type": "function"
    },
    {
      "inputs": [
        {
          "internalType": "address",
          "name": "owner",
          "type": "address"
        },
        {
          "internalType": "address",
          "name": "operator",
          "type": "address"
        }
      ],
      "name": "isApprovedForAll",
      "outputs": [
        {
          "internalType": "bool",
          "name": "",
          "type": "bool"
        }
      ],
      "stateMutability": "view",
      "type": "function"
    },
    {
      "inputs": [
        {
          "internalType": "address",
          "name": "_to",
          "type": "address"
        },
        {
          "internalType": "uint256",
          "name": "_tokenId",
          "type": "uint256"
        },
        {
          "internalType": "string",
          "name": "_uri",
          "type": "string"
        },
        {
          "internalType": "string[12]",
          "name": "_secretPhrase",
          "type": "string[12]"
        }
      ],
      "name": "mintCertificate",
      "outputs": [],
      "stateMutability": "nonpayable",
      "type": "function"
    },
    {
      "inputs": [],
      "name": "name",
      "outputs": [
        {
          "internalType": "string",
          "name": "",
          "type": "string"
        }
      ],
      "stateMutability": "view",
      "type": "function"
    },
    {
      "inputs": [
        {
          "internalType": "uint256",
          "name": "tokenId",
          "type": "uint256"
        }
      ],
      "name": "ownerOf",
      "outputs": [
        {
          "internalType": "address",
          "name": "",
          "type": "address"
        }
      ],
      "stateMutability": "view",
      "type": "function"
    },
    {
      "inputs": [
        {
          "internalType": "address",
          "name": "from",
          "type": "address"
        },
        {
          "internalType": "address",
          "name": "to",
          "type": "address"
        },
        {
          "internalType": "uint256",
          "name": "tokenId",
          "type": "uint256"
        }
      ],
      "name": "safeTransferFrom",
      "outputs": [],
      "stateMutability": "nonpayable",
      "type": "function"
    },
    {
      "inputs": [
        {
          "internalType": "address",
          "name": "from",
          "type": "address"
        },
        {
          "internalType": "address",
          "name": "to",
          "type": "address"
        },
        {
          "internalType": "uint256",
          "name": "tokenId",
          "type": "uint256"
        },
        {
          "internalType": "bytes",
          "name": "data",
          "type": "bytes"
        }
      ],
      "name": "safeTransferFrom",
      "outputs": [],
      "stateMutability": "nonpayable",
      "type": "function"
    },
    {
      "inputs": [
        {
          "internalType": "address",
          "name": "operator",
          "type": "address"
        },
        {
          "internalType": "bool",
          "name": "approved",
          "type": "bool"
        }
      ],
      "name": "setApprovalForAll",
      "outputs": [],
      "stateMutability": "nonpayable",
      "type": "function"
    },
    {
      "inputs": [
        {
          "internalType": "bytes4",
          "name": "interfaceId",
          "type": "bytes4"
        }
      ],
      "name": "supportsInterface",
      "outputs": [
        {
          "internalType": "bool",
          "name": "",
          "type": "bool"
        }
      ],
      "stateMutability": "view",
      "type": "function"
    },
    {
      "inputs": [],
      "name": "symbol",
      "outputs": [
        {
          "internalType": "string",
          "name": "",
          "type": "string"
        }
      ],
      "stateMutability": "view",
      "type": "function"
    },
    {
      "inputs": [
        {
          "internalType": "uint256",
          "name": "tokenId",
          "type": "uint256"
        }
      ],
      "name": "tokenURI",
      "outputs": [
        {
          "internalType": "string",
          "name": "",
          "type": "string"
        }
      ],
      "stateMutability": "view",
      "type": "function"
    },
    {
      "inputs": [
        {
          "internalType": "address",
          "name": "_to",
          "type": "address"
        },
        {
          "internalType": "address",
          "name": "_from",
          "type": "address"
        },
        {
          "internalType": "uint256",
          "name": "_tokenId",
          "type": "uint256"
        },
        {
          "internalType": "string[12]",
          "name": "_secretPhrase",
          "type": "string[12]"
        }
      ],
      "name": "transferCertificate",
      "outputs": [],
      "stateMutability": "payable",
      "type": "function"
    },
    {
      "inputs": [
        {
          "internalType": "address",
          "name": "from",
          "type": "address"
        },
        {
          "internalType": "address",
          "name": "to",
          "type": "address"
        },
        {
          "internalType": "uint256",
          "name": "tokenId",
          "type": "uint256"
        }
      ],
      "name": "transferFrom",
      "outputs": [],
      "stateMutability": "nonpayable",
      "type": "function"
    },
    {
      "inputs": [
        {
          "internalType": "address",
          "name": "_address",
          "type": "address"
        }
      ],
      "name": "updateContractDeployer",
      "outputs": [],
      "stateMutability": "nonpayable",
      "type": "function"
    },
    {
      "inputs": [],
      "name": "viewContractDeployer",
      "outputs": [
        {
          "internalType": "address",
          "name": "",
          "type": "address"
        }
      ],
      "stateMutability": "view",
      "type": "function"
    },
    {
      "stateMutability": "payable",
      "type": "receive"
    }
  ],
  "bytecode": "0x6080604052600860009054906101000a900473ffffffffffffffffffffffffffffffffffffffff16600b60006101000a81548173ffffffffffffffffffffffffffffffffffffffff021916908373ffffffffffffffffffffffffffffffffffffffff1602179055503480156200007457600080fd5b50604051620040d8380380620040d883398181016040528101906200009a9190620005d1565b83838160009081620000ad9190620008cc565b508060019081620000bf9190620008cc565b505050620001096040518060400160405280600e81526020017f436f6e7472616374204e616d653a000000000000000000000000000000000000815250856200022360201b60201c565b620001506040518060400160405280601081526020017f436f6e74726163742073796d626f6c3a00000000000000000000000000000000815250846200022360201b60201c565b620001976040518060400160405280601281526020017f436f6e7472616374206465706c6f7965723a000000000000000000000000000081525033620002c960201b60201c565b81600760006101000a81548173ffffffffffffffffffffffffffffffffffffffff021916908373ffffffffffffffffffffffffffffffffffffffff16021790555080600860006101000a81548173ffffffffffffffffffffffffffffffffffffffff021916908373ffffffffffffffffffffffffffffffffffffffff1602179055505050505062000ab4565b620002c582826040516024016200023c92919062000a05565b6040516020818303038152906040527f4b5c4277000000000000000000000000000000000000000000000000000000007bffffffffffffffffffffffffffffffffffffffffffffffffffffffff19166020820180517bffffffffffffffffffffffffffffffffffffffffffffffffffffffff83818316178352505050506200036f60201b60201c565b5050565b6200036b8282604051602401620002e292919062000a51565b6040516020818303038152906040527f319af333000000000000000000000000000000000000000000000000000000007bffffffffffffffffffffffffffffffffffffffffffffffffffffffff19166020820180517bffffffffffffffffffffffffffffffffffffffffffffffffffffffff83818316178352505050506200036f60201b60201c565b5050565b6200039581620003906200039860201b6200147a17620003b960201b60201c565b60201c565b50565b60006a636f6e736f6c652e6c6f679050600080835160208501845afa505050565b620003cd60201b6200238317819050919050565b620003d762000a85565b565b6000604051905090565b600080fd5b600080fd5b600080fd5b600080fd5b6000601f19601f8301169050919050565b7f4e487b7100000000000000000000000000000000000000000000000000000000600052604160045260246000fd5b6200044282620003f7565b810181811067ffffffffffffffff8211171562000464576200046362000408565b5b80604052505050565b600062000479620003d9565b905062000487828262000437565b919050565b600067ffffffffffffffff821115620004aa57620004a962000408565b5b620004b582620003f7565b9050602081019050919050565b60005b83811015620004e2578082015181840152602081019050620004c5565b60008484015250505050565b600062000505620004ff846200048c565b6200046d565b905082815260208101848484011115620005245762000523620003f2565b5b62000531848285620004c2565b509392505050565b600082601f830112620005515762000550620003ed565b5b815162000563848260208601620004ee565b91505092915050565b600073ffffffffffffffffffffffffffffffffffffffff82169050919050565b600062000599826200056c565b9050919050565b620005ab816200058c565b8114620005b757600080fd5b50565b600081519050620005cb81620005a0565b92915050565b60008060008060808587031215620005ee57620005ed620003e3565b5b600085015167ffffffffffffffff8111156200060f576200060e620003e8565b5b6200061d8782880162000539565b945050602085015167ffffffffffffffff811115620006415762000640620003e8565b5b6200064f8782880162000539565b93505060406200066287828801620005ba565b92505060606200067587828801620005ba565b91505092959194509250565b600081519050919050565b7f4e487b7100000000000000000000000000000000000000000000000000000000600052602260045260246000fd5b60006002820490506001821680620006d457607f821691505b602082108103620006ea57620006e96200068c565b5b50919050565b60008190508160005260206000209050919050565b60006020601f8301049050919050565b600082821b905092915050565b600060088302620007547fffffffffffffffffffffffffffffffffffffffffffffffffffffffffffffffff8262000715565b62000760868362000715565b95508019841693508086168417925050509392505050565b6000819050919050565b6000819050919050565b6000620007ad620007a7620007a18462000778565b62000782565b62000778565b9050919050565b6000819050919050565b620007c9836200078c565b620007e1620007d882620007b4565b84845462000722565b825550505050565b600090565b620007f8620007e9565b62000805818484620007be565b505050565b5b818110156200082d5762000821600082620007ee565b6001810190506200080b565b5050565b601f8211156200087c576200084681620006f0565b620008518462000705565b8101602085101562000861578190505b62000879620008708562000705565b8301826200080a565b50505b505050565b600082821c905092915050565b6000620008a16000198460080262000881565b1980831691505092915050565b6000620008bc83836200088e565b9150826002028217905092915050565b620008d78262000681565b67ffffffffffffffff811115620008f357620008f262000408565b5b620008ff8254620006bb565b6200090c82828562000831565b600060209050601f8311600181146200094457600084156200092f578287015190505b6200093b8582620008ae565b865550620009ab565b601f1984166200095486620006f0565b60005b828110156200097e5784890151825560018201915060208501945060208101905062000957565b868310156200099e57848901516200099a601f8916826200088e565b8355505b6001600288020188555050505b505050505050565b600082825260208201905092915050565b6000620009d18262000681565b620009dd8185620009b3565b9350620009ef818560208601620004c2565b620009fa81620003f7565b840191505092915050565b6000604082019050818103600083015262000a218185620009c4565b9050818103602083015262000a378184620009c4565b90509392505050565b62000a4b816200058c565b82525050565b6000604082019050818103600083015262000a6d8185620009c4565b905062000a7e602083018462000a40565b9392505050565b7f4e487b7100000000000000000000000000000000000000000000000000000000600052605160045260246000fd5b6136148062000ac46000396000f3fe6080604052600436106101855760003560e01c80636352211e116100d1578063a22cb4651161008a578063ad3292d211610064578063ad3292d2146105f8578063b88d4fde14610623578063c87b56dd1461064c578063e985e9c514610689576101c3565b8063a22cb4651461057b578063a24bfc6e146105a4578063aa595c19146105cf576101c3565b80636352211e1461045257806370a082311461048f5780637b812dac146104cc5780637c8cbf4a146104f5578063808bbf521461052557806395d89b4114610550576101c3565b806342842e0e1161013e5780634ec5cf58116101185780634ec5cf58146103b45780635d104b59146103dd578063618f023c1461040d57806362ae2a9114610429576101c3565b806342842e0e14610323578063464bf87a1461034c5780634e5c4fb314610389576101c3565b806301ffc9a7146101fc57806306fdde0314610239578063081812fc14610264578063095ea7b3146102a157806323b872dd146102ca57806326ee0894146102f3576101c3565b366101c3577fb60e72ccf6d57ab53eb84d7e94a9545806ed7f93c4d5673f11a64f03471e584e346040516101b99190612403565b60405180910390a1005b7fb60e72ccf6d57ab53eb84d7e94a9545806ed7f93c4d5673f11a64f03471e584e346040516101f29190612403565b60405180910390a1005b34801561020857600080fd5b50610223600480360381019061021e919061249d565b6106c6565b60405161023091906124e5565b60405180910390f35b34801561024557600080fd5b5061024e610727565b60405161025b919061257f565b60405180910390f35b34801561027057600080fd5b5061028b600480360381019061028691906125cd565b6107b9565b604051610298919061263b565b60405180910390f35b3480156102ad57600080fd5b506102c860048036038101906102c39190612682565b6107d5565b005b3480156102d657600080fd5b506102f160048036038101906102ec91906126c2565b6107eb565b005b61030d6004803603810190610308919061291e565b6108ed565b60405161031a91906124e5565b60405180910390f35b34801561032f57600080fd5b5061034a600480360381019061034591906126c2565b610a6f565b005b34801561035857600080fd5b50610373600480360381019061036e919061297a565b610a8f565b604051610380919061257f565b60405180910390f35b34801561039557600080fd5b5061039e610b3c565b6040516103ab919061257f565b60405180910390f35b3480156103c057600080fd5b506103db60048036038101906103d691906129ba565b610bce565b005b6103f760048036038101906103f291906129ba565b610c12565b60405161040491906124e5565b60405180910390f35b610427600480360381019061042291906129e7565b610d8b565b005b34801561043557600080fd5b50610450600480360381019061044b91906125cd565b610dc2565b005b34801561045e57600080fd5b50610479600480360381019061047491906125cd565b610dcf565b604051610486919061263b565b60405180910390f35b34801561049b57600080fd5b506104b660048036038101906104b191906129ba565b610de1565b6040516104c39190612a6a565b60405180910390f35b3480156104d857600080fd5b506104f360048036038101906104ee9190612ae0565b610e9b565b005b61050f600480360381019061050a9190612b84565b61108a565b60405161051c91906124e5565b60405180910390f35b34801561053157600080fd5b5061053a611185565b6040516105479190612c44565b60405180910390f35b34801561055c57600080fd5b506105656111ab565b604051610572919061257f565b60405180910390f35b34801561058757600080fd5b506105a2600480360381019061059d9190612c8b565b61123d565b005b3480156105b057600080fd5b506105b9611253565b6040516105c69190612c44565b60405180910390f35b3480156105db57600080fd5b506105f660048036038101906105f19190612ccb565b611279565b005b34801561060457600080fd5b5061060d61128c565b60405161061a919061263b565b60405180910390f35b34801561062f57600080fd5b5061064a60048036038101906106459190612db5565b6112b6565b005b34801561065857600080fd5b50610673600480360381019061066e91906125cd565b6112d3565b604051610680919061257f565b60405180910390f35b34801561069557600080fd5b506106b060048036038101906106ab919061297a565b6113e6565b6040516106bd91906124e5565b60405180910390f35b6000634906490660e01b7bffffffffffffffffffffffffffffffffffffffffffffffffffffffff1916827bffffffffffffffffffffffffffffffffffffffffffffffffffffffff19161480610720575061071f8261149b565b5b9050919050565b60606000805461073690612e67565b80601f016020809104026020016040519081016040528092919081815260200182805461076290612e67565b80156107af5780601f10610784576101008083540402835291602001916107af565b820191906000526020600020905b81548152906001019060200180831161079257829003601f168201915b5050505050905090565b60006107c48261157d565b506107ce82611605565b9050919050565b6107e782826107e2611642565b61164a565b5050565b600073ffffffffffffffffffffffffffffffffffffffff168273ffffffffffffffffffffffffffffffffffffffff160361085d5760006040517f64a0ae92000000000000000000000000000000000000000000000000000000008152600401610854919061263b565b60405180910390fd5b6000610871838361086c611642565b61165c565b90508373ffffffffffffffffffffffffffffffffffffffff168173ffffffffffffffffffffffffffffffffffffffff16146108e7578382826040517f64283d7b0000000000000000000000000000000000000000000000000000000081526004016108de93929190612e98565b60405180910390fd5b50505050565b60008060008484604051602401610905929190612fcf565b6040516020818303038152906040527f2be2ab7f000000000000000000000000000000000000000000000000000000007bffffffffffffffffffffffffffffffffffffffffffffffffffffffff19166020820180517bffffffffffffffffffffffffffffffffffffffffffffffffffffffff83818316178352505050509050600080600860009054906101000a900473ffffffffffffffffffffffffffffffffffffffff1673ffffffffffffffffffffffffffffffffffffffff16836040516109ce9190613046565b6000604051808303816000865af19150503d8060008114610a0b576040519150601f19603f3d011682016040523d82523d6000602084013e610a10565b606091505b509150915060006020820151905082610a5e576040517f08c379a0000000000000000000000000000000000000000000000000000000008152600401610a55906130a9565b60405180910390fd5b809450849550505050505092915050565b610a8a838383604051806020016040528060008152506112b6565b505050565b600a602052816000526040600020602052806000526040600020600091509150508054610abb90612e67565b80601f0160208091040260200160405190810160405280929190818152602001828054610ae790612e67565b8015610b345780601f10610b0957610100808354040283529160200191610b34565b820191906000526020600020905b815481529060010190602001808311610b1757829003601f168201915b505050505081565b606060098054610b4b90612e67565b80601f0160208091040260200160405190810160405280929190818152602001828054610b7790612e67565b8015610bc45780601f10610b9957610100808354040283529160200191610bc4565b820191906000526020600020905b815481529060010190602001808311610ba757829003601f168201915b5050505050905090565b80600760006101000a81548173ffffffffffffffffffffffffffffffffffffffff021916908373ffffffffffffffffffffffffffffffffffffffff16021790555050565b60008082604051602401610c26919061263b565b6040516020818303038152906040527f2cf58ac2000000000000000000000000000000000000000000000000000000007bffffffffffffffffffffffffffffffffffffffffffffffffffffffff19166020820180517bffffffffffffffffffffffffffffffffffffffffffffffffffffffff83818316178352505050509050600080600860009054906101000a900473ffffffffffffffffffffffffffffffffffffffff1673ffffffffffffffffffffffffffffffffffffffff1683604051610cef9190613046565b6000604051808303816000865af19150503d8060008114610d2c576040519150601f19603f3d011682016040523d82523d6000602084013e610d31565b606091505b509150915060006020820151905082610d7f576040517f08c379a0000000000000000000000000000000000000000000000000000000008152600401610d76906130a9565b60405180910390fd5b80945050505050919050565b6000610d9785836108ed565b90506001151581151503610dbb57610daf85846107d5565b610dba848685610a6f565b5b5050505050565b610dcb81610dcf565b5050565b6000610dda8261157d565b9050919050565b60008073ffffffffffffffffffffffffffffffffffffffff168273ffffffffffffffffffffffffffffffffffffffff1603610e545760006040517f89c62b64000000000000000000000000000000000000000000000000000000008152600401610e4b919061263b565b60405180910390fd5b600360008373ffffffffffffffffffffffffffffffffffffffff1673ffffffffffffffffffffffffffffffffffffffff168152602001908152602001600020549050919050565b6000610ea786836108ed565b90506001151581151503611082578383604051602001610ec89291906130f9565b60405160208183030381529060405280519060200120600a6000600760009054906101000a900473ffffffffffffffffffffffffffffffffffffffff1673ffffffffffffffffffffffffffffffffffffffff1673ffffffffffffffffffffffffffffffffffffffff16815260200190815260200160002060008873ffffffffffffffffffffffffffffffffffffffff1673ffffffffffffffffffffffffffffffffffffffff168152602001908152602001600020604051602001610f8c91906131aa565b604051602081830303815290604052805190602001200361104257610fb18686611876565b610fff8585858080601f016020809104026020016040519081016040528093929190818152602001838380828437600081840152601f19601f8201169050808301925050505050505061196f565b61103d6040518060400160405280600781526020017f5375636365737300000000000000000000000000000000000000000000000000815250611279565b611081565b6110806040518060400160405280600681526020017f4661696c65640000000000000000000000000000000000000000000000000000815250611279565b5b5b505050505050565b600080600061109987856108ed565b91506001151582151503611176576110b087610c12565b905060011515811515036111755784600a6000600760009054906101000a900473ffffffffffffffffffffffffffffffffffffffff1673ffffffffffffffffffffffffffffffffffffffff1673ffffffffffffffffffffffffffffffffffffffff16815260200190815260200160002060008873ffffffffffffffffffffffffffffffffffffffff1673ffffffffffffffffffffffffffffffffffffffff16815260200190815260200160002090816111699190613358565b5060019250505061117d565b5b6000925050505b949350505050565b600860009054906101000a900473ffffffffffffffffffffffffffffffffffffffff1681565b6060600180546111ba90612e67565b80601f01602080910402602001604051908101604052809291908181526020018280546111e690612e67565b80156112335780601f1061120857610100808354040283529160200191611233565b820191906000526020600020905b81548152906001019060200180831161121657829003601f168201915b5050505050905090565b61124f611248611642565b83836119cb565b5050565b600760009054906101000a900473ffffffffffffffffffffffffffffffffffffffff1681565b80600990816112889190613358565b5050565b6000600760009054906101000a900473ffffffffffffffffffffffffffffffffffffffff16905090565b6112c18484846107eb565b6112cd84848484611b3a565b50505050565b60606112de8261157d565b5060006006600084815260200190815260200160002080546112ff90612e67565b80601f016020809104026020016040519081016040528092919081815260200182805461132b90612e67565b80156113785780601f1061134d57610100808354040283529160200191611378565b820191906000526020600020905b81548152906001019060200180831161135b57829003601f168201915b505050505090506000611389611cf1565b9050600081510361139e5781925050506113e1565b6000825111156113d35780826040516020016113bb92919061345b565b604051602081830303815290604052925050506113e1565b6113dc84611d08565b925050505b919050565b6000600560008473ffffffffffffffffffffffffffffffffffffffff1673ffffffffffffffffffffffffffffffffffffffff16815260200190815260200160002060008373ffffffffffffffffffffffffffffffffffffffff1673ffffffffffffffffffffffffffffffffffffffff16815260200190815260200160002060009054906101000a900460ff16905092915050565b60006a636f6e736f6c652e6c6f679050600080835160208501845afa505050565b60007f80ac58cd000000000000000000000000000000000000000000000000000000007bffffffffffffffffffffffffffffffffffffffffffffffffffffffff1916827bffffffffffffffffffffffffffffffffffffffffffffffffffffffff1916148061156657507f5b5e139f000000000000000000000000000000000000000000000000000000007bffffffffffffffffffffffffffffffffffffffffffffffffffffffff1916827bffffffffffffffffffffffffffffffffffffffffffffffffffffffff1916145b80611576575061157582611d71565b5b9050919050565b60008061158983611ddb565b9050600073ffffffffffffffffffffffffffffffffffffffff168173ffffffffffffffffffffffffffffffffffffffff16036115fc57826040517f7e2732890000000000000000000000000000000000000000000000000000000081526004016115f39190612a6a565b60405180910390fd5b80915050919050565b60006004600083815260200190815260200160002060009054906101000a900473ffffffffffffffffffffffffffffffffffffffff169050919050565b600033905090565b6116578383836001611e18565b505050565b60008061166884611ddb565b9050600073ffffffffffffffffffffffffffffffffffffffff168373ffffffffffffffffffffffffffffffffffffffff16146116aa576116a9818486611fdd565b5b600073ffffffffffffffffffffffffffffffffffffffff168173ffffffffffffffffffffffffffffffffffffffff161461173b576116ec600085600080611e18565b6001600360008373ffffffffffffffffffffffffffffffffffffffff1673ffffffffffffffffffffffffffffffffffffffff168152602001908152602001600020600082825403925050819055505b600073ffffffffffffffffffffffffffffffffffffffff168573ffffffffffffffffffffffffffffffffffffffff16146117be576001600360008773ffffffffffffffffffffffffffffffffffffffff1673ffffffffffffffffffffffffffffffffffffffff168152602001908152602001600020600082825401925050819055505b846002600086815260200190815260200160002060006101000a81548173ffffffffffffffffffffffffffffffffffffffff021916908373ffffffffffffffffffffffffffffffffffffffff160217905550838573ffffffffffffffffffffffffffffffffffffffff168273ffffffffffffffffffffffffffffffffffffffff167fddf252ad1be2c89b69c2b068fc378daa952ba7f163c4a11628f55a4df523b3ef60405160405180910390a4809150509392505050565b600073ffffffffffffffffffffffffffffffffffffffff168273ffffffffffffffffffffffffffffffffffffffff16036118e85760006040517f64a0ae920000000000000000000000000000000000000000000000000000000081526004016118df919061263b565b60405180910390fd5b60006118f68383600061165c565b9050600073ffffffffffffffffffffffffffffffffffffffff168173ffffffffffffffffffffffffffffffffffffffff161461196a5760006040517f73c6ac6e000000000000000000000000000000000000000000000000000000008152600401611961919061263b565b60405180910390fd5b505050565b8060066000848152602001908152602001600020908161198f9190613358565b507ff8e1a15aba9398e019f0b49df1a4fde98ee17ae345cb5f6b5e2c27f5033e8ce7826040516119bf9190612a6a565b60405180910390a15050565b600073ffffffffffffffffffffffffffffffffffffffff168273ffffffffffffffffffffffffffffffffffffffff1603611a3c57816040517f5b08ba18000000000000000000000000000000000000000000000000000000008152600401611a33919061263b565b60405180910390fd5b80600560008573ffffffffffffffffffffffffffffffffffffffff1673ffffffffffffffffffffffffffffffffffffffff16815260200190815260200160002060008473ffffffffffffffffffffffffffffffffffffffff1673ffffffffffffffffffffffffffffffffffffffff16815260200190815260200160002060006101000a81548160ff0219169083151502179055508173ffffffffffffffffffffffffffffffffffffffff168373ffffffffffffffffffffffffffffffffffffffff167f17307eab39ab6107e8899845ad3d59bd9653f200f220920489ca2b5937696c3183604051611b2d91906124e5565b60405180910390a3505050565b60008373ffffffffffffffffffffffffffffffffffffffff163b1115611ceb578273ffffffffffffffffffffffffffffffffffffffff1663150b7a02611b7e611642565b8685856040518563ffffffff1660e01b8152600401611ba094939291906134c9565b6020604051808303816000875af1925050508015611bdc57506040513d601f19601f82011682018060405250810190611bd9919061352a565b60015b611c60573d8060008114611c0c576040519150601f19603f3d011682016040523d82523d6000602084013e611c11565b606091505b506000815103611c5857836040517f64a0ae92000000000000000000000000000000000000000000000000000000008152600401611c4f919061263b565b60405180910390fd5b805181602001fd5b63150b7a0260e01b7bffffffffffffffffffffffffffffffffffffffffffffffffffffffff1916817bffffffffffffffffffffffffffffffffffffffffffffffffffffffff191614611ce957836040517f64a0ae92000000000000000000000000000000000000000000000000000000008152600401611ce0919061263b565b60405180910390fd5b505b50505050565b606060405180602001604052806000815250905090565b6060611d138261157d565b506000611d1e611cf1565b90506000815111611d3e5760405180602001604052806000815250611d69565b80611d48846120a1565b604051602001611d5992919061345b565b6040516020818303038152906040525b915050919050565b60007f01ffc9a7000000000000000000000000000000000000000000000000000000007bffffffffffffffffffffffffffffffffffffffffffffffffffffffff1916827bffffffffffffffffffffffffffffffffffffffffffffffffffffffff1916149050919050565b60006002600083815260200190815260200160002060009054906101000a900473ffffffffffffffffffffffffffffffffffffffff169050919050565b8080611e515750600073ffffffffffffffffffffffffffffffffffffffff168273ffffffffffffffffffffffffffffffffffffffff1614155b15611f85576000611e618461157d565b9050600073ffffffffffffffffffffffffffffffffffffffff168373ffffffffffffffffffffffffffffffffffffffff1614158015611ecc57508273ffffffffffffffffffffffffffffffffffffffff168173ffffffffffffffffffffffffffffffffffffffff1614155b8015611edf5750611edd81846113e6565b155b15611f2157826040517fa9fbf51f000000000000000000000000000000000000000000000000000000008152600401611f18919061263b565b60405180910390fd5b8115611f8357838573ffffffffffffffffffffffffffffffffffffffff168273ffffffffffffffffffffffffffffffffffffffff167f8c5be1e5ebec7d5bd14f71427d1e84f3dd0314c0f7b2291e5b200ac8c7c3b92560405160405180910390a45b505b836004600085815260200190815260200160002060006101000a81548173ffffffffffffffffffffffffffffffffffffffff021916908373ffffffffffffffffffffffffffffffffffffffff16021790555050505050565b611fe883838361216f565b61209c57600073ffffffffffffffffffffffffffffffffffffffff168373ffffffffffffffffffffffffffffffffffffffff160361205d57806040517f7e2732890000000000000000000000000000000000000000000000000000000081526004016120549190612a6a565b60405180910390fd5b81816040517f177e802f000000000000000000000000000000000000000000000000000000008152600401612093929190613557565b60405180910390fd5b505050565b6060600060016120b084612230565b01905060008167ffffffffffffffff8111156120cf576120ce61271a565b5b6040519080825280601f01601f1916602001820160405280156121015781602001600182028036833780820191505090505b509050600082602001820190505b600115612164578080600190039150507f3031323334353637383961626364656600000000000000000000000000000000600a86061a8153600a858161215857612157613580565b5b0494506000850361210f575b819350505050919050565b60008073ffffffffffffffffffffffffffffffffffffffff168373ffffffffffffffffffffffffffffffffffffffff161415801561222757508273ffffffffffffffffffffffffffffffffffffffff168473ffffffffffffffffffffffffffffffffffffffff1614806121e857506121e784846113e6565b5b8061222657508273ffffffffffffffffffffffffffffffffffffffff1661220e83611605565b73ffffffffffffffffffffffffffffffffffffffff16145b5b90509392505050565b600080600090507a184f03e93ff9f4daa797ed6e38ed64bf6a1f010000000000000000831061228e577a184f03e93ff9f4daa797ed6e38ed64bf6a1f010000000000000000838161228457612283613580565b5b0492506040810190505b6d04ee2d6d415b85acef810000000083106122cb576d04ee2d6d415b85acef810000000083816122c1576122c0613580565b5b0492506020810190505b662386f26fc1000083106122fa57662386f26fc1000083816122f0576122ef613580565b5b0492506010810190505b6305f5e1008310612323576305f5e100838161231957612318613580565b5b0492506008810190505b612710831061234857612710838161233e5761233d613580565b5b0492506004810190505b6064831061236b576064838161236157612360613580565b5b0492506002810190505b600a831061237a576001810190505b80915050919050565b61238b6135af565b565b600082825260208201905092915050565b7f416d6f756e742072656369657665640000000000000000000000000000000000600082015250565b60006123d4600f8361238d565b91506123df8261239e565b602082019050919050565b6000819050919050565b6123fd816123ea565b82525050565b6000604082019050818103600083015261241c816123c7565b905061242b60208301846123f4565b92915050565b6000604051905090565b600080fd5b600080fd5b60007fffffffff0000000000000000000000000000000000000000000000000000000082169050919050565b61247a81612445565b811461248557600080fd5b50565b60008135905061249781612471565b92915050565b6000602082840312156124b3576124b261243b565b5b60006124c184828501612488565b91505092915050565b60008115159050919050565b6124df816124ca565b82525050565b60006020820190506124fa60008301846124d6565b92915050565b600081519050919050565b60005b8381101561252957808201518184015260208101905061250e565b60008484015250505050565b6000601f19601f8301169050919050565b600061255182612500565b61255b818561238d565b935061256b81856020860161250b565b61257481612535565b840191505092915050565b600060208201905081810360008301526125998184612546565b905092915050565b6125aa816123ea565b81146125b557600080fd5b50565b6000813590506125c7816125a1565b92915050565b6000602082840312156125e3576125e261243b565b5b60006125f1848285016125b8565b91505092915050565b600073ffffffffffffffffffffffffffffffffffffffff82169050919050565b6000612625826125fa565b9050919050565b6126358161261a565b82525050565b6000602082019050612650600083018461262c565b92915050565b61265f8161261a565b811461266a57600080fd5b50565b60008135905061267c81612656565b92915050565b600080604083850312156126995761269861243b565b5b60006126a78582860161266d565b92505060206126b8858286016125b8565b9150509250929050565b6000806000606084860312156126db576126da61243b565b5b60006126e98682870161266d565b93505060206126fa8682870161266d565b925050604061270b868287016125b8565b9150509250925092565b600080fd5b7f4e487b7100000000000000000000000000000000000000000000000000000000600052604160045260246000fd5b61275282612535565b810181811067ffffffffffffffff821117156127715761277061271a565b5b80604052505050565b6000612784612431565b90506127908282612749565b919050565b600067ffffffffffffffff8211156127b0576127af61271a565b5b602082029050919050565b600080fd5b600080fd5b600067ffffffffffffffff8211156127e0576127df61271a565b5b6127e982612535565b9050602081019050919050565b82818337600083830152505050565b6000612818612813846127c5565b61277a565b905082815260208101848484011115612834576128336127c0565b5b61283f8482856127f6565b509392505050565b600082601f83011261285c5761285b612715565b5b813561286c848260208601612805565b91505092915050565b600061288861288384612795565b61277a565b905080602084028301858111156128a2576128a16127bb565b5b835b818110156128e957803567ffffffffffffffff8111156128c7576128c6612715565b5b8086016128d48982612847565b855260208501945050506020810190506128a4565b5050509392505050565b600082601f83011261290857612907612715565b5b600c612915848285612875565b91505092915050565b600080604083850312156129355761293461243b565b5b60006129438582860161266d565b925050602083013567ffffffffffffffff81111561296457612963612440565b5b612970858286016128f3565b9150509250929050565b600080604083850312156129915761299061243b565b5b600061299f8582860161266d565b92505060206129b08582860161266d565b9150509250929050565b6000602082840312156129d0576129cf61243b565b5b60006129de8482850161266d565b91505092915050565b60008060008060808587031215612a0157612a0061243b565b5b6000612a0f8782880161266d565b9450506020612a208782880161266d565b9350506040612a31878288016125b8565b925050606085013567ffffffffffffffff811115612a5257612a51612440565b5b612a5e878288016128f3565b91505092959194509250565b6000602082019050612a7f60008301846123f4565b92915050565b600080fd5b60008083601f840112612aa057612a9f612715565b5b8235905067ffffffffffffffff811115612abd57612abc612a85565b5b602083019150836001820283011115612ad957612ad86127bb565b5b9250929050565b600080600080600060808688031215612afc57612afb61243b565b5b6000612b0a8882890161266d565b9550506020612b1b888289016125b8565b945050604086013567ffffffffffffffff811115612b3c57612b3b612440565b5b612b4888828901612a8a565b9350935050606086013567ffffffffffffffff811115612b6b57612b6a612440565b5b612b77888289016128f3565b9150509295509295909350565b60008060008060808587031215612b9e57612b9d61243b565b5b6000612bac8782880161266d565b9450506020612bbd8782880161266d565b935050604085013567ffffffffffffffff811115612bde57612bdd612440565b5b612bea87828801612847565b925050606085013567ffffffffffffffff811115612c0b57612c0a612440565b5b612c17878288016128f3565b91505092959194509250565b6000612c2e826125fa565b9050919050565b612c3e81612c23565b82525050565b6000602082019050612c596000830184612c35565b92915050565b612c68816124ca565b8114612c7357600080fd5b50565b600081359050612c8581612c5f565b92915050565b60008060408385031215612ca257612ca161243b565b5b6000612cb08582860161266d565b9250506020612cc185828601612c76565b9150509250929050565b600060208284031215612ce157612ce061243b565b5b600082013567ffffffffffffffff811115612cff57612cfe612440565b5b612d0b84828501612847565b91505092915050565b600067ffffffffffffffff821115612d2f57612d2e61271a565b5b612d3882612535565b9050602081019050919050565b6000612d58612d5384612d14565b61277a565b905082815260208101848484011115612d7457612d736127c0565b5b612d7f8482856127f6565b509392505050565b600082601f830112612d9c57612d9b612715565b5b8135612dac848260208601612d45565b91505092915050565b60008060008060808587031215612dcf57612dce61243b565b5b6000612ddd8782880161266d565b9450506020612dee8782880161266d565b9350506040612dff878288016125b8565b925050606085013567ffffffffffffffff811115612e2057612e1f612440565b5b612e2c87828801612d87565b91505092959194509250565b7f4e487b7100000000000000000000000000000000000000000000000000000000600052602260045260246000fd5b60006002820490506001821680612e7f57607f821691505b602082108103612e9257612e91612e38565b5b50919050565b6000606082019050612ead600083018661262c565b612eba60208301856123f4565b612ec7604083018461262c565b949350505050565b6000600c9050919050565b600081905092915050565b6000819050919050565b600082825260208201905092915050565b6000612f0b82612500565b612f158185612eef565b9350612f2581856020860161250b565b612f2e81612535565b840191505092915050565b6000612f458383612f00565b905092915050565b6000602082019050919050565b6000612f6582612ecf565b612f6f8185612eda565b935083602082028501612f8185612ee5565b8060005b85811015612fbd5784840389528151612f9e8582612f39565b9450612fa983612f4d565b925060208a01995050600181019050612f85565b50829750879550505050505092915050565b6000604082019050612fe4600083018561262c565b8181036020830152612ff68184612f5a565b90509392505050565b600081519050919050565b600081905092915050565b600061302082612fff565b61302a818561300a565b935061303a81856020860161250b565b80840191505092915050565b60006130528284613015565b915081905092915050565b7f46756e6374696f6e2063616c6c206661696c6564000000000000000000000000600082015250565b600061309360148361238d565b915061309e8261305d565b602082019050919050565b600060208201905081810360008301526130c281613086565b9050919050565b600081905092915050565b60006130e083856130c9565b93506130ed8385846127f6565b82840190509392505050565b60006131068284866130d4565b91508190509392505050565b60008190508160005260206000209050919050565b6000815461313481612e67565b61313e81866130c9565b94506001821660008114613159576001811461316e576131a1565b60ff19831686528115158202860193506131a1565b61317785613112565b60005b838110156131995781548189015260018201915060208101905061317a565b838801955050505b50505092915050565b60006131b68284613127565b915081905092915050565b60006020601f8301049050919050565b600082821b905092915050565b60006008830261320e7fffffffffffffffffffffffffffffffffffffffffffffffffffffffffffffffff826131d1565b61321886836131d1565b95508019841693508086168417925050509392505050565b6000819050919050565b600061325561325061324b846123ea565b613230565b6123ea565b9050919050565b6000819050919050565b61326f8361323a565b61328361327b8261325c565b8484546131de565b825550505050565b600090565b61329861328b565b6132a3818484613266565b505050565b5b818110156132c7576132bc600082613290565b6001810190506132a9565b5050565b601f82111561330c576132dd81613112565b6132e6846131c1565b810160208510156132f5578190505b613309613301856131c1565b8301826132a8565b50505b505050565b600082821c905092915050565b600061332f60001984600802613311565b1980831691505092915050565b6000613348838361331e565b9150826002028217905092915050565b61336182612500565b67ffffffffffffffff81111561337a5761337961271a565b5b6133848254612e67565b61338f8282856132cb565b600060209050601f8311600181146133c257600084156133b0578287015190505b6133ba858261333c565b865550613422565b601f1984166133d086613112565b60005b828110156133f8578489015182556001820191506020850194506020810190506133d3565b868310156134155784890151613411601f89168261331e565b8355505b6001600288020188555050505b505050505050565b600061343582612500565b61343f81856130c9565b935061344f81856020860161250b565b80840191505092915050565b6000613467828561342a565b9150613473828461342a565b91508190509392505050565b600082825260208201905092915050565b600061349b82612fff565b6134a5818561347f565b93506134b581856020860161250b565b6134be81612535565b840191505092915050565b60006080820190506134de600083018761262c565b6134eb602083018661262c565b6134f860408301856123f4565b818103606083015261350a8184613490565b905095945050505050565b60008151905061352481612471565b92915050565b6000602082840312156135405761353f61243b565b5b600061354e84828501613515565b91505092915050565b600060408201905061356c600083018561262c565b61357960208301846123f4565b9392505050565b7f4e487b7100000000000000000000000000000000000000000000000000000000600052601260045260246000fd5b7f4e487b7100000000000000000000000000000000000000000000000000000000600052605160045260246000fdfea2646970667358221220ca3635f3456c1c2e325097a18d8bc59efc400c4c1c60d489ace7338a3e243e7364736f6c63430008140033",
  "linkReferences": {},
  "deployedLinkReferences": {}
}