{
  "_format": "hh-sol-artifact-1",
  "contractName": "CertificateNFT",
  "sourceName": "Contracts/NFT_CertificateContract.sol",
  "abi": [
    {
      "inputs": [
        {
          "internalType": "string",
          "name": "contractname",
          "type": "string"
        },
        {
          "internalType": "string",
          "name": "symbol",
          "type": "string"
        }
      ],
      "stateMutability": "nonpayable",
      "type": "constructor"
    },
    {
      "inputs": [
        {
          "internalType": "address",
          "name": "sender",
          "type": "address"
        },
        {
          "internalType": "uint256",
          "name": "tokenId",
          "type": "uint256"
        },
        {
          "internalType": "address",
          "name": "owner",
          "type": "address"
        }
      ],
      "name": "ERC721IncorrectOwner",
      "type": "error"
    },
    {
      "inputs": [
        {
          "internalType": "address",
          "name": "operator",
          "type": "address"
        },
        {
          "internalType": "uint256",
          "name": "tokenId",
          "type": "uint256"
        }
      ],
      "name": "ERC721InsufficientApproval",
      "type": "error"
    },
    {
      "inputs": [
        {
          "internalType": "address",
          "name": "approver",
          "type": "address"
        }
      ],
      "name": "ERC721InvalidApprover",
      "type": "error"
    },
    {
      "inputs": [
        {
          "internalType": "address",
          "name": "operator",
          "type": "address"
        }
      ],
      "name": "ERC721InvalidOperator",
      "type": "error"
    },
    {
      "inputs": [
        {
          "internalType": "address",
          "name": "owner",
          "type": "address"
        }
      ],
      "name": "ERC721InvalidOwner",
      "type": "error"
    },
    {
      "inputs": [
        {
          "internalType": "address",
          "name": "receiver",
          "type": "address"
        }
      ],
      "name": "ERC721InvalidReceiver",
      "type": "error"
    },
    {
      "inputs": [
        {
          "internalType": "address",
          "name": "sender",
          "type": "address"
        }
      ],
      "name": "ERC721InvalidSender",
      "type": "error"
    },
    {
      "inputs": [
        {
          "internalType": "uint256",
          "name": "tokenId",
          "type": "uint256"
        }
      ],
      "name": "ERC721NonexistentToken",
      "type": "error"
    },
    {
      "anonymous": false,
      "inputs": [
        {
          "indexed": true,
          "internalType": "address",
          "name": "owner",
          "type": "address"
        },
        {
          "indexed": true,
          "internalType": "address",
          "name": "approved",
          "type": "address"
        },
        {
          "indexed": true,
          "internalType": "uint256",
          "name": "tokenId",
          "type": "uint256"
        }
      ],
      "name": "Approval",
      "type": "event"
    },
    {
      "anonymous": false,
      "inputs": [
        {
          "indexed": true,
          "internalType": "address",
          "name": "owner",
          "type": "address"
        },
        {
          "indexed": true,
          "internalType": "address",
          "name": "operator",
          "type": "address"
        },
        {
          "indexed": false,
          "internalType": "bool",
          "name": "approved",
          "type": "bool"
        }
      ],
      "name": "ApprovalForAll",
      "type": "event"
    },
    {
      "anonymous": false,
      "inputs": [
        {
          "indexed": false,
          "internalType": "uint256",
          "name": "_fromTokenId",
          "type": "uint256"
        },
        {
          "indexed": false,
          "internalType": "uint256",
          "name": "_toTokenId",
          "type": "uint256"
        }
      ],
      "name": "BatchMetadataUpdate",
      "type": "event"
    },
    {
      "anonymous": false,
      "inputs": [
        {
          "indexed": false,
          "internalType": "uint256",
          "name": "_tokenId",
          "type": "uint256"
        }
      ],
      "name": "MetadataUpdate",
      "type": "event"
    },
    {
      "anonymous": false,
      "inputs": [
        {
          "indexed": true,
          "internalType": "address",
          "name": "from",
          "type": "address"
        },
        {
          "indexed": true,
          "internalType": "address",
          "name": "to",
          "type": "address"
        },
        {
          "indexed": true,
          "internalType": "uint256",
          "name": "tokenId",
          "type": "uint256"
        }
      ],
      "name": "Transfer",
      "type": "event"
    },
    {
      "inputs": [
        {
          "internalType": "uint256",
          "name": "_tokenId",
          "type": "uint256"
        }
      ],
      "name": "CheckCertificateOwnership",
      "outputs": [],
      "stateMutability": "view",
      "type": "function"
    },
    {
      "inputs": [],
      "name": "GetMintStatus",
      "outputs": [
        {
          "internalType": "string",
          "name": "status",
          "type": "string"
        }
      ],
      "stateMutability": "view",
      "type": "function"
    },
    {
      "inputs": [
        {
          "internalType": "string",
          "name": "_status",
          "type": "string"
        }
      ],
      "name": "UpdateMintStatus",
      "outputs": [],
      "stateMutability": "nonpayable",
      "type": "function"
    },
    {
      "inputs": [],
      "name": "_owner",
      "outputs": [
        {
          "internalType": "address",
          "name": "",
          "type": "address"
        }
      ],
      "stateMutability": "view",
      "type": "function"
    },
    {
      "inputs": [
        {
          "internalType": "address",
          "name": "to",
          "type": "address"
        },
        {
          "internalType": "uint256",
          "name": "tokenId",
          "type": "uint256"
        }
      ],
      "name": "approve",
      "outputs": [],
      "stateMutability": "nonpayable",
      "type": "function"
    },
    {
      "inputs": [
        {
          "internalType": "address",
          "name": "owner",
          "type": "address"
        }
      ],
      "name": "balanceOf",
      "outputs": [
        {
          "internalType": "uint256",
          "name": "",
          "type": "uint256"
        }
      ],
      "stateMutability": "view",
      "type": "function"
    },
    {
      "inputs": [
        {
          "internalType": "address",
          "name": "new_owner",
          "type": "address"
        },
        {
          "internalType": "address",
          "name": "old_owner",
          "type": "address"
        }
      ],
      "name": "claimOwnership",
      "outputs": [
        {
          "internalType": "string",
          "name": "",
          "type": "string"
        }
      ],
      "stateMutability": "nonpayable",
      "type": "function"
    },
    {
      "inputs": [
        {
          "internalType": "string",
          "name": "_first_name",
          "type": "string"
        },
        {
          "internalType": "string",
          "name": "_last_name",
          "type": "string"
        },
        {
          "internalType": "string",
          "name": "_username",
          "type": "string"
        },
        {
          "internalType": "address",
          "name": "_wallet_address",
          "type": "address"
        },
        {
          "internalType": "enum Users.group",
          "name": "userType",
          "type": "uint8"
        },
        {
          "internalType": "string[12]",
          "name": "_secretPhrase",
          "type": "string[12]"
        },
        {
          "internalType": "string",
          "name": "_email_address",
          "type": "string"
        }
      ],
      "name": "createUser",
      "outputs": [
        {
          "components": [
            {
              "internalType": "string",
              "name": "first_name",
              "type": "string"
            },
            {
              "internalType": "string",
              "name": "last_name",
              "type": "string"
            },
            {
              "internalType": "string",
              "name": "username",
              "type": "string"
            },
            {
              "internalType": "string",
              "name": "email_address",
              "type": "string"
            },
            {
              "internalType": "address",
              "name": "walletAddress",
              "type": "address"
            },
            {
              "internalType": "enum Users.group",
              "name": "userGroup",
              "type": "uint8"
            },
            {
              "components": [
                {
                  "internalType": "string",
                  "name": "Title",
                  "type": "string"
                }
              ],
              "internalType": "struct Users.Collections",
              "name": "NFT_Collections",
              "type": "tuple"
            },
            {
              "components": [
                {
                  "internalType": "string[12]",
                  "name": "words",
                  "type": "string[12]"
                }
              ],
              "internalType": "struct Users.Phrase",
              "name": "secret_phrase",
              "type": "tuple"
            }
          ],
          "internalType": "struct Users.User",
          "name": "",
          "type": "tuple"
        }
      ],
      "stateMutability": "nonpayable",
      "type": "function"
    },
    {
      "inputs": [
        {
          "internalType": "uint256",
          "name": "index",
          "type": "uint256"
        }
      ],
      "name": "deleteUser",
      "outputs": [
        {
          "internalType": "string",
          "name": "",
          "type": "string"
        }
      ],
      "stateMutability": "nonpayable",
      "type": "function"
    },
    {
      "inputs": [
        {
          "internalType": "uint256",
          "name": "tokenId",
          "type": "uint256"
        }
      ],
      "name": "getApproved",
      "outputs": [
        {
          "internalType": "address",
          "name": "",
          "type": "address"
        }
      ],
      "stateMutability": "view",
      "type": "function"
    },
    {
      "inputs": [],
      "name": "getTotalUser",
      "outputs": [
        {
          "internalType": "uint256",
          "name": "",
          "type": "uint256"
        }
      ],
      "stateMutability": "view",
      "type": "function"
    },
    {
      "inputs": [
        {
          "internalType": "uint256",
          "name": "index",
          "type": "uint256"
        }
      ],
      "name": "getUser",
      "outputs": [
        {
          "components": [
            {
              "internalType": "string",
              "name": "first_name",
              "type": "string"
            },
            {
              "internalType": "string",
              "name": "last_name",
              "type": "string"
            },
            {
              "internalType": "string",
              "name": "username",
              "type": "string"
            },
            {
              "internalType": "string",
              "name": "email_address",
              "type": "string"
            },
            {
              "internalType": "address",
              "name": "walletAddress",
              "type": "address"
            },
            {
              "internalType": "enum Users.group",
              "name": "userGroup",
              "type": "uint8"
            },
            {
              "components": [
                {
                  "internalType": "string",
                  "name": "Title",
                  "type": "string"
                }
              ],
              "internalType": "struct Users.Collections",
              "name": "NFT_Collections",
              "type": "tuple"
            },
            {
              "components": [
                {
                  "internalType": "string[12]",
                  "name": "words",
                  "type": "string[12]"
                }
              ],
              "internalType": "struct Users.Phrase",
              "name": "secret_phrase",
              "type": "tuple"
            }
          ],
          "internalType": "struct Users.User",
          "name": "",
          "type": "tuple"
        }
      ],
      "stateMutability": "view",
      "type": "function"
    },
    {
      "inputs": [
        {
          "internalType": "address",
          "name": "owner",
          "type": "address"
        },
        {
          "internalType": "address",
          "name": "operator",
          "type": "address"
        }
      ],
      "name": "isApprovedForAll",
      "outputs": [
        {
          "internalType": "bool",
          "name": "",
          "type": "bool"
        }
      ],
      "stateMutability": "view",
      "type": "function"
    },
    {
      "inputs": [
        {
          "internalType": "address",
          "name": "_to",
          "type": "address"
        },
        {
          "internalType": "uint256",
          "name": "_tokenId",
          "type": "uint256"
        },
        {
          "internalType": "string",
          "name": "_uri",
          "type": "string"
        }
      ],
      "name": "mintCertificate",
      "outputs": [],
      "stateMutability": "nonpayable",
      "type": "function"
    },
    {
      "inputs": [],
      "name": "name",
      "outputs": [
        {
          "internalType": "string",
          "name": "",
          "type": "string"
        }
      ],
      "stateMutability": "view",
      "type": "function"
    },
    {
      "inputs": [
        {
          "internalType": "uint256",
          "name": "tokenId",
          "type": "uint256"
        }
      ],
      "name": "ownerOf",
      "outputs": [
        {
          "internalType": "address",
          "name": "",
          "type": "address"
        }
      ],
      "stateMutability": "view",
      "type": "function"
    },
    {
      "inputs": [
        {
          "internalType": "address",
          "name": "from",
          "type": "address"
        },
        {
          "internalType": "address",
          "name": "to",
          "type": "address"
        },
        {
          "internalType": "uint256",
          "name": "tokenId",
          "type": "uint256"
        }
      ],
      "name": "safeTransferFrom",
      "outputs": [],
      "stateMutability": "nonpayable",
      "type": "function"
    },
    {
      "inputs": [
        {
          "internalType": "address",
          "name": "from",
          "type": "address"
        },
        {
          "internalType": "address",
          "name": "to",
          "type": "address"
        },
        {
          "internalType": "uint256",
          "name": "tokenId",
          "type": "uint256"
        },
        {
          "internalType": "bytes",
          "name": "data",
          "type": "bytes"
        }
      ],
      "name": "safeTransferFrom",
      "outputs": [],
      "stateMutability": "nonpayable",
      "type": "function"
    },
    {
      "inputs": [
        {
          "internalType": "address",
          "name": "operator",
          "type": "address"
        },
        {
          "internalType": "bool",
          "name": "approved",
          "type": "bool"
        }
      ],
      "name": "setApprovalForAll",
      "outputs": [],
      "stateMutability": "nonpayable",
      "type": "function"
    },
    {
      "inputs": [
        {
          "internalType": "bytes4",
          "name": "interfaceId",
          "type": "bytes4"
        }
      ],
      "name": "supportsInterface",
      "outputs": [
        {
          "internalType": "bool",
          "name": "",
          "type": "bool"
        }
      ],
      "stateMutability": "view",
      "type": "function"
    },
    {
      "inputs": [],
      "name": "symbol",
      "outputs": [
        {
          "internalType": "string",
          "name": "",
          "type": "string"
        }
      ],
      "stateMutability": "view",
      "type": "function"
    },
    {
      "inputs": [
        {
          "internalType": "uint256",
          "name": "tokenId",
          "type": "uint256"
        }
      ],
      "name": "tokenURI",
      "outputs": [
        {
          "internalType": "string",
          "name": "",
          "type": "string"
        }
      ],
      "stateMutability": "view",
      "type": "function"
    },
    {
      "inputs": [
        {
          "internalType": "address",
          "name": "_to",
          "type": "address"
        },
        {
          "internalType": "address",
          "name": "_from",
          "type": "address"
        },
        {
          "internalType": "uint256",
          "name": "_tokenId",
          "type": "uint256"
        }
      ],
      "name": "transferCertificate",
      "outputs": [],
      "stateMutability": "nonpayable",
      "type": "function"
    },
    {
      "inputs": [
        {
          "internalType": "address",
          "name": "from",
          "type": "address"
        },
        {
          "internalType": "address",
          "name": "to",
          "type": "address"
        },
        {
          "internalType": "uint256",
          "name": "tokenId",
          "type": "uint256"
        }
      ],
      "name": "transferFrom",
      "outputs": [],
      "stateMutability": "nonpayable",
      "type": "function"
    },
    {
      "inputs": [
        {
          "internalType": "address",
          "name": "_address",
          "type": "address"
        }
      ],
      "name": "updateContractDeployer",
      "outputs": [],
      "stateMutability": "nonpayable",
      "type": "function"
    },
    {
      "inputs": [],
      "name": "viewContractDeployer",
      "outputs": [
        {
          "internalType": "address",
          "name": "",
          "type": "address"
        }
      ],
      "stateMutability": "view",
      "type": "function"
    }
  ],
  "bytecode": "0x60806040523480156200001157600080fd5b5060405162004d4838038062004d48833981810160405281019062000037919062000485565b818181600090816200004a919062000755565b5080600190816200005c919062000755565b505050620000a66040518060400160405280600e81526020017f436f6e7472616374204e616d653a000000000000000000000000000000000000815250836200013c60201b60201c565b620000ed6040518060400160405280601081526020017f436f6e74726163742073796d626f6c3a00000000000000000000000000000000815250826200013c60201b60201c565b620001346040518060400160405280601281526020017f436f6e7472616374206465706c6f7965723a000000000000000000000000000081525033620001e260201b60201c565b505062000971565b620001de8282604051602401620001559291906200088e565b6040516020818303038152906040527f4b5c4277000000000000000000000000000000000000000000000000000000007bffffffffffffffffffffffffffffffffffffffffffffffffffffffff19166020820180517bffffffffffffffffffffffffffffffffffffffffffffffffffffffff83818316178352505050506200028860201b60201c565b5050565b620002848282604051602401620001fb9291906200090e565b6040516020818303038152906040527f319af333000000000000000000000000000000000000000000000000000000007bffffffffffffffffffffffffffffffffffffffffffffffffffffffff19166020820180517bffffffffffffffffffffffffffffffffffffffffffffffffffffffff83818316178352505050506200028860201b60201c565b5050565b620002ae81620002a9620002b160201b62001ce617620002d260201b60201c565b60201c565b50565b60006a636f6e736f6c652e6c6f679050600080835160208501845afa505050565b620002e660201b62002bef17819050919050565b620002f062000942565b565b6000604051905090565b600080fd5b600080fd5b600080fd5b600080fd5b6000601f19601f8301169050919050565b7f4e487b7100000000000000000000000000000000000000000000000000000000600052604160045260246000fd5b6200035b8262000310565b810181811067ffffffffffffffff821117156200037d576200037c62000321565b5b80604052505050565b600062000392620002f2565b9050620003a0828262000350565b919050565b600067ffffffffffffffff821115620003c357620003c262000321565b5b620003ce8262000310565b9050602081019050919050565b60005b83811015620003fb578082015181840152602081019050620003de565b60008484015250505050565b60006200041e6200041884620003a5565b62000386565b9050828152602081018484840111156200043d576200043c6200030b565b5b6200044a848285620003db565b509392505050565b600082601f8301126200046a576200046962000306565b5b81516200047c84826020860162000407565b91505092915050565b600080604083850312156200049f576200049e620002fc565b5b600083015167ffffffffffffffff811115620004c057620004bf62000301565b5b620004ce8582860162000452565b925050602083015167ffffffffffffffff811115620004f257620004f162000301565b5b620005008582860162000452565b9150509250929050565b600081519050919050565b7f4e487b7100000000000000000000000000000000000000000000000000000000600052602260045260246000fd5b600060028204905060018216806200055d57607f821691505b60208210810362000573576200057262000515565b5b50919050565b60008190508160005260206000209050919050565b60006020601f8301049050919050565b600082821b905092915050565b600060088302620005dd7fffffffffffffffffffffffffffffffffffffffffffffffffffffffffffffffff826200059e565b620005e986836200059e565b95508019841693508086168417925050509392505050565b6000819050919050565b6000819050919050565b600062000636620006306200062a8462000601565b6200060b565b62000601565b9050919050565b6000819050919050565b620006528362000615565b6200066a62000661826200063d565b848454620005ab565b825550505050565b600090565b6200068162000672565b6200068e81848462000647565b505050565b5b81811015620006b657620006aa60008262000677565b60018101905062000694565b5050565b601f8211156200070557620006cf8162000579565b620006da846200058e565b81016020851015620006ea578190505b62000702620006f9856200058e565b83018262000693565b50505b505050565b600082821c905092915050565b60006200072a600019846008026200070a565b1980831691505092915050565b600062000745838362000717565b9150826002028217905092915050565b62000760826200050a565b67ffffffffffffffff8111156200077c576200077b62000321565b5b62000788825462000544565b62000795828285620006ba565b600060209050601f831160018114620007cd5760008415620007b8578287015190505b620007c4858262000737565b86555062000834565b601f198416620007dd8662000579565b60005b828110156200080757848901518255600182019150602085019450602081019050620007e0565b8683101562000827578489015162000823601f89168262000717565b8355505b6001600288020188555050505b505050505050565b600082825260208201905092915050565b60006200085a826200050a565b6200086681856200083c565b935062000878818560208601620003db565b620008838162000310565b840191505092915050565b60006040820190508181036000830152620008aa81856200084d565b90508181036020830152620008c081846200084d565b90509392505050565b600073ffffffffffffffffffffffffffffffffffffffff82169050919050565b6000620008f682620008c9565b9050919050565b6200090881620008e9565b82525050565b600060408201905081810360008301526200092a81856200084d565b90506200093b6020830184620008fd565b9392505050565b7f4e487b7100000000000000000000000000000000000000000000000000000000600052605160045260246000fd5b6143c780620009816000396000f3fe608060405234801561001057600080fd5b506004361061018e5760003560e01c806395d89b41116100de578063b0467deb11610097578063c87b56dd11610071578063c87b56dd14610493578063e985e9c5146104c3578063fd837d9b146104f3578063fe8807f3146105235761018e565b8063b0467deb14610429578063b2bdfa7b14610459578063b88d4fde146104775761018e565b806395d89b411461037b578063a22cb46514610399578063a70d0e45146103b5578063a9c63aa0146103d1578063aa595c19146103ef578063ad3292d21461040b5761018e565b8063398579c41161014b5780634ec5cf58116101255780634ec5cf58146102e357806362ae2a91146102ff5780636352211e1461031b57806370a082311461034b5761018e565b8063398579c41461027957806342842e0e146102a95780634e5c4fb3146102c55761018e565b806301ffc9a71461019357806306fdde03146101c3578063081812fc146101e1578063095ea7b31461021157806323b872dd1461022d57806338f1484514610249575b600080fd5b6101ad60048036038101906101a89190612e5a565b61053f565b6040516101ba9190612ea2565b60405180910390f35b6101cb6105a0565b6040516101d89190612f4d565b60405180910390f35b6101fb60048036038101906101f69190612fa5565b610632565b6040516102089190613013565b60405180910390f35b61022b6004803603810190610226919061305a565b61064e565b005b6102476004803603810190610242919061309a565b610664565b005b610263600480360381019061025e9190612fa5565b610766565b6040516102709190612f4d565b60405180910390f35b610293600480360381019061028e9190613199565b610cf1565b6040516102a09190613586565b60405180910390f35b6102c360048036038101906102be919061309a565b6111b3565b005b6102cd6111d3565b6040516102da9190612f4d565b60405180910390f35b6102fd60048036038101906102f891906135a8565b611265565b005b61031960048036038101906103149190612fa5565b6112a9565b005b61033560048036038101906103309190612fa5565b6112b6565b6040516103429190613013565b60405180910390f35b610365600480360381019061036091906135a8565b6112c8565b60405161037291906135e4565b60405180910390f35b610383611382565b6040516103909190612f4d565b60405180910390f35b6103b360048036038101906103ae919061362b565b611414565b005b6103cf60048036038101906103ca919061366b565b61142a565b005b6103d96114c6565b6040516103e691906135e4565b60405180910390f35b6104096004803603810190610404919061380f565b6114d3565b005b6104136114e6565b6040516104209190613013565b60405180910390f35b610443600480360381019061043e9190612fa5565b611510565b6040516104509190613586565b60405180910390f35b6104616119ee565b60405161046e9190613013565b60405180910390f35b610491600480360381019061048c91906138f9565b611a14565b005b6104ad60048036038101906104a89190612fa5565b611a31565b6040516104ba9190612f4d565b60405180910390f35b6104dd60048036038101906104d8919061397c565b611b44565b6040516104ea9190612ea2565b60405180910390f35b61050d6004803603810190610508919061397c565b611bd8565b60405161051a9190612f4d565b60405180910390f35b61053d6004803603810190610538919061309a565b611ccc565b005b6000634906490660e01b7bffffffffffffffffffffffffffffffffffffffffffffffffffffffff1916827bffffffffffffffffffffffffffffffffffffffffffffffffffffffff19161480610599575061059882611d07565b5b9050919050565b6060600080546105af906139eb565b80601f01602080910402602001604051908101604052809291908181526020018280546105db906139eb565b80156106285780601f106105fd57610100808354040283529160200191610628565b820191906000526020600020905b81548152906001019060200180831161060b57829003601f168201915b5050505050905090565b600061063d82611de9565b5061064782611e71565b9050919050565b610660828261065b611eae565b611eb6565b5050565b600073ffffffffffffffffffffffffffffffffffffffff168273ffffffffffffffffffffffffffffffffffffffff16036106d65760006040517f64a0ae920000000000000000000000000000000000000000000000000000000081526004016106cd9190613013565b60405180910390fd5b60006106ea83836106e5611eae565b611ec8565b90508373ffffffffffffffffffffffffffffffffffffffff168173ffffffffffffffffffffffffffffffffffffffff1614610760578382826040517f64283d7b00000000000000000000000000000000000000000000000000000000815260040161075793929190613a1c565b60405180910390fd5b50505050565b606060088054905082106107af576040517f08c379a00000000000000000000000000000000000000000000000000000000081526004016107a690613a9f565b60405180910390fd5b6000600883815481106107c5576107c4613abf565b5b906000526020600020906012020160020180546107e1906139eb565b80601f016020809104026020016040519081016040528092919081815260200182805461080d906139eb565b801561085a5780601f1061082f5761010080835404028352916020019161085a565b820191906000526020600020905b81548152906001019060200180831161083d57829003601f168201915b505050505090506001600880549050036109475760088054806108805761087f613aee565b5b6001900381819060005260206000209060120201600080820160006108a59190612bf9565b6001820160006108b59190612bf9565b6002820160006108c59190612bf9565b6003820160006108d59190612bf9565b6004820160006101000a81549073ffffffffffffffffffffffffffffffffffffffff02191690556004820160146101000a81549060ff021916905560058201600080820160006109259190612bf9565b5050600682016000808201600061093c9190612c39565b505050509055610ce8565b60016008805490501115610ce757600083905083600160088054905061096d9190613b4c565b03610a4b57600880548061098457610983613aee565b5b6001900381819060005260206000209060120201600080820160006109a99190612bf9565b6001820160006109b99190612bf9565b6002820160006109c99190612bf9565b6003820160006109d99190612bf9565b6004820160006101000a81549073ffffffffffffffffffffffffffffffffffffffff02191690556004820160146101000a81549060ff02191690556005820160008082016000610a299190612bf9565b50506006820160008082016000610a409190612c39565b505050509055610ce5565b5b6008805490508111610c1057806001600880549050610a6b9190613b4c565b0315610c10576008600182610a809190613b80565b81548110610a9157610a90613abf565b5b906000526020600020906012020160088281548110610ab357610ab2613abf565b5b906000526020600020906012020160008201816000019081610ad59190613d76565b5060018201816001019081610aea9190613d76565b5060028201816002019081610aff9190613d76565b5060038201816003019081610b149190613d76565b506004820160009054906101000a900473ffffffffffffffffffffffffffffffffffffffff168160040160006101000a81548173ffffffffffffffffffffffffffffffffffffffff021916908373ffffffffffffffffffffffffffffffffffffffff1602179055506004820160149054906101000a900460ff168160040160146101000a81548160ff02191690836001811115610bb457610bb3613332565b5b0217905550600582018160050160008201816000019081610bd59190613d76565b5050506006820181600601600082018160000190600c610bf6929190612c4c565b505050905050600181610c099190613b80565b9050610a4c565b6008805480610c2257610c21613aee565b5b600190038181906000526020600020906012020160008082016000610c479190612bf9565b600182016000610c579190612bf9565b600282016000610c679190612bf9565b600382016000610c779190612bf9565b6004820160006101000a81549073ffffffffffffffffffffffffffffffffffffffff02191690556004820160146101000a81549060ff02191690556005820160008082016000610cc79190612bf9565b50506006820160008082016000610cde9190612c39565b5050505090555b505b5b80915050919050565b610cf9612c94565b60005b6008805490508114610dce578673ffffffffffffffffffffffffffffffffffffffff1660088281548110610d3357610d32613abf565b5b906000526020600020906012020160040160009054906101000a900473ffffffffffffffffffffffffffffffffffffffff1673ffffffffffffffffffffffffffffffffffffffff1603610dbb576040517f08c379a0000000000000000000000000000000000000000000000000000000008152600401610db290613ed0565b60405180910390fd5b8080610dc690613ef0565b915050610cfc565b610dd6612c94565b8d8d8080601f016020809104026020016040519081016040528093929190818152602001838380828437600081840152601f19601f8201169050808301925050505050505081600001819052508b8b8080601f016020809104026020016040519081016040528093929190818152602001838380828437600081840152601f19601f82011690508083019250505050505050816020018190525087816080019073ffffffffffffffffffffffffffffffffffffffff16908173ffffffffffffffffffffffffffffffffffffffff168152505084848080601f016020809104026020016040519081016040528093929190818152602001838380828437600081840152601f19601f82011690508083019250505050505050816060018190525089898080601f016020809104026020016040519081016040528093929190818152602001838380828437600081840152601f19601f820116905080830192505050505050508160400181905250868160a001906001811115610f5a57610f59613332565b5b90816001811115610f6e57610f6d613332565b5b81525050600c8014610fb5576040517f08c379a0000000000000000000000000000000000000000000000000000000008152600401610fac90613faa565b60405180910390fd5b60005b600c81101561105d578681600c8110610fd457610fd3613abf565b5b602002810190610fe49190613fd9565b8080601f016020809104026020016040519081016040528093929190818152602001838380828437600081840152601f19601f820116905080830192505050505050508260e001516000015182600c811061104257611041613abf565b5b6020020181905250808061105590613ef0565b915050610fb8565b506008819080600181540180825580915050600190039060005260206000209060120201600090919091909150600082015181600001908161109f919061403c565b5060208201518160010190816110b5919061403c565b5060408201518160020190816110cb919061403c565b5060608201518160030190816110e1919061403c565b5060808201518160040160006101000a81548173ffffffffffffffffffffffffffffffffffffffff021916908373ffffffffffffffffffffffffffffffffffffffff16021790555060a08201518160040160146101000a81548160ff0219169083600181111561115457611153613332565b5b021790555060c0820151816005016000820151816000019081611177919061403c565b50505060e08201518160060160008201518160000190600c61119a929190612d0d565b505050505080925050509b9a5050505050505050505050565b6111ce83838360405180602001604052806000815250611a14565b505050565b6060600a80546111e2906139eb565b80601f016020809104026020016040519081016040528092919081815260200182805461120e906139eb565b801561125b5780601f106112305761010080835404028352916020019161125b565b820191906000526020600020905b81548152906001019060200180831161123e57829003601f168201915b5050505050905090565b80600960006101000a81548173ffffffffffffffffffffffffffffffffffffffff021916908373ffffffffffffffffffffffffffffffffffffffff16021790555050565b6112b2816112b6565b5050565b60006112c182611de9565b9050919050565b60008073ffffffffffffffffffffffffffffffffffffffff168273ffffffffffffffffffffffffffffffffffffffff160361133b5760006040517f89c62b640000000000000000000000000000000000000000000000000000000081526004016113329190613013565b60405180910390fd5b600360008373ffffffffffffffffffffffffffffffffffffffff1673ffffffffffffffffffffffffffffffffffffffff168152602001908152602001600020549050919050565b606060018054611391906139eb565b80601f01602080910402602001604051908101604052809291908181526020018280546113bd906139eb565b801561140a5780601f106113df5761010080835404028352916020019161140a565b820191906000526020600020905b8154815290600101906020018083116113ed57829003601f168201915b5050505050905090565b61142661141f611eae565b83836120e2565b5050565b6114348484612251565b6114828383838080601f016020809104026020016040519081016040528093929190818152602001838380828437600081840152601f19601f8201169050808301925050505050505061234a565b6114c06040518060400160405280600781526020017f53756363657373000000000000000000000000000000000000000000000000008152506114d3565b50505050565b6000600880549050905090565b80600a90816114e2919061403c565b5050565b6000600960009054906101000a900473ffffffffffffffffffffffffffffffffffffffff16905090565b611518612c94565b600880549050821061155f576040517f08c379a000000000000000000000000000000000000000000000000000000000815260040161155690613a9f565b60405180910390fd5b6008828154811061157357611572613abf565b5b90600052602060002090601202016040518061010001604052908160008201805461159d906139eb565b80601f01602080910402602001604051908101604052809291908181526020018280546115c9906139eb565b80156116165780601f106115eb57610100808354040283529160200191611616565b820191906000526020600020905b8154815290600101906020018083116115f957829003601f168201915b5050505050815260200160018201805461162f906139eb565b80601f016020809104026020016040519081016040528092919081815260200182805461165b906139eb565b80156116a85780601f1061167d576101008083540402835291602001916116a8565b820191906000526020600020905b81548152906001019060200180831161168b57829003601f168201915b505050505081526020016002820180546116c1906139eb565b80601f01602080910402602001604051908101604052809291908181526020018280546116ed906139eb565b801561173a5780601f1061170f5761010080835404028352916020019161173a565b820191906000526020600020905b81548152906001019060200180831161171d57829003601f168201915b50505050508152602001600382018054611753906139eb565b80601f016020809104026020016040519081016040528092919081815260200182805461177f906139eb565b80156117cc5780601f106117a1576101008083540402835291602001916117cc565b820191906000526020600020905b8154815290600101906020018083116117af57829003601f168201915b505050505081526020016004820160009054906101000a900473ffffffffffffffffffffffffffffffffffffffff1673ffffffffffffffffffffffffffffffffffffffff1673ffffffffffffffffffffffffffffffffffffffff1681526020016004820160149054906101000a900460ff1660018111156118505761184f613332565b5b600181111561186257611861613332565b5b815260200160058201604051806020016040529081600082018054611886906139eb565b80601f01602080910402602001604051908101604052809291908181526020018280546118b2906139eb565b80156118ff5780601f106118d4576101008083540402835291602001916118ff565b820191906000526020600020905b8154815290600101906020018083116118e257829003601f168201915b50505050508152505081526020016006820160405180602001604052908160008201600c80602002604051908101604052809291906000905b828210156119db57838201805461194e906139eb565b80601f016020809104026020016040519081016040528092919081815260200182805461197a906139eb565b80156119c75780601f1061199c576101008083540402835291602001916119c7565b820191906000526020600020905b8154815290600101906020018083116119aa57829003601f168201915b505050505081526020019060010190611938565b5050505081525050815250509050919050565b600760009054906101000a900473ffffffffffffffffffffffffffffffffffffffff1681565b611a1f848484610664565b611a2b848484846123a6565b50505050565b6060611a3c82611de9565b506000600660008481526020019081526020016000208054611a5d906139eb565b80601f0160208091040260200160405190810160405280929190818152602001828054611a89906139eb565b8015611ad65780601f10611aab57610100808354040283529160200191611ad6565b820191906000526020600020905b815481529060010190602001808311611ab957829003601f168201915b505050505090506000611ae761255d565b90506000815103611afc578192505050611b3f565b600082511115611b31578082604051602001611b1992919061414a565b60405160208183030381529060405292505050611b3f565b611b3a84612574565b925050505b919050565b6000600560008473ffffffffffffffffffffffffffffffffffffffff1673ffffffffffffffffffffffffffffffffffffffff16815260200190815260200160002060008373ffffffffffffffffffffffffffffffffffffffff1673ffffffffffffffffffffffffffffffffffffffff16815260200190815260200160002060009054906101000a900460ff16905092915050565b60608173ffffffffffffffffffffffffffffffffffffffff16600760009054906101000a900473ffffffffffffffffffffffffffffffffffffffff1673ffffffffffffffffffffffffffffffffffffffff1614611c6a576040517f08c379a0000000000000000000000000000000000000000000000000000000008152600401611c61906141e0565b60405180910390fd5b82600760006101000a81548173ffffffffffffffffffffffffffffffffffffffff021916908373ffffffffffffffffffffffffffffffffffffffff16021790555060405180606001604052806027815260200161436b60279139905092915050565b611cd6838261064e565b611ce18284836111b3565b505050565b60006a636f6e736f6c652e6c6f679050600080835160208501845afa505050565b60007f80ac58cd000000000000000000000000000000000000000000000000000000007bffffffffffffffffffffffffffffffffffffffffffffffffffffffff1916827bffffffffffffffffffffffffffffffffffffffffffffffffffffffff19161480611dd257507f5b5e139f000000000000000000000000000000000000000000000000000000007bffffffffffffffffffffffffffffffffffffffffffffffffffffffff1916827bffffffffffffffffffffffffffffffffffffffffffffffffffffffff1916145b80611de25750611de1826125dd565b5b9050919050565b600080611df583612647565b9050600073ffffffffffffffffffffffffffffffffffffffff168173ffffffffffffffffffffffffffffffffffffffff1603611e6857826040517f7e273289000000000000000000000000000000000000000000000000000000008152600401611e5f91906135e4565b60405180910390fd5b80915050919050565b60006004600083815260200190815260200160002060009054906101000a900473ffffffffffffffffffffffffffffffffffffffff169050919050565b600033905090565b611ec38383836001612684565b505050565b600080611ed484612647565b9050600073ffffffffffffffffffffffffffffffffffffffff168373ffffffffffffffffffffffffffffffffffffffff1614611f1657611f15818486612849565b5b600073ffffffffffffffffffffffffffffffffffffffff168173ffffffffffffffffffffffffffffffffffffffff1614611fa757611f58600085600080612684565b6001600360008373ffffffffffffffffffffffffffffffffffffffff1673ffffffffffffffffffffffffffffffffffffffff168152602001908152602001600020600082825403925050819055505b600073ffffffffffffffffffffffffffffffffffffffff168573ffffffffffffffffffffffffffffffffffffffff161461202a576001600360008773ffffffffffffffffffffffffffffffffffffffff1673ffffffffffffffffffffffffffffffffffffffff168152602001908152602001600020600082825401925050819055505b846002600086815260200190815260200160002060006101000a81548173ffffffffffffffffffffffffffffffffffffffff021916908373ffffffffffffffffffffffffffffffffffffffff160217905550838573ffffffffffffffffffffffffffffffffffffffff168273ffffffffffffffffffffffffffffffffffffffff167fddf252ad1be2c89b69c2b068fc378daa952ba7f163c4a11628f55a4df523b3ef60405160405180910390a4809150509392505050565b600073ffffffffffffffffffffffffffffffffffffffff168273ffffffffffffffffffffffffffffffffffffffff160361215357816040517f5b08ba1800000000000000000000000000000000000000000000000000000000815260040161214a9190613013565b60405180910390fd5b80600560008573ffffffffffffffffffffffffffffffffffffffff1673ffffffffffffffffffffffffffffffffffffffff16815260200190815260200160002060008473ffffffffffffffffffffffffffffffffffffffff1673ffffffffffffffffffffffffffffffffffffffff16815260200190815260200160002060006101000a81548160ff0219169083151502179055508173ffffffffffffffffffffffffffffffffffffffff168373ffffffffffffffffffffffffffffffffffffffff167f17307eab39ab6107e8899845ad3d59bd9653f200f220920489ca2b5937696c31836040516122449190612ea2565b60405180910390a3505050565b600073ffffffffffffffffffffffffffffffffffffffff168273ffffffffffffffffffffffffffffffffffffffff16036122c35760006040517f64a0ae920000000000000000000000000000000000000000000000000000000081526004016122ba9190613013565b60405180910390fd5b60006122d183836000611ec8565b9050600073ffffffffffffffffffffffffffffffffffffffff168173ffffffffffffffffffffffffffffffffffffffff16146123455760006040517f73c6ac6e00000000000000000000000000000000000000000000000000000000815260040161233c9190613013565b60405180910390fd5b505050565b8060066000848152602001908152602001600020908161236a919061403c565b507ff8e1a15aba9398e019f0b49df1a4fde98ee17ae345cb5f6b5e2c27f5033e8ce78260405161239a91906135e4565b60405180910390a15050565b60008373ffffffffffffffffffffffffffffffffffffffff163b1115612557578273ffffffffffffffffffffffffffffffffffffffff1663150b7a026123ea611eae565b8685856040518563ffffffff1660e01b815260040161240c9493929190614255565b6020604051808303816000875af192505050801561244857506040513d601f19601f8201168201806040525081019061244591906142b6565b60015b6124cc573d8060008114612478576040519150601f19603f3d011682016040523d82523d6000602084013e61247d565b606091505b5060008151036124c457836040517f64a0ae920000000000000000000000000000000000000000000000000000000081526004016124bb9190613013565b60405180910390fd5b805181602001fd5b63150b7a0260e01b7bffffffffffffffffffffffffffffffffffffffffffffffffffffffff1916817bffffffffffffffffffffffffffffffffffffffffffffffffffffffff19161461255557836040517f64a0ae9200000000000000000000000000000000000000000000000000000000815260040161254c9190613013565b60405180910390fd5b505b50505050565b606060405180602001604052806000815250905090565b606061257f82611de9565b50600061258a61255d565b905060008151116125aa57604051806020016040528060008152506125d5565b806125b48461290d565b6040516020016125c592919061414a565b6040516020818303038152906040525b915050919050565b60007f01ffc9a7000000000000000000000000000000000000000000000000000000007bffffffffffffffffffffffffffffffffffffffffffffffffffffffff1916827bffffffffffffffffffffffffffffffffffffffffffffffffffffffff1916149050919050565b60006002600083815260200190815260200160002060009054906101000a900473ffffffffffffffffffffffffffffffffffffffff169050919050565b80806126bd5750600073ffffffffffffffffffffffffffffffffffffffff168273ffffffffffffffffffffffffffffffffffffffff1614155b156127f15760006126cd84611de9565b9050600073ffffffffffffffffffffffffffffffffffffffff168373ffffffffffffffffffffffffffffffffffffffff161415801561273857508273ffffffffffffffffffffffffffffffffffffffff168173ffffffffffffffffffffffffffffffffffffffff1614155b801561274b57506127498184611b44565b155b1561278d57826040517fa9fbf51f0000000000000000000000000000000000000000000000000000000081526004016127849190613013565b60405180910390fd5b81156127ef57838573ffffffffffffffffffffffffffffffffffffffff168273ffffffffffffffffffffffffffffffffffffffff167f8c5be1e5ebec7d5bd14f71427d1e84f3dd0314c0f7b2291e5b200ac8c7c3b92560405160405180910390a45b505b836004600085815260200190815260200160002060006101000a81548173ffffffffffffffffffffffffffffffffffffffff021916908373ffffffffffffffffffffffffffffffffffffffff16021790555050505050565b6128548383836129db565b61290857600073ffffffffffffffffffffffffffffffffffffffff168373ffffffffffffffffffffffffffffffffffffffff16036128c957806040517f7e2732890000000000000000000000000000000000000000000000000000000081526004016128c091906135e4565b60405180910390fd5b81816040517f177e802f0000000000000000000000000000000000000000000000000000000081526004016128ff9291906142e3565b60405180910390fd5b505050565b60606000600161291c84612a9c565b01905060008167ffffffffffffffff81111561293b5761293a6136e4565b5b6040519080825280601f01601f19166020018201604052801561296d5781602001600182028036833780820191505090505b509050600082602001820190505b6001156129d0578080600190039150507f3031323334353637383961626364656600000000000000000000000000000000600a86061a8153600a85816129c4576129c361430c565b5b0494506000850361297b575b819350505050919050565b60008073ffffffffffffffffffffffffffffffffffffffff168373ffffffffffffffffffffffffffffffffffffffff1614158015612a9357508273ffffffffffffffffffffffffffffffffffffffff168473ffffffffffffffffffffffffffffffffffffffff161480612a545750612a538484611b44565b5b80612a9257508273ffffffffffffffffffffffffffffffffffffffff16612a7a83611e71565b73ffffffffffffffffffffffffffffffffffffffff16145b5b90509392505050565b600080600090507a184f03e93ff9f4daa797ed6e38ed64bf6a1f0100000000000000008310612afa577a184f03e93ff9f4daa797ed6e38ed64bf6a1f0100000000000000008381612af057612aef61430c565b5b0492506040810190505b6d04ee2d6d415b85acef81000000008310612b37576d04ee2d6d415b85acef81000000008381612b2d57612b2c61430c565b5b0492506020810190505b662386f26fc100008310612b6657662386f26fc100008381612b5c57612b5b61430c565b5b0492506010810190505b6305f5e1008310612b8f576305f5e1008381612b8557612b8461430c565b5b0492506008810190505b6127108310612bb4576127108381612baa57612ba961430c565b5b0492506004810190505b60648310612bd75760648381612bcd57612bcc61430c565b5b0492506002810190505b600a8310612be6576001810190505b80915050919050565b612bf761433b565b565b508054612c05906139eb565b6000825580601f10612c175750612c36565b601f016020900490600052602060002090810190612c359190612d59565b5b50565b5080600c0190612c499190612d76565b50565b82600c8101928215612c83579182015b82811115612c825782829081612c729190613d76565b5091600101919060010190612c5c565b5b509050612c909190612d76565b5090565b60405180610100016040528060608152602001606081526020016060815260200160608152602001600073ffffffffffffffffffffffffffffffffffffffff16815260200160006001811115612ced57612cec613332565b5b8152602001612cfa612d9a565b8152602001612d07612dad565b81525090565b82600c8101928215612d48579160200282015b82811115612d47578251829081612d37919061403c565b5091602001919060010190612d20565b5b509050612d559190612d76565b5090565b5b80821115612d72576000816000905550600101612d5a565b5090565b5b80821115612d965760008181612d8d9190612bf9565b50600101612d77565b5090565b6040518060200160405280606081525090565b6040518060200160405280612dc0612dc6565b81525090565b604051806101800160405280600c905b6060815260200190600190039081612dd65790505090565b6000604051905090565b600080fd5b600080fd5b60007fffffffff0000000000000000000000000000000000000000000000000000000082169050919050565b612e3781612e02565b8114612e4257600080fd5b50565b600081359050612e5481612e2e565b92915050565b600060208284031215612e7057612e6f612df8565b5b6000612e7e84828501612e45565b91505092915050565b60008115159050919050565b612e9c81612e87565b82525050565b6000602082019050612eb76000830184612e93565b92915050565b600081519050919050565b600082825260208201905092915050565b60005b83811015612ef7578082015181840152602081019050612edc565b60008484015250505050565b6000601f19601f8301169050919050565b6000612f1f82612ebd565b612f298185612ec8565b9350612f39818560208601612ed9565b612f4281612f03565b840191505092915050565b60006020820190508181036000830152612f678184612f14565b905092915050565b6000819050919050565b612f8281612f6f565b8114612f8d57600080fd5b50565b600081359050612f9f81612f79565b92915050565b600060208284031215612fbb57612fba612df8565b5b6000612fc984828501612f90565b91505092915050565b600073ffffffffffffffffffffffffffffffffffffffff82169050919050565b6000612ffd82612fd2565b9050919050565b61300d81612ff2565b82525050565b60006020820190506130286000830184613004565b92915050565b61303781612ff2565b811461304257600080fd5b50565b6000813590506130548161302e565b92915050565b6000806040838503121561307157613070612df8565b5b600061307f85828601613045565b925050602061309085828601612f90565b9150509250929050565b6000806000606084860312156130b3576130b2612df8565b5b60006130c186828701613045565b93505060206130d286828701613045565b92505060406130e386828701612f90565b9150509250925092565b600080fd5b600080fd5b600080fd5b60008083601f840112613112576131116130ed565b5b8235905067ffffffffffffffff81111561312f5761312e6130f2565b5b60208301915083600182028301111561314b5761314a6130f7565b5b9250929050565b6002811061315f57600080fd5b50565b60008135905061317181613152565b92915050565b6000819050826020600c0282011115613193576131926130f7565b5b92915050565b600080600080600080600080600080600060e08c8e0312156131be576131bd612df8565b5b60008c013567ffffffffffffffff8111156131dc576131db612dfd565b5b6131e88e828f016130fc565b9b509b505060208c013567ffffffffffffffff81111561320b5761320a612dfd565b5b6132178e828f016130fc565b995099505060408c013567ffffffffffffffff81111561323a57613239612dfd565b5b6132468e828f016130fc565b975097505060606132598e828f01613045565b955050608061326a8e828f01613162565b94505060a08c013567ffffffffffffffff81111561328b5761328a612dfd565b5b6132978e828f01613177565b93505060c08c013567ffffffffffffffff8111156132b8576132b7612dfd565b5b6132c48e828f016130fc565b92509250509295989b509295989b9093969950565b600082825260208201905092915050565b60006132f582612ebd565b6132ff81856132d9565b935061330f818560208601612ed9565b61331881612f03565b840191505092915050565b61332c81612ff2565b82525050565b7f4e487b7100000000000000000000000000000000000000000000000000000000600052602160045260246000fd5b6002811061337257613371613332565b5b50565b600081905061338382613361565b919050565b600061339382613375565b9050919050565b6133a381613388565b82525050565b600060208301600083015184820360008601526133c682826132ea565b9150508091505092915050565b6000600c9050919050565b600081905092915050565b6000819050919050565b60006133ff83836132ea565b905092915050565b6000602082019050919050565b600061341f826133d3565b61342981856133de565b93508360208202850161343b856133e9565b8060005b85811015613477578484038952815161345885826133f3565b945061346383613407565b925060208a0199505060018101905061343f565b50829750879550505050505092915050565b600060208301600083015184820360008601526134a68282613414565b9150508091505092915050565b60006101008301600083015184820360008601526134d182826132ea565b915050602083015184820360208601526134eb82826132ea565b9150506040830151848203604086015261350582826132ea565b9150506060830151848203606086015261351f82826132ea565b91505060808301516135346080860182613323565b5060a083015161354760a086018261339a565b5060c083015184820360c086015261355f82826133a9565b91505060e083015184820360e08601526135798282613489565b9150508091505092915050565b600060208201905081810360008301526135a081846134b3565b905092915050565b6000602082840312156135be576135bd612df8565b5b60006135cc84828501613045565b91505092915050565b6135de81612f6f565b82525050565b60006020820190506135f960008301846135d5565b92915050565b61360881612e87565b811461361357600080fd5b50565b600081359050613625816135ff565b92915050565b6000806040838503121561364257613641612df8565b5b600061365085828601613045565b925050602061366185828601613616565b9150509250929050565b6000806000806060858703121561368557613684612df8565b5b600061369387828801613045565b94505060206136a487828801612f90565b935050604085013567ffffffffffffffff8111156136c5576136c4612dfd565b5b6136d1878288016130fc565b925092505092959194509250565b600080fd5b7f4e487b7100000000000000000000000000000000000000000000000000000000600052604160045260246000fd5b61371c82612f03565b810181811067ffffffffffffffff8211171561373b5761373a6136e4565b5b80604052505050565b600061374e612dee565b905061375a8282613713565b919050565b600067ffffffffffffffff82111561377a576137796136e4565b5b61378382612f03565b9050602081019050919050565b82818337600083830152505050565b60006137b26137ad8461375f565b613744565b9050828152602081018484840111156137ce576137cd6136df565b5b6137d9848285613790565b509392505050565b600082601f8301126137f6576137f56130ed565b5b813561380684826020860161379f565b91505092915050565b60006020828403121561382557613824612df8565b5b600082013567ffffffffffffffff81111561384357613842612dfd565b5b61384f848285016137e1565b91505092915050565b600067ffffffffffffffff821115613873576138726136e4565b5b61387c82612f03565b9050602081019050919050565b600061389c61389784613858565b613744565b9050828152602081018484840111156138b8576138b76136df565b5b6138c3848285613790565b509392505050565b600082601f8301126138e0576138df6130ed565b5b81356138f0848260208601613889565b91505092915050565b6000806000806080858703121561391357613912612df8565b5b600061392187828801613045565b945050602061393287828801613045565b935050604061394387828801612f90565b925050606085013567ffffffffffffffff81111561396457613963612dfd565b5b613970878288016138cb565b91505092959194509250565b6000806040838503121561399357613992612df8565b5b60006139a185828601613045565b92505060206139b285828601613045565b9150509250929050565b7f4e487b7100000000000000000000000000000000000000000000000000000000600052602260045260246000fd5b60006002820490506001821680613a0357607f821691505b602082108103613a1657613a156139bc565b5b50919050565b6000606082019050613a316000830186613004565b613a3e60208301856135d5565b613a4b6040830184613004565b949350505050565b7f54686973205573657220646f65736e2774206578697374000000000000000000600082015250565b6000613a89601783612ec8565b9150613a9482613a53565b602082019050919050565b60006020820190508181036000830152613ab881613a7c565b9050919050565b7f4e487b7100000000000000000000000000000000000000000000000000000000600052603260045260246000fd5b7f4e487b7100000000000000000000000000000000000000000000000000000000600052603160045260246000fd5b7f4e487b7100000000000000000000000000000000000000000000000000000000600052601160045260246000fd5b6000613b5782612f6f565b9150613b6283612f6f565b9250828203905081811115613b7a57613b79613b1d565b5b92915050565b6000613b8b82612f6f565b9150613b9683612f6f565b9250828201905080821115613bae57613bad613b1d565b5b92915050565b600081549050613bc3816139eb565b9050919050565b60008190508160005260206000209050919050565b60006020601f8301049050919050565b600082821b905092915050565b600060088302613c2c7fffffffffffffffffffffffffffffffffffffffffffffffffffffffffffffffff82613bef565b613c368683613bef565b95508019841693508086168417925050509392505050565b6000819050919050565b6000613c73613c6e613c6984612f6f565b613c4e565b612f6f565b9050919050565b6000819050919050565b613c8d83613c58565b613ca1613c9982613c7a565b848454613bfc565b825550505050565b600090565b613cb6613ca9565b613cc1818484613c84565b505050565b5b81811015613ce557613cda600082613cae565b600181019050613cc7565b5050565b601f821115613d2a57613cfb81613bca565b613d0484613bdf565b81016020851015613d13578190505b613d27613d1f85613bdf565b830182613cc6565b50505b505050565b600082821c905092915050565b6000613d4d60001984600802613d2f565b1980831691505092915050565b6000613d668383613d3c565b9150826002028217905092915050565b818103613d84575050613e5c565b613d8d82613bb4565b67ffffffffffffffff811115613da657613da56136e4565b5b613db082546139eb565b613dbb828285613ce9565b6000601f831160018114613dea5760008415613dd8578287015490505b613de28582613d5a565b865550613e55565b601f198416613df887613bca565b9650613e0386613bca565b60005b82811015613e2b57848901548255600182019150600185019450602081019050613e06565b86831015613e485784890154613e44601f891682613d3c565b8355505b6001600288020188555050505b5050505050505b565b7f416e206163636f756e7420616c72656164792068617320746869732077616c6c60008201527f6574206164647265737300000000000000000000000000000000000000000000602082015250565b6000613eba602a83612ec8565b9150613ec582613e5e565b604082019050919050565b60006020820190508181036000830152613ee981613ead565b9050919050565b6000613efb82612f6f565b91507fffffffffffffffffffffffffffffffffffffffffffffffffffffffffffffffff8203613f2d57613f2c613b1d565b5b600182019050919050565b7f4e756d626572206f6620776f72647320696e636f6d706c657465206f7220657860008201527f6365656465640000000000000000000000000000000000000000000000000000602082015250565b6000613f94602683612ec8565b9150613f9f82613f38565b604082019050919050565b60006020820190508181036000830152613fc381613f87565b9050919050565b600080fd5b600080fd5b600080fd5b60008083356001602003843603038112613ff657613ff5613fca565b5b80840192508235915067ffffffffffffffff82111561401857614017613fcf565b5b60208301925060018202360383131561403457614033613fd4565b5b509250929050565b61404582612ebd565b67ffffffffffffffff81111561405e5761405d6136e4565b5b61406882546139eb565b614073828285613ce9565b600060209050601f8311600181146140a65760008415614094578287015190505b61409e8582613d5a565b865550614106565b601f1984166140b486613bca565b60005b828110156140dc578489015182556001820191506020850194506020810190506140b7565b868310156140f957848901516140f5601f891682613d3c565b8355505b6001600288020188555050505b505050505050565b600081905092915050565b600061412482612ebd565b61412e818561410e565b935061413e818560208601612ed9565b80840191505092915050565b60006141568285614119565b91506141628284614119565b91508190509392505050565b7f696e76616c6964206164647265737320666f72207468652063757272656e742060008201527f6f776e6572000000000000000000000000000000000000000000000000000000602082015250565b60006141ca602583612ec8565b91506141d58261416e565b604082019050919050565b600060208201905081810360008301526141f9816141bd565b9050919050565b600081519050919050565b600082825260208201905092915050565b600061422782614200565b614231818561420b565b9350614241818560208601612ed9565b61424a81612f03565b840191505092915050565b600060808201905061426a6000830187613004565b6142776020830186613004565b61428460408301856135d5565b8181036060830152614296818461421c565b905095945050505050565b6000815190506142b081612e2e565b92915050565b6000602082840312156142cc576142cb612df8565b5b60006142da848285016142a1565b91505092915050565b60006040820190506142f86000830185613004565b61430560208301846135d5565b9392505050565b7f4e487b7100000000000000000000000000000000000000000000000000000000600052601260045260246000fd5b7f4e487b7100000000000000000000000000000000000000000000000000000000600052605160045260246000fdfe636f6e7472616374206f776e65727368697020636c61696d6564207375636365737366756c6c79a264697066735822122090fe52fc9a32ada1f7727bf0e7e51c5d094ec95787392f2b0bf925d48046997f64736f6c63430008140033",
  "linkReferences": {},
  "deployedLinkReferences": {}
}