{
  "_format": "hh-sol-artifact-1",
  "contractName": "NFT_Factory",
  "sourceName": "Contracts/ContractFactory.sol",
  "abi": [
    {
      "inputs": [
        {
          "internalType": "address",
          "name": "_userAddress",
          "type": "address"
        },
        {
          "internalType": "string[12]",
          "name": "_secretPhrase",
          "type": "string[12]"
        }
      ],
      "name": "AuthenticateUser",
      "outputs": [
        {
          "internalType": "bool",
          "name": "",
          "type": "bool"
        }
      ],
      "stateMutability": "view",
      "type": "function"
    },
    {
      "inputs": [
        {
          "internalType": "address",
          "name": "_userAddress",
          "type": "address"
        }
      ],
      "name": "AuthorizeUser",
      "outputs": [
        {
          "internalType": "bool",
          "name": "",
          "type": "bool"
        }
      ],
      "stateMutability": "view",
      "type": "function"
    },
    {
      "inputs": [],
      "name": "_owner",
      "outputs": [
        {
          "internalType": "address",
          "name": "",
          "type": "address"
        }
      ],
      "stateMutability": "view",
      "type": "function"
    },
    {
      "inputs": [
        {
          "internalType": "address",
          "name": "new_owner",
          "type": "address"
        },
        {
          "internalType": "address",
          "name": "old_owner",
          "type": "address"
        }
      ],
      "name": "claimOwnership",
      "outputs": [
        {
          "internalType": "string",
          "name": "",
          "type": "string"
        }
      ],
      "stateMutability": "nonpayable",
      "type": "function"
    },
    {
      "inputs": [
        {
          "internalType": "string",
          "name": "_first_name",
          "type": "string"
        },
        {
          "internalType": "string",
          "name": "_last_name",
          "type": "string"
        },
        {
          "internalType": "string",
          "name": "_username",
          "type": "string"
        },
        {
          "internalType": "address",
          "name": "_wallet_address",
          "type": "address"
        },
        {
          "internalType": "enum Users.group",
          "name": "userType",
          "type": "uint8"
        },
        {
          "internalType": "string[12]",
          "name": "_secretPhrase",
          "type": "string[12]"
        },
        {
          "internalType": "string",
          "name": "_email_address",
          "type": "string"
        }
      ],
      "name": "createUser",
      "outputs": [
        {
          "components": [
            {
              "internalType": "string",
              "name": "first_name",
              "type": "string"
            },
            {
              "internalType": "string",
              "name": "last_name",
              "type": "string"
            },
            {
              "internalType": "string",
              "name": "username",
              "type": "string"
            },
            {
              "internalType": "string",
              "name": "email_address",
              "type": "string"
            },
            {
              "internalType": "address",
              "name": "walletAddress",
              "type": "address"
            },
            {
              "internalType": "enum Users.group",
              "name": "userGroup",
              "type": "uint8"
            },
            {
              "components": [
                {
                  "internalType": "string",
                  "name": "Title",
                  "type": "string"
                }
              ],
              "internalType": "struct Users.Collections",
              "name": "NFT_Collections",
              "type": "tuple"
            },
            {
              "components": [
                {
                  "internalType": "string[12]",
                  "name": "words",
                  "type": "string[12]"
                }
              ],
              "internalType": "struct Users.Phrase",
              "name": "secret_phrase",
              "type": "tuple"
            }
          ],
          "internalType": "struct Users.User",
          "name": "",
          "type": "tuple"
        }
      ],
      "stateMutability": "nonpayable",
      "type": "function"
    },
    {
      "inputs": [],
      "name": "getNFTCertificate_Count",
      "outputs": [
        {
          "internalType": "uint256",
          "name": "",
          "type": "uint256"
        }
      ],
      "stateMutability": "view",
      "type": "function"
    },
    {
      "inputs": [
        {
          "internalType": "uint256",
          "name": "index",
          "type": "uint256"
        }
      ],
      "name": "getNFTCertificate_index",
      "outputs": [
        {
          "internalType": "contract CertificateNFT",
          "name": "",
          "type": "address"
        }
      ],
      "stateMutability": "view",
      "type": "function"
    },
    {
      "inputs": [],
      "name": "getTotalUser",
      "outputs": [
        {
          "internalType": "uint256",
          "name": "",
          "type": "uint256"
        }
      ],
      "stateMutability": "view",
      "type": "function"
    },
    {
      "inputs": [
        {
          "internalType": "uint256",
          "name": "index",
          "type": "uint256"
        }
      ],
      "name": "getUser",
      "outputs": [
        {
          "components": [
            {
              "internalType": "string",
              "name": "first_name",
              "type": "string"
            },
            {
              "internalType": "string",
              "name": "last_name",
              "type": "string"
            },
            {
              "internalType": "string",
              "name": "username",
              "type": "string"
            },
            {
              "internalType": "string",
              "name": "email_address",
              "type": "string"
            },
            {
              "internalType": "address",
              "name": "walletAddress",
              "type": "address"
            },
            {
              "internalType": "enum Users.group",
              "name": "userGroup",
              "type": "uint8"
            },
            {
              "components": [
                {
                  "internalType": "string",
                  "name": "Title",
                  "type": "string"
                }
              ],
              "internalType": "struct Users.Collections",
              "name": "NFT_Collections",
              "type": "tuple"
            },
            {
              "components": [
                {
                  "internalType": "string[12]",
                  "name": "words",
                  "type": "string[12]"
                }
              ],
              "internalType": "struct Users.Phrase",
              "name": "secret_phrase",
              "type": "tuple"
            }
          ],
          "internalType": "struct Users.User",
          "name": "",
          "type": "tuple"
        }
      ],
      "stateMutability": "view",
      "type": "function"
    }
  ],
  "bytecode": "0x608060405234801561001057600080fd5b50612b5a806100206000396000f3fe608060405234801561001057600080fd5b50600436106100935760003560e01c8063b0467deb11610066578063b0467deb14610146578063b2bdfa7b14610176578063c10d3ee614610194578063f93ab40e146101c4578063fd837d9b146101e257610093565b80632be2ab7f146100985780632cf58ac2146100c8578063398579c4146100f8578063a9c63aa014610128575b600080fd5b6100b260048036038101906100ad9190611d1a565b610212565b6040516100bf9190611d91565b60405180910390f35b6100e260048036038101906100dd9190611dac565b610864565b6040516100ef9190611d91565b60405180910390f35b610112600480360381019061010d9190611e7b565b610ddd565b60405161011f919061229d565b60405180910390f35b61013061129f565b60405161013d91906122d8565b60405180910390f35b610160600480360381019061015b919061231f565b6112ac565b60405161016d919061229d565b60405180910390f35b61017e61178a565b60405161018b919061235b565b60405180910390f35b6101ae60048036038101906101a9919061231f565b6117ae565b6040516101bb91906123d5565b60405180910390f35b6101cc6117f6565b6040516101d991906122d8565b60405180910390f35b6101fc60048036038101906101f791906123f0565b611803565b604051610209919061247a565b60405180910390f35b600061021c6118f4565b61022461196d565b60005b600180549050811161074d578573ffffffffffffffffffffffffffffffffffffffff166001828154811061025e5761025d61249c565b5b906000526020600020906012020160040160009054906101000a900473ffffffffffffffffffffffffffffffffffffffff1673ffffffffffffffffffffffffffffffffffffffff160361073a57600181815481106102bf576102be61249c565b5b9060005260206000209060120201604051806101000160405290816000820180546102e9906124fa565b80601f0160208091040260200160405190810160405280929190818152602001828054610315906124fa565b80156103625780601f1061033757610100808354040283529160200191610362565b820191906000526020600020905b81548152906001019060200180831161034557829003601f168201915b5050505050815260200160018201805461037b906124fa565b80601f01602080910402602001604051908101604052809291908181526020018280546103a7906124fa565b80156103f45780601f106103c9576101008083540402835291602001916103f4565b820191906000526020600020905b8154815290600101906020018083116103d757829003601f168201915b5050505050815260200160028201805461040d906124fa565b80601f0160208091040260200160405190810160405280929190818152602001828054610439906124fa565b80156104865780601f1061045b57610100808354040283529160200191610486565b820191906000526020600020905b81548152906001019060200180831161046957829003601f168201915b5050505050815260200160038201805461049f906124fa565b80601f01602080910402602001604051908101604052809291908181526020018280546104cb906124fa565b80156105185780601f106104ed57610100808354040283529160200191610518565b820191906000526020600020905b8154815290600101906020018083116104fb57829003601f168201915b505050505081526020016004820160009054906101000a900473ffffffffffffffffffffffffffffffffffffffff1673ffffffffffffffffffffffffffffffffffffffff1673ffffffffffffffffffffffffffffffffffffffff1681526020016004820160149054906101000a900460ff16600181111561059c5761059b612049565b5b60018111156105ae576105ad612049565b5b8152602001600582016040518060200160405290816000820180546105d2906124fa565b80601f01602080910402602001604051908101604052809291908181526020018280546105fe906124fa565b801561064b5780601f106106205761010080835404028352916020019161064b565b820191906000526020600020905b81548152906001019060200180831161062e57829003601f168201915b50505050508152505081526020016006820160405180602001604052908160008201600c80602002604051908101604052809291906000905b8282101561072757838201805461069a906124fa565b80601f01602080910402602001604051908101604052809291908181526020018280546106c6906124fa565b80156107135780601f106106e857610100808354040283529160200191610713565b820191906000526020600020905b8154815290600101906020018083116106f657829003601f168201915b505050505081526020019060010190610684565b505050508152505081525050925061074d565b80806107459061255a565b915050610227565b5060005b600c8110156107a8578260e001516000015181600c81106107755761077461249c565b5b60200201518282600c811061078d5761078c61249c565b5b602002018190525080806107a09061255a565b915050610751565b5060005b600c811015610856578181600c81106107c8576107c761249c565b5b60200201516040516020016107dd91906125de565b604051602081830303815290604052805190602001208582600c81106108065761080561249c565b5b602002015160405160200161081b91906125de565b604051602081830303815290604052805190602001200315610843576000935050505061085e565b808061084e9061255a565b9150506107ac565b506001925050505b92915050565b600061086e6118f4565b60005b6001805490508111610d97578373ffffffffffffffffffffffffffffffffffffffff16600182815481106108a8576108a761249c565b5b906000526020600020906012020160040160009054906101000a900473ffffffffffffffffffffffffffffffffffffffff1673ffffffffffffffffffffffffffffffffffffffff1603610d8457600181815481106109095761090861249c565b5b906000526020600020906012020160405180610100016040529081600082018054610933906124fa565b80601f016020809104026020016040519081016040528092919081815260200182805461095f906124fa565b80156109ac5780601f10610981576101008083540402835291602001916109ac565b820191906000526020600020905b81548152906001019060200180831161098f57829003601f168201915b505050505081526020016001820180546109c5906124fa565b80601f01602080910402602001604051908101604052809291908181526020018280546109f1906124fa565b8015610a3e5780601f10610a1357610100808354040283529160200191610a3e565b820191906000526020600020905b815481529060010190602001808311610a2157829003601f168201915b50505050508152602001600282018054610a57906124fa565b80601f0160208091040260200160405190810160405280929190818152602001828054610a83906124fa565b8015610ad05780601f10610aa557610100808354040283529160200191610ad0565b820191906000526020600020905b815481529060010190602001808311610ab357829003601f168201915b50505050508152602001600382018054610ae9906124fa565b80601f0160208091040260200160405190810160405280929190818152602001828054610b15906124fa565b8015610b625780601f10610b3757610100808354040283529160200191610b62565b820191906000526020600020905b815481529060010190602001808311610b4557829003601f168201915b505050505081526020016004820160009054906101000a900473ffffffffffffffffffffffffffffffffffffffff1673ffffffffffffffffffffffffffffffffffffffff1673ffffffffffffffffffffffffffffffffffffffff1681526020016004820160149054906101000a900460ff166001811115610be657610be5612049565b5b6001811115610bf857610bf7612049565b5b815260200160058201604051806020016040529081600082018054610c1c906124fa565b80601f0160208091040260200160405190810160405280929190818152602001828054610c48906124fa565b8015610c955780601f10610c6a57610100808354040283529160200191610c95565b820191906000526020600020905b815481529060010190602001808311610c7857829003601f168201915b50505050508152505081526020016006820160405180602001604052908160008201600c80602002604051908101604052809291906000905b82821015610d71578382018054610ce4906124fa565b80601f0160208091040260200160405190810160405280929190818152602001828054610d10906124fa565b8015610d5d5780601f10610d3257610100808354040283529160200191610d5d565b820191906000526020600020905b815481529060010190602001808311610d4057829003601f168201915b505050505081526020019060010190610cce565b5050505081525050815250509150610d97565b8080610d8f9061255a565b915050610871565b5060006001811115610dac57610dab612049565b5b8160a001516001811115610dc357610dc2612049565b5b03610dd2576001915050610dd8565b60009150505b919050565b610de56118f4565b60005b6001805490508114610eba578673ffffffffffffffffffffffffffffffffffffffff1660018281548110610e1f57610e1e61249c565b5b906000526020600020906012020160040160009054906101000a900473ffffffffffffffffffffffffffffffffffffffff1673ffffffffffffffffffffffffffffffffffffffff1603610ea7576040517f08c379a0000000000000000000000000000000000000000000000000000000008152600401610e9e90612667565b60405180910390fd5b8080610eb29061255a565b915050610de8565b610ec26118f4565b8d8d8080601f016020809104026020016040519081016040528093929190818152602001838380828437600081840152601f19601f8201169050808301925050505050505081600001819052508b8b8080601f016020809104026020016040519081016040528093929190818152602001838380828437600081840152601f19601f82011690508083019250505050505050816020018190525087816080019073ffffffffffffffffffffffffffffffffffffffff16908173ffffffffffffffffffffffffffffffffffffffff168152505084848080601f016020809104026020016040519081016040528093929190818152602001838380828437600081840152601f19601f82011690508083019250505050505050816060018190525089898080601f016020809104026020016040519081016040528093929190818152602001838380828437600081840152601f19601f820116905080830192505050505050508160400181905250868160a00190600181111561104657611045612049565b5b9081600181111561105a57611059612049565b5b81525050600c80146110a1576040517f08c379a0000000000000000000000000000000000000000000000000000000008152600401611098906126f9565b60405180910390fd5b60005b600c811015611149578681600c81106110c0576110bf61249c565b5b6020028101906110d09190612728565b8080601f016020809104026020016040519081016040528093929190818152602001838380828437600081840152601f19601f820116905080830192505050505050508260e001516000015182600c811061112e5761112d61249c565b5b602002018190525080806111419061255a565b9150506110a4565b506001819080600181540180825580915050600190039060005260206000209060120201600090919091909150600082015181600001908161118b919061292d565b5060208201518160010190816111a1919061292d565b5060408201518160020190816111b7919061292d565b5060608201518160030190816111cd919061292d565b5060808201518160040160006101000a81548173ffffffffffffffffffffffffffffffffffffffff021916908373ffffffffffffffffffffffffffffffffffffffff16021790555060a08201518160040160146101000a81548160ff021916908360018111156112405761123f612049565b5b021790555060c0820151816005016000820151816000019081611263919061292d565b50505060e08201518160060160008201518160000190600c611286929190611995565b505050505080925050509b9a5050505050505050505050565b6000600180549050905090565b6112b46118f4565b60018054905082106112fb576040517f08c379a00000000000000000000000000000000000000000000000000000000081526004016112f290612a4b565b60405180910390fd5b6001828154811061130f5761130e61249c565b5b906000526020600020906012020160405180610100016040529081600082018054611339906124fa565b80601f0160208091040260200160405190810160405280929190818152602001828054611365906124fa565b80156113b25780601f10611387576101008083540402835291602001916113b2565b820191906000526020600020905b81548152906001019060200180831161139557829003601f168201915b505050505081526020016001820180546113cb906124fa565b80601f01602080910402602001604051908101604052809291908181526020018280546113f7906124fa565b80156114445780601f1061141957610100808354040283529160200191611444565b820191906000526020600020905b81548152906001019060200180831161142757829003601f168201915b5050505050815260200160028201805461145d906124fa565b80601f0160208091040260200160405190810160405280929190818152602001828054611489906124fa565b80156114d65780601f106114ab576101008083540402835291602001916114d6565b820191906000526020600020905b8154815290600101906020018083116114b957829003601f168201915b505050505081526020016003820180546114ef906124fa565b80601f016020809104026020016040519081016040528092919081815260200182805461151b906124fa565b80156115685780601f1061153d57610100808354040283529160200191611568565b820191906000526020600020905b81548152906001019060200180831161154b57829003601f168201915b505050505081526020016004820160009054906101000a900473ffffffffffffffffffffffffffffffffffffffff1673ffffffffffffffffffffffffffffffffffffffff1673ffffffffffffffffffffffffffffffffffffffff1681526020016004820160149054906101000a900460ff1660018111156115ec576115eb612049565b5b60018111156115fe576115fd612049565b5b815260200160058201604051806020016040529081600082018054611622906124fa565b80601f016020809104026020016040519081016040528092919081815260200182805461164e906124fa565b801561169b5780601f106116705761010080835404028352916020019161169b565b820191906000526020600020905b81548152906001019060200180831161167e57829003601f168201915b50505050508152505081526020016006820160405180602001604052908160008201600c80602002604051908101604052809291906000905b828210156117775783820180546116ea906124fa565b80601f0160208091040260200160405190810160405280929190818152602001828054611716906124fa565b80156117635780601f1061173857610100808354040283529160200191611763565b820191906000526020600020905b81548152906001019060200180831161174657829003601f168201915b5050505050815260200190600101906116d4565b5050505081525050815250509050919050565b60008054906101000a900473ffffffffffffffffffffffffffffffffffffffff1681565b6000600282815481106117c4576117c361249c565b5b9060005260206000200160009054906101000a900473ffffffffffffffffffffffffffffffffffffffff169050919050565b6000600280549050905090565b60608173ffffffffffffffffffffffffffffffffffffffff1660008054906101000a900473ffffffffffffffffffffffffffffffffffffffff1673ffffffffffffffffffffffffffffffffffffffff1614611893576040517f08c379a000000000000000000000000000000000000000000000000000000000815260040161188a90612add565b60405180910390fd5b826000806101000a81548173ffffffffffffffffffffffffffffffffffffffff021916908373ffffffffffffffffffffffffffffffffffffffff160217905550604051806060016040528060278152602001612afe60279139905092915050565b60405180610100016040528060608152602001606081526020016060815260200160608152602001600073ffffffffffffffffffffffffffffffffffffffff1681526020016000600181111561194d5761194c612049565b5b815260200161195a6119e1565b81526020016119676119f4565b81525090565b604051806101800160405280600c905b606081526020019060019003908161197d5790505090565b82600c81019282156119d0579160200282015b828111156119cf5782518290816119bf919061292d565b50916020019190600101906119a8565b5b5090506119dd9190611a0d565b5090565b6040518060200160405280606081525090565b6040518060200160405280611a0761196d565b81525090565b5b80821115611a2d5760008181611a249190611a31565b50600101611a0e565b5090565b508054611a3d906124fa565b6000825580601f10611a4f5750611a6e565b601f016020900490600052602060002090810190611a6d9190611a71565b5b50565b5b80821115611a8a576000816000905550600101611a72565b5090565b6000604051905090565b600080fd5b600080fd5b600073ffffffffffffffffffffffffffffffffffffffff82169050919050565b6000611acd82611aa2565b9050919050565b611add81611ac2565b8114611ae857600080fd5b50565b600081359050611afa81611ad4565b92915050565b600080fd5b6000601f19601f8301169050919050565b7f4e487b7100000000000000000000000000000000000000000000000000000000600052604160045260246000fd5b611b4e82611b05565b810181811067ffffffffffffffff82111715611b6d57611b6c611b16565b5b80604052505050565b6000611b80611a8e565b9050611b8c8282611b45565b919050565b600067ffffffffffffffff821115611bac57611bab611b16565b5b602082029050919050565b600080fd5b600080fd5b600067ffffffffffffffff821115611bdc57611bdb611b16565b5b611be582611b05565b9050602081019050919050565b82818337600083830152505050565b6000611c14611c0f84611bc1565b611b76565b905082815260208101848484011115611c3057611c2f611bbc565b5b611c3b848285611bf2565b509392505050565b600082601f830112611c5857611c57611b00565b5b8135611c68848260208601611c01565b91505092915050565b6000611c84611c7f84611b91565b611b76565b90508060208402830185811115611c9e57611c9d611bb7565b5b835b81811015611ce557803567ffffffffffffffff811115611cc357611cc2611b00565b5b808601611cd08982611c43565b85526020850194505050602081019050611ca0565b5050509392505050565b600082601f830112611d0457611d03611b00565b5b600c611d11848285611c71565b91505092915050565b60008060408385031215611d3157611d30611a98565b5b6000611d3f85828601611aeb565b925050602083013567ffffffffffffffff811115611d6057611d5f611a9d565b5b611d6c85828601611cef565b9150509250929050565b60008115159050919050565b611d8b81611d76565b82525050565b6000602082019050611da66000830184611d82565b92915050565b600060208284031215611dc257611dc1611a98565b5b6000611dd084828501611aeb565b91505092915050565b600080fd5b60008083601f840112611df457611df3611b00565b5b8235905067ffffffffffffffff811115611e1157611e10611dd9565b5b602083019150836001820283011115611e2d57611e2c611bb7565b5b9250929050565b60028110611e4157600080fd5b50565b600081359050611e5381611e34565b92915050565b6000819050826020600c0282011115611e7557611e74611bb7565b5b92915050565b600080600080600080600080600080600060e08c8e031215611ea057611e9f611a98565b5b60008c013567ffffffffffffffff811115611ebe57611ebd611a9d565b5b611eca8e828f01611dde565b9b509b505060208c013567ffffffffffffffff811115611eed57611eec611a9d565b5b611ef98e828f01611dde565b995099505060408c013567ffffffffffffffff811115611f1c57611f1b611a9d565b5b611f288e828f01611dde565b97509750506060611f3b8e828f01611aeb565b9550506080611f4c8e828f01611e44565b94505060a08c013567ffffffffffffffff811115611f6d57611f6c611a9d565b5b611f798e828f01611e59565b93505060c08c013567ffffffffffffffff811115611f9a57611f99611a9d565b5b611fa68e828f01611dde565b92509250509295989b509295989b9093969950565b600081519050919050565b600082825260208201905092915050565b60005b83811015611ff5578082015181840152602081019050611fda565b60008484015250505050565b600061200c82611fbb565b6120168185611fc6565b9350612026818560208601611fd7565b61202f81611b05565b840191505092915050565b61204381611ac2565b82525050565b7f4e487b7100000000000000000000000000000000000000000000000000000000600052602160045260246000fd5b6002811061208957612088612049565b5b50565b600081905061209a82612078565b919050565b60006120aa8261208c565b9050919050565b6120ba8161209f565b82525050565b600060208301600083015184820360008601526120dd8282612001565b9150508091505092915050565b6000600c9050919050565b600081905092915050565b6000819050919050565b60006121168383612001565b905092915050565b6000602082019050919050565b6000612136826120ea565b61214081856120f5565b93508360208202850161215285612100565b8060005b8581101561218e578484038952815161216f858261210a565b945061217a8361211e565b925060208a01995050600181019050612156565b50829750879550505050505092915050565b600060208301600083015184820360008601526121bd828261212b565b9150508091505092915050565b60006101008301600083015184820360008601526121e88282612001565b915050602083015184820360208601526122028282612001565b9150506040830151848203604086015261221c8282612001565b915050606083015184820360608601526122368282612001565b915050608083015161224b608086018261203a565b5060a083015161225e60a08601826120b1565b5060c083015184820360c086015261227682826120c0565b91505060e083015184820360e086015261229082826121a0565b9150508091505092915050565b600060208201905081810360008301526122b781846121ca565b905092915050565b6000819050919050565b6122d2816122bf565b82525050565b60006020820190506122ed60008301846122c9565b92915050565b6122fc816122bf565b811461230757600080fd5b50565b600081359050612319816122f3565b92915050565b60006020828403121561233557612334611a98565b5b60006123438482850161230a565b91505092915050565b61235581611ac2565b82525050565b6000602082019050612370600083018461234c565b92915050565b6000819050919050565b600061239b61239661239184611aa2565b612376565b611aa2565b9050919050565b60006123ad82612380565b9050919050565b60006123bf826123a2565b9050919050565b6123cf816123b4565b82525050565b60006020820190506123ea60008301846123c6565b92915050565b6000806040838503121561240757612406611a98565b5b600061241585828601611aeb565b925050602061242685828601611aeb565b9150509250929050565b600082825260208201905092915050565b600061244c82611fbb565b6124568185612430565b9350612466818560208601611fd7565b61246f81611b05565b840191505092915050565b600060208201905081810360008301526124948184612441565b905092915050565b7f4e487b7100000000000000000000000000000000000000000000000000000000600052603260045260246000fd5b7f4e487b7100000000000000000000000000000000000000000000000000000000600052602260045260246000fd5b6000600282049050600182168061251257607f821691505b602082108103612525576125246124cb565b5b50919050565b7f4e487b7100000000000000000000000000000000000000000000000000000000600052601160045260246000fd5b6000612565826122bf565b91507fffffffffffffffffffffffffffffffffffffffffffffffffffffffffffffffff82036125975761259661252b565b5b600182019050919050565b600081905092915050565b60006125b882611fbb565b6125c281856125a2565b93506125d2818560208601611fd7565b80840191505092915050565b60006125ea82846125ad565b915081905092915050565b7f416e206163636f756e7420616c72656164792068617320746869732077616c6c60008201527f6574206164647265737300000000000000000000000000000000000000000000602082015250565b6000612651602a83612430565b915061265c826125f5565b604082019050919050565b6000602082019050818103600083015261268081612644565b9050919050565b7f4e756d626572206f6620776f72647320696e636f6d706c657465206f7220657860008201527f6365656465640000000000000000000000000000000000000000000000000000602082015250565b60006126e3602683612430565b91506126ee82612687565b604082019050919050565b60006020820190508181036000830152612712816126d6565b9050919050565b600080fd5b600080fd5b600080fd5b6000808335600160200384360303811261274557612744612719565b5b80840192508235915067ffffffffffffffff8211156127675761276661271e565b5b60208301925060018202360383131561278357612782612723565b5b509250929050565b60008190508160005260206000209050919050565b60006020601f8301049050919050565b600082821b905092915050565b6000600883026127ed7fffffffffffffffffffffffffffffffffffffffffffffffffffffffffffffffff826127b0565b6127f786836127b0565b95508019841693508086168417925050509392505050565b600061282a612825612820846122bf565b612376565b6122bf565b9050919050565b6000819050919050565b6128448361280f565b61285861285082612831565b8484546127bd565b825550505050565b600090565b61286d612860565b61287881848461283b565b505050565b5b8181101561289c57612891600082612865565b60018101905061287e565b5050565b601f8211156128e1576128b28161278b565b6128bb846127a0565b810160208510156128ca578190505b6128de6128d6856127a0565b83018261287d565b50505b505050565b600082821c905092915050565b6000612904600019846008026128e6565b1980831691505092915050565b600061291d83836128f3565b9150826002028217905092915050565b61293682611fbb565b67ffffffffffffffff81111561294f5761294e611b16565b5b61295982546124fa565b6129648282856128a0565b600060209050601f8311600181146129975760008415612985578287015190505b61298f8582612911565b8655506129f7565b601f1984166129a58661278b565b60005b828110156129cd578489015182556001820191506020850194506020810190506129a8565b868310156129ea57848901516129e6601f8916826128f3565b8355505b6001600288020188555050505b505050505050565b7f54686973205573657220646f65736e2774206578697374000000000000000000600082015250565b6000612a35601783612430565b9150612a40826129ff565b602082019050919050565b60006020820190508181036000830152612a6481612a28565b9050919050565b7f696e76616c6964206164647265737320666f72207468652063757272656e742060008201527f6f776e6572000000000000000000000000000000000000000000000000000000602082015250565b6000612ac7602583612430565b9150612ad282612a6b565b604082019050919050565b60006020820190508181036000830152612af681612aba565b905091905056fe636f6e7472616374206f776e65727368697020636c61696d6564207375636365737366756c6c79a26469706673582212209d7ffb75c6b9e90edb762d1320e2d21cedcc3c100a7b3e774e9282d5c63eb5e264736f6c63430008140033",
  "linkReferences": {},
  "deployedLinkReferences": {}
}